{
  "hash": "000000000000ad7568a1f314070d4dcb51f5324b996c66ba223a3757ebe21d87",
  "confirmations": 406144,
  "strippedsize": 3135,
  "size": 3135,
  "weight": 12540,
  "height": 118400,
  "version": 1,
  "versionHex": "00000001",
  "merkleroot": "64dce33fcb435f8219d8cd0c45d3bd01ad3506c96ffe9e7dd4bb137f55687403",
  "tx": [
    {
      "txid": "b6eb204ce288cb16f40e417ba1982a9ec7aad6399cc0ac7db06d4540d9de17ee",
      "hash": "b6eb204ce288cb16f40e417ba1982a9ec7aad6399cc0ac7db06d4540d9de17ee",
      "version": 1,
      "size": 134,
      "vsize": 134,
      "locktime": 0,
      "vin": [
        {
          "coinbase": "04bdcb001b010e",
          "sequence": 4294967295
        }
      ],
      "vout": [
        {
          "value": 50.01000000,
          "n": 0,
          "scriptPubKey": {
            "asm": "0474f6aca30c79888e0c2956aec50681260f5938d3e3dbf3dce7bda99c083acacb1e988544a2a5387bf3c0b552ff9fcf1c28f62b67f56ea1358148abe4866a219e OP_CHECKSIG",
            "hex": "410474f6aca30c79888e0c2956aec50681260f5938d3e3dbf3dce7bda99c083acacb1e988544a2a5387bf3c0b552ff9fcf1c28f62b67f56ea1358148abe4866a219eac",
            "reqSigs": 1,
            "type": "pubkey",
            "addresses": [
              "1Q5ivYk3mYF26RUFrFfSnGm9yHEUmV4AZE"
            ]
          }
        }
      ],
      "hex": "01000000010000000000000000000000000000000000000000000000000000000000000000ffffffff0704bdcb001b010effffffff014034152a0100000043410474f6aca30c79888e0c2956aec50681260f5938d3e3dbf3dce7bda99c083acacb1e988544a2a5387bf3c0b552ff9fcf1c28f62b67f56ea1358148abe4866a219eac00000000"
    },
    {
      "txid": "34ff2be826d0c940836fe4b6a7701dd3b760ce7a65fd865cd544242973f62ab5",
      "hash": "34ff2be826d0c940836fe4b6a7701dd3b760ce7a65fd865cd544242973f62ab5",
      "version": 1,
      "size": 797,
      "vsize": 797,
      "locktime": 0,
      "vin": [
        {
          "txid": "fa54cb6092d39ec827bcf03ddfbd4fe4b96b29e618d868ceb8027138c6bcd2c1",
          "vout": 0,
          "scriptSig": {
            "asm": "3045022023ecc167b2acd7bb04e44f482449150de367bf1cc7fb696424fdbc787a970de0022100c082c3d5f10b15afeadde49702933e1d30c6c297356c9e6de262ad10e19f2f22[ALL] 04eedc1159fda5f5f756a1e020212c9667b5577ea6b5d46af3c16e10812ec8712009b71b9c55ef4b904d4b12376bc67d65cace8205b73cd92034176da01e9275cc",
            "hex": "483045022023ecc167b2acd7bb04e44f482449150de367bf1cc7fb696424fdbc787a970de0022100c082c3d5f10b15afeadde49702933e1d30c6c297356c9e6de262ad10e19f2f22014104eedc1159fda5f5f756a1e020212c9667b5577ea6b5d46af3c16e10812ec8712009b71b9c55ef4b904d4b12376bc67d65cace8205b73cd92034176da01e9275cc"
          },
          "sequence": 4294967295
        },
        {
          "txid": "b72efc790abba3603755fefc3e39ec42c810e3b3b3dc307f3a5292f8388883f5",
          "vout": 1,
          "scriptSig": {
            "asm": "304402206044982c44e04c4fca7e7cf064ada9a7e638593ed50cc05f22faab31c3c3f4a80220128b994dba115d2b8d6b9b336ee13a66577ec2f41eafd3a19b50ea784683b8cb[ALL] 0446982027ce85d2429b4fd47d8e28b940170b1eb06f1eb32bea514814f042bf01bafe1fdae2da2e639f49bb6495d981eb475c1cc17cd68c6f68ba6dd1bf051ca9",
            "hex": "47304402206044982c44e04c4fca7e7cf064ada9a7e638593ed50cc05f22faab31c3c3f4a80220128b994dba115d2b8d6b9b336ee13a66577ec2f41eafd3a19b50ea784683b8cb01410446982027ce85d2429b4fd47d8e28b940170b1eb06f1eb32bea514814f042bf01bafe1fdae2da2e639f49bb6495d981eb475c1cc17cd68c6f68ba6dd1bf051ca9"
          },
          "sequence": 4294967295
        },
        {
          "txid": "e1f43a9bea66df0504362f9e79e5de79a8a82c12353198886b63544221cb83a9",
          "vout": 0,
          "scriptSig": {
            "asm": "304502206f60a60b26ff349c49cd8258d1b513beb17312aa46b749a9a4a31b822496f131022100f2469ca7f4464ac457d261ea7f91fb7a3994435e99fbb1f33643aa7bd46b11b9[ALL] 04eedc1159fda5f5f756a1e020212c9667b5577ea6b5d46af3c16e10812ec8712009b71b9c55ef4b904d4b12376bc67d65cace8205b73cd92034176da01e9275cc",
            "hex": "48304502206f60a60b26ff349c49cd8258d1b513beb17312aa46b749a9a4a31b822496f131022100f2469ca7f4464ac457d261ea7f91fb7a3994435e99fbb1f33643aa7bd46b11b9014104eedc1159fda5f5f756a1e020212c9667b5577ea6b5d46af3c16e10812ec8712009b71b9c55ef4b904d4b12376bc67d65cace8205b73cd92034176da01e9275cc"
          },
          "sequence": 4294967295
        },
        {
          "txid": "3adca48e3123102055f9af625b20915b94de09c51ffb39bc0aa05556fdee77b8",
          "vout": 0,
          "scriptSig": {
            "asm": "3045022100c210e24c9397911a13c6b330c1fb44ede3e3de34fcbe06f0438d7c405c3e62f402207ec52209fdc228440376a4eecb8aa20739b5c5219d62060960ca1a6051e6a452[ALL] 045c22bd06f8736ab910b9bf8cb9676619ea3a337e4b1e2fc3d158f4c112ef149eee14220ab0e160dbd6999173ecc7d532aa78b3ba89dc0e7c7437667445d38f2d",
            "hex": "483045022100c210e24c9397911a13c6b330c1fb44ede3e3de34fcbe06f0438d7c405c3e62f402207ec52209fdc228440376a4eecb8aa20739b5c5219d62060960ca1a6051e6a4520141045c22bd06f8736ab910b9bf8cb9676619ea3a337e4b1e2fc3d158f4c112ef149eee14220ab0e160dbd6999173ecc7d532aa78b3ba89dc0e7c7437667445d38f2d"
          },
          "sequence": 4294967295
        }
      ],
      "vout": [
        {
          "value": 861.68000000,
          "n": 0,
          "scriptPubKey": {
            "asm": "OP_DUP OP_HASH160 ba5d00692a9aafb0c01285c73a9d8ed73e2ffad9 OP_EQUALVERIFY OP_CHECKSIG",
            "hex": "76a914ba5d00692a9aafb0c01285c73a9d8ed73e2ffad988ac",
            "reqSigs": 1,
            "type": "pubkeyhash",
            "addresses": [
              "1HzQ6YdBPfNnD9BYzfBV3hgRN2m1JkCVqa"
            ]
          }
        },
        {
          "value": 68.44000000,
          "n": 1,
          "scriptPubKey": {
            "asm": "OP_DUP OP_HASH160 d7950d53be899c5f53c8b2e3610bf81e990b1a90 OP_EQUALVERIFY OP_CHECKSIG",
            "hex": "76a914d7950d53be899c5f53c8b2e3610bf81e990b1a9088ac",
            "reqSigs": 1,
            "type": "pubkeyhash",
            "addresses": [
              "1LetqZc7wjsWVawasS1KXvz6YLq863cyJF"
            ]
          }
        }
      ],
      "hex": "0100000004c1d2bcc6387102b8ce68d818e6296bb9e44fbddf3df0bc27c89ed39260cb54fa000000008b483045022023ecc167b2acd7bb04e44f482449150de367bf1cc7fb696424fdbc787a970de0022100c082c3d5f10b15afeadde49702933e1d30c6c297356c9e6de262ad10e19f2f22014104eedc1159fda5f5f756a1e020212c9667b5577ea6b5d46af3c16e10812ec8712009b71b9c55ef4b904d4b12376bc67d65cace8205b73cd92034176da01e9275ccfffffffff5838838f892523a7f30dcb3b3e310c842ec393efcfe553760a3bb0a79fc2eb7010000008a47304402206044982c44e04c4fca7e7cf064ada9a7e638593ed50cc05f22faab31c3c3f4a80220128b994dba115d2b8d6b9b336ee13a66577ec2f41eafd3a19b50ea784683b8cb01410446982027ce85d2429b4fd47d8e28b940170b1eb06f1eb32bea514814f042bf01bafe1fdae2da2e639f49bb6495d981eb475c1cc17cd68c6f68ba6dd1bf051ca9ffffffffa983cb214254636b88983135122ca8a879dee5799e2f360405df66ea9b3af4e1000000008b48304502206f60a60b26ff349c49cd8258d1b513beb17312aa46b749a9a4a31b822496f131022100f2469ca7f4464ac457d261ea7f91fb7a3994435e99fbb1f33643aa7bd46b11b9014104eedc1159fda5f5f756a1e020212c9667b5577ea6b5d46af3c16e10812ec8712009b71b9c55ef4b904d4b12376bc67d65cace8205b73cd92034176da01e9275ccffffffffb877eefd5655a00abc39fb1fc509de945b91205b62aff955201023318ea4dc3a000000008b483045022100c210e24c9397911a13c6b330c1fb44ede3e3de34fcbe06f0438d7c405c3e62f402207ec52209fdc228440376a4eecb8aa20739b5c5219d62060960ca1a6051e6a4520141045c22bd06f8736ab910b9bf8cb9676619ea3a337e4b1e2fc3d158f4c112ef149eee14220ab0e160dbd6999173ecc7d532aa78b3ba89dc0e7c7437667445d38f2dffffffff0200560310140000001976a914ba5d00692a9aafb0c01285c73a9d8ed73e2ffad988ac0027ef97010000001976a914d7950d53be899c5f53c8b2e3610bf81e990b1a9088ac00000000"
    },
    {
      "txid": "945141c03e99848040e882c72f577b07e8bb35d66c9154d87196487c28b71b88",
      "hash": "945141c03e99848040e882c72f577b07e8bb35d66c9154d87196487c28b71b88",
      "version": 1,
      "size": 405,
      "vsize": 405,
      "locktime": 0,
      "vin": [
        {
          "txid": "8159fa33c4516e54617c450bed1af34297b8dce98eeeb2ebc56034a5901ff72f",
          "vout": 0,
          "scriptSig": {
            "asm": "3046022100e8c461950b9bcda7c229151cf2d7ff29e35e61ecba30343ec9161d5a837da5c502210082758027753cd95e2b088d3e254c5cc918115cd4e41adc2bf2414f710a6a7c2c[ALL] 04537beb1cb96bbcabda239e194f16f4f4bbbd253b2efae4f0e4e8bb62d7b3e398cecbc4de776fee873e3ca9ffa39d501bf46ba631a3da94c6b184e3382e193f58",
            "hex": "493046022100e8c461950b9bcda7c229151cf2d7ff29e35e61ecba30343ec9161d5a837da5c502210082758027753cd95e2b088d3e254c5cc918115cd4e41adc2bf2414f710a6a7c2c014104537beb1cb96bbcabda239e194f16f4f4bbbd253b2efae4f0e4e8bb62d7b3e398cecbc4de776fee873e3ca9ffa39d501bf46ba631a3da94c6b184e3382e193f58"
          },
          "sequence": 4294967295
        },
        {
          "txid": "c7bea2c6634d016203c94ee36712ed2b2abc4cefb58868280520392d811ed314",
          "vout": 1,
          "scriptSig": {
            "asm": "304502202adc9ee6e8e4cfe72425a8a73a574057bbe9efb796ed54e435ca05895d95042d022100b3c5f75626ec20dda75d919884f7b7cef8044ea8a0559fb51b828364ee9c72fd[ALL] 04e8968e226dfd5df989a6a3b03a8e2d2981bcd342ef67065047ab8f2b8e9ff9126d2ced6fe1c06ff7d25894a4b415032072db04179ab59085fffd9024e506ec76",
            "hex": "48304502202adc9ee6e8e4cfe72425a8a73a574057bbe9efb796ed54e435ca05895d95042d022100b3c5f75626ec20dda75d919884f7b7cef8044ea8a0559fb51b828364ee9c72fd014104e8968e226dfd5df989a6a3b03a8e2d2981bcd342ef67065047ab8f2b8e9ff9126d2ced6fe1c06ff7d25894a4b415032072db04179ab59085fffd9024e506ec76"
          },
          "sequence": 4294967295
        }
      ],
      "vout": [
        {
          "value": 200.00000000,
          "n": 0,
          "scriptPubKey": {
            "asm": "OP_DUP OP_HASH160 cde0b4c41eb21c2cde725a57794d216feac0d401 OP_EQUALVERIFY OP_CHECKSIG",
            "hex": "76a914cde0b4c41eb21c2cde725a57794d216feac0d40188ac",
            "reqSigs": 1,
            "type": "pubkeyhash",
            "addresses": [
              "1KmaiBSWEwmLcmq1TZzEJqwvmchS6t2n3E"
            ]
          }
        }
      ],
      "hex": "01000000022ff71f90a53460c5ebb2ee8ee9dcb89742f31aed0b457c61546e51c433fa5981000000008c493046022100e8c461950b9bcda7c229151cf2d7ff29e35e61ecba30343ec9161d5a837da5c502210082758027753cd95e2b088d3e254c5cc918115cd4e41adc2bf2414f710a6a7c2c014104537beb1cb96bbcabda239e194f16f4f4bbbd253b2efae4f0e4e8bb62d7b3e398cecbc4de776fee873e3ca9ffa39d501bf46ba631a3da94c6b184e3382e193f58ffffffff14d31e812d392005286888b5ef4cbc2a2bed1267e34ec90362014d63c6a2bec7010000008b48304502202adc9ee6e8e4cfe72425a8a73a574057bbe9efb796ed54e435ca05895d95042d022100b3c5f75626ec20dda75d919884f7b7cef8044ea8a0559fb51b828364ee9c72fd014104e8968e226dfd5df989a6a3b03a8e2d2981bcd342ef67065047ab8f2b8e9ff9126d2ced6fe1c06ff7d25894a4b415032072db04179ab59085fffd9024e506ec76ffffffff0100c817a8040000001976a914cde0b4c41eb21c2cde725a57794d216feac0d40188ac00000000"
    },
    {
      "txid": "9b835f4cda1c6608d192673b554663f985ed3e82f86ae74b4a4ee9edfada6ab6",
      "hash": "9b835f4cda1c6608d192673b554663f985ed3e82f86ae74b4a4ee9edfada6ab6",
      "version": 1,
      "size": 438,
      "vsize": 438,
      "locktime": 0,
      "vin": [
        {
          "txid": "d776ff4810ea7cb1283645ac1980887bae06cf48c3ce25bab5174775355364e5",
          "vout": 0,
          "scriptSig": {
            "asm": "3044022076ece243cde8e2523cda9bf1f9bcd5ca3208333284adc603b40ad4610d1fcb910220432c2aa4ad0da9a7dd1fb25eba24c015a399e3d018109033f5fee2b583652534[ALL] 0460a53b1f53603a19a8ac3e152d064d372400be5a87ae0429fd17278fb1b2ad7ef8f9d4acea8288d581c041a6d0dd799487f01c00fd33f90e85ec129b2a7280f7",
            "hex": "473044022076ece243cde8e2523cda9bf1f9bcd5ca3208333284adc603b40ad4610d1fcb910220432c2aa4ad0da9a7dd1fb25eba24c015a399e3d018109033f5fee2b58365253401410460a53b1f53603a19a8ac3e152d064d372400be5a87ae0429fd17278fb1b2ad7ef8f9d4acea8288d581c041a6d0dd799487f01c00fd33f90e85ec129b2a7280f7"
          },
          "sequence": 4294967295
        },
        {
          "txid": "d776ff4810ea7cb1283645ac1980887bae06cf48c3ce25bab5174775355364e5",
          "vout": 1,
          "scriptSig": {
            "asm": "3046022100fd8ec96dca7cc3566eaebaed860fedeabb29e3373dce41c3494683397b5fbe37022100f1ca0d06dc928900d20753def02e5de0b9cb5934d6a47bf2a3c4de708122cb6f[ALL] 0482daceeb97b49e9661a7176493ec8df9f31f9764fef6a3e221b5054b8242826fc0a049e58fbe646d35770083d7454f81cbedd0d0b3a5cd9a4b77c9c9bb07b00a",
            "hex": "493046022100fd8ec96dca7cc3566eaebaed860fedeabb29e3373dce41c3494683397b5fbe37022100f1ca0d06dc928900d20753def02e5de0b9cb5934d6a47bf2a3c4de708122cb6f01410482daceeb97b49e9661a7176493ec8df9f31f9764fef6a3e221b5054b8242826fc0a049e58fbe646d35770083d7454f81cbedd0d0b3a5cd9a4b77c9c9bb07b00a"
          },
          "sequence": 4294967295
        }
      ],
      "vout": [
        {
          "value": 9.98000000,
          "n": 0,
          "scriptPubKey": {
            "asm": "OP_DUP OP_HASH160 50deac67a6f08bec86c5a1442bdeaa49ecc8b0ac OP_EQUALVERIFY OP_CHECKSIG",
            "hex": "76a91450deac67a6f08bec86c5a1442bdeaa49ecc8b0ac88ac",
            "reqSigs": 1,
            "type": "pubkeyhash",
            "addresses": [
              "18NboyEBGQg6ngCP5SRAqfcxADZ7aTkjTj"
            ]
          }
        },
        {
          "value": 10.00000000,
          "n": 1,
          "scriptPubKey": {
            "asm": "OP_DUP OP_HASH160 0674daeba2d5e8e6b00b60e0b0d9f86fc00cca4a OP_EQUALVERIFY OP_CHECKSIG",
            "hex": "76a9140674daeba2d5e8e6b00b60e0b0d9f86fc00cca4a88ac",
            "reqSigs": 1,
            "type": "pubkeyhash",
            "addresses": [
              "1b93PbxU7wk4hAozQcGV4QtvQy1tsdrnm"
            ]
          }
        }
      ],
      "hex": "0100000002e5645335754717b5ba25cec348cf06ae7b888019ac453628b17cea1048ff76d7000000008a473044022076ece243cde8e2523cda9bf1f9bcd5ca3208333284adc603b40ad4610d1fcb910220432c2aa4ad0da9a7dd1fb25eba24c015a399e3d018109033f5fee2b58365253401410460a53b1f53603a19a8ac3e152d064d372400be5a87ae0429fd17278fb1b2ad7ef8f9d4acea8288d581c041a6d0dd799487f01c00fd33f90e85ec129b2a7280f7ffffffffe5645335754717b5ba25cec348cf06ae7b888019ac453628b17cea1048ff76d7010000008c493046022100fd8ec96dca7cc3566eaebaed860fedeabb29e3373dce41c3494683397b5fbe37022100f1ca0d06dc928900d20753def02e5de0b9cb5934d6a47bf2a3c4de708122cb6f01410482daceeb97b49e9661a7176493ec8df9f31f9764fef6a3e221b5054b8242826fc0a049e58fbe646d35770083d7454f81cbedd0d0b3a5cd9a4b77c9c9bb07b00affffffff0280457c3b000000001976a91450deac67a6f08bec86c5a1442bdeaa49ecc8b0ac88ac00ca9a3b000000001976a9140674daeba2d5e8e6b00b60e0b0d9f86fc00cca4a88ac00000000"
    },
    {
      "txid": "c72ad456bbeece6ff61fb7242297869f17bba8155229eb4b2850f9e151950b2b",
      "hash": "c72ad456bbeece6ff61fb7242297869f17bba8155229eb4b2850f9e151950b2b",
      "version": 1,
      "size": 259,
      "vsize": 259,
      "locktime": 0,
      "vin": [
        {
          "txid": "9f3503429d463dcb4454b5329d0c0650dd9da888a6a907ea52f500cbcfa314ef",
          "vout": 0,
          "scriptSig": {
            "asm": "3046022100fa7f725bc71a35a73b7d9394747a281a37b2a99f1fa4a46831df3f1e5a4a7c37022100c2c27049cb7fa89e6cd44a030ffe0d0c91aff16842ccb672f561c1afe692f385[ALL] 04eb66b214dbde46e5c84bd25eeca806f8476f744a6d37a9f4b2787bb944eaecc4964898afef222960681a8f529311c08374a3368b2b36e78c0345a48ec2d64310",
            "hex": "493046022100fa7f725bc71a35a73b7d9394747a281a37b2a99f1fa4a46831df3f1e5a4a7c37022100c2c27049cb7fa89e6cd44a030ffe0d0c91aff16842ccb672f561c1afe692f385014104eb66b214dbde46e5c84bd25eeca806f8476f744a6d37a9f4b2787bb944eaecc4964898afef222960681a8f529311c08374a3368b2b36e78c0345a48ec2d64310"
          },
          "sequence": 4294967295
        }
      ],
      "vout": [
        {
          "value": 10.71000000,
          "n": 0,
          "scriptPubKey": {
            "asm": "OP_DUP OP_HASH160 d5808dcf6264d11d162b6db821fc6ae9548d5dbd OP_EQUALVERIFY OP_CHECKSIG",
            "hex": "76a914d5808dcf6264d11d162b6db821fc6ae9548d5dbd88ac",
            "reqSigs": 1,
            "type": "pubkeyhash",
            "addresses": [
              "1LTtvwngpFRMxBRUoo514ZGhhg4se8JVqc"
            ]
          }
        },
        {
          "value": 34.29000000,
          "n": 1,
          "scriptPubKey": {
            "asm": "OP_DUP OP_HASH160 c4cc25ab8409c68f6d835b38e9d9cbba8a56c13d OP_EQUALVERIFY OP_CHECKSIG",
            "hex": "76a914c4cc25ab8409c68f6d835b38e9d9cbba8a56c13d88ac",
            "reqSigs": 1,
            "type": "pubkeyhash",
            "addresses": [
              "1JwZzzVjb1P12oPaUNcnkEyJ5xFCaG2Sxs"
            ]
          }
        }
      ],
      "hex": "0100000001ef14a3cfcb00f552ea07a9a688a89ddd50060c9d32b55444cb3d469d4203359f000000008c493046022100fa7f725bc71a35a73b7d9394747a281a37b2a99f1fa4a46831df3f1e5a4a7c37022100c2c27049cb7fa89e6cd44a030ffe0d0c91aff16842ccb672f561c1afe692f385014104eb66b214dbde46e5c84bd25eeca806f8476f744a6d37a9f4b2787bb944eaecc4964898afef222960681a8f529311c08374a3368b2b36e78c0345a48ec2d64310ffffffff02c029d63f000000001976a914d5808dcf6264d11d162b6db821fc6ae9548d5dbd88ac406362cc000000001976a914c4cc25ab8409c68f6d835b38e9d9cbba8a56c13d88ac00000000"
    },
    {
      "txid": "923beb238dbd03d7435e8f3e8722819c01f033e534967cf4018f2c5153d9f02f",
      "hash": "923beb238dbd03d7435e8f3e8722819c01f033e534967cf4018f2c5153d9f02f",
      "version": 1,
      "size": 763,
      "vsize": 763,
      "locktime": 0,
      "vin": [
        {
          "txid": "0a2344f41a419dda8a6f71f97309e96c48873f8adb513b0b461a6e840fdc05bf",
          "vout": 0,
          "scriptSig": {
            "asm": "304602210087aec28fb9db2805bcd79739b0ec75e00692e41b13cc01af7e8f4a7f016025e50221008f6e9fdab45eb9c1dc7584473f12ad04eb6e77678e1a301ddda049bc86be4f93[ALL] 046ad0394e70befa9f00ebd6ebefe44850089bd5ddd73635ed1d3662ffd99a16a09dd3902574507c232557a804b40f5f2c3273c668432368af18d988416a800287",
            "hex": "49304602210087aec28fb9db2805bcd79739b0ec75e00692e41b13cc01af7e8f4a7f016025e50221008f6e9fdab45eb9c1dc7584473f12ad04eb6e77678e1a301ddda049bc86be4f930141046ad0394e70befa9f00ebd6ebefe44850089bd5ddd73635ed1d3662ffd99a16a09dd3902574507c232557a804b40f5f2c3273c668432368af18d988416a800287"
          },
          "sequence": 4294967295
        },
        {
          "txid": "d56ac3519a8d147a66b31477a853ad13cbda6f8ae181fac87de238b2b5e6af5a",
          "vout": 1,
          "scriptSig": {
            "asm": "304402203d352d655187ad6ff9ce584314edb0901e9b242fdbd20feaa0fe5bfde969bea702200a38f973c93ab5df7118246c1efbe56ce5f73bed618bb1d05fe9c7ccfe12aed1[ALL] 04122cb6201f19b661860d19e5135e739bb4808b9c45ee2b5ec667eec9a46999246e100e2f8cd9cc0dbd79b3cf0f6e79e084f18b517a81150af26299c347342638",
            "hex": "47304402203d352d655187ad6ff9ce584314edb0901e9b242fdbd20feaa0fe5bfde969bea702200a38f973c93ab5df7118246c1efbe56ce5f73bed618bb1d05fe9c7ccfe12aed1014104122cb6201f19b661860d19e5135e739bb4808b9c45ee2b5ec667eec9a46999246e100e2f8cd9cc0dbd79b3cf0f6e79e084f18b517a81150af26299c347342638"
          },
          "sequence": 4294967295
        },
        {
          "txid": "d56ac3519a8d147a66b31477a853ad13cbda6f8ae181fac87de238b2b5e6af5a",
          "vout": 15,
          "scriptSig": {
            "asm": "304402206e8c68ee73667f0ad251bcd3cfc342daa93759357f480634eb7ce74a068f9aa90220610b3908b57dcd4af9473e8572e9c79cfbaab9ab8326b52102d9faff26b3bba9[ALL] 046211e9e10f731036b78624b60a1cebccc4c3dfbc0cc67ee5e80be2c01eef87b6dbe0281b36c6d5cf7906a7d1c78ac02f9d483380abc84d4a639a0a66acee5593",
            "hex": "47304402206e8c68ee73667f0ad251bcd3cfc342daa93759357f480634eb7ce74a068f9aa90220610b3908b57dcd4af9473e8572e9c79cfbaab9ab8326b52102d9faff26b3bba90141046211e9e10f731036b78624b60a1cebccc4c3dfbc0cc67ee5e80be2c01eef87b6dbe0281b36c6d5cf7906a7d1c78ac02f9d483380abc84d4a639a0a66acee5593"
          },
          "sequence": 4294967295
        },
        {
          "txid": "d56ac3519a8d147a66b31477a853ad13cbda6f8ae181fac87de238b2b5e6af5a",
          "vout": 26,
          "scriptSig": {
            "asm": "3045022100b41b8d644c433d4df90c15d5a1981eae7cf7d6fbb39aeef2b95bc5c56a184f4e02205c1ad4e1defdf573b9763a4fff1239cd79784361fe72da47edc0ea3392b9b3e8[ALL] 0473e6c5c65ca8e27f3ef37013cbda5690725ba6ed8d770f60d0febb7cfe63524dbf0a0ef4671c3a166bb2037513d66551b0b3bed5d96e108e369ca9d93ba793ef",
            "hex": "483045022100b41b8d644c433d4df90c15d5a1981eae7cf7d6fbb39aeef2b95bc5c56a184f4e02205c1ad4e1defdf573b9763a4fff1239cd79784361fe72da47edc0ea3392b9b3e801410473e6c5c65ca8e27f3ef37013cbda5690725ba6ed8d770f60d0febb7cfe63524dbf0a0ef4671c3a166bb2037513d66551b0b3bed5d96e108e369ca9d93ba793ef"
          },
          "sequence": 4294967295
        }
      ],
      "vout": [
        {
          "value": 1.70000000,
          "n": 0,
          "scriptPubKey": {
            "asm": "OP_DUP OP_HASH160 2b46c3db6c0dc159cd1ee1644355c5d9b0af1d23 OP_EQUALVERIFY OP_CHECKSIG",
            "hex": "76a9142b46c3db6c0dc159cd1ee1644355c5d9b0af1d2388ac",
            "reqSigs": 1,
            "type": "pubkeyhash",
            "addresses": [
              "14wpq6Ketx96q4Vh4f5EGEtv5xDpZ5Epa7"
            ]
          }
        }
      ],
      "hex": "0100000004bf05dc0f846e1a460b3b51db8a3f87486ce90973f9716f8ada9d411af444230a000000008c49304602210087aec28fb9db2805bcd79739b0ec75e00692e41b13cc01af7e8f4a7f016025e50221008f6e9fdab45eb9c1dc7584473f12ad04eb6e77678e1a301ddda049bc86be4f930141046ad0394e70befa9f00ebd6ebefe44850089bd5ddd73635ed1d3662ffd99a16a09dd3902574507c232557a804b40f5f2c3273c668432368af18d988416a800287ffffffff5aafe6b5b238e27dc8fa81e18a6fdacb13ad53a87714b3667a148d9a51c36ad5010000008a47304402203d352d655187ad6ff9ce584314edb0901e9b242fdbd20feaa0fe5bfde969bea702200a38f973c93ab5df7118246c1efbe56ce5f73bed618bb1d05fe9c7ccfe12aed1014104122cb6201f19b661860d19e5135e739bb4808b9c45ee2b5ec667eec9a46999246e100e2f8cd9cc0dbd79b3cf0f6e79e084f18b517a81150af26299c347342638ffffffff5aafe6b5b238e27dc8fa81e18a6fdacb13ad53a87714b3667a148d9a51c36ad50f0000008a47304402206e8c68ee73667f0ad251bcd3cfc342daa93759357f480634eb7ce74a068f9aa90220610b3908b57dcd4af9473e8572e9c79cfbaab9ab8326b52102d9faff26b3bba90141046211e9e10f731036b78624b60a1cebccc4c3dfbc0cc67ee5e80be2c01eef87b6dbe0281b36c6d5cf7906a7d1c78ac02f9d483380abc84d4a639a0a66acee5593ffffffff5aafe6b5b238e27dc8fa81e18a6fdacb13ad53a87714b3667a148d9a51c36ad51a0000008b483045022100b41b8d644c433d4df90c15d5a1981eae7cf7d6fbb39aeef2b95bc5c56a184f4e02205c1ad4e1defdf573b9763a4fff1239cd79784361fe72da47edc0ea3392b9b3e801410473e6c5c65ca8e27f3ef37013cbda5690725ba6ed8d770f60d0febb7cfe63524dbf0a0ef4671c3a166bb2037513d66551b0b3bed5d96e108e369ca9d93ba793efffffffff0180fe210a000000001976a9142b46c3db6c0dc159cd1ee1644355c5d9b0af1d2388ac00000000"
    },
    {
      "txid": "e8dce5945b4a923a54930cfc1d1c133c54429a54d53dc53ce6a7721f50753a74",
      "hash": "e8dce5945b4a923a54930cfc1d1c133c54429a54d53dc53ce6a7721f50753a74",
      "version": 1,
      "size": 258,
      "vsize": 258,
      "locktime": 0,
      "vin": [
        {
          "txid": "aca0f8baaae64714cd28057ef3ff6d974e369e3c8bdd69f362a07894ebf4c71f",
          "vout": 0,
          "scriptSig": {
            "asm": "3045022100fd1fef1ede1f463cbbc9cf846aecc6b0ee02b35db88911a1e0ea6c2f946225f6022050d564835dafa1267c3a02fb026c502178ab455c8a022137883e9e4eee98f663[ALL] 042d6c1fd5c8bdbeed00bed6ebcea6b4b2f0f08d58e4167a2c630c89a640320c55b87b7495f7608e2d59883c0b881c991cf5afc39ea282d69543e0d051e91a3b70",
            "hex": "483045022100fd1fef1ede1f463cbbc9cf846aecc6b0ee02b35db88911a1e0ea6c2f946225f6022050d564835dafa1267c3a02fb026c502178ab455c8a022137883e9e4eee98f6630141042d6c1fd5c8bdbeed00bed6ebcea6b4b2f0f08d58e4167a2c630c89a640320c55b87b7495f7608e2d59883c0b881c991cf5afc39ea282d69543e0d051e91a3b70"
          },
          "sequence": 4294967295
        }
      ],
      "vout": [
        {
          "value": 2.64000000,
          "n": 0,
          "scriptPubKey": {
            "asm": "OP_DUP OP_HASH160 ff84fe6c7101f21e30b4ec6ccefba247219cb9e5 OP_EQUALVERIFY OP_CHECKSIG",
            "hex": "76a914ff84fe6c7101f21e30b4ec6ccefba247219cb9e588ac",
            "reqSigs": 1,
            "type": "pubkeyhash",
            "addresses": [
              "1QJ4dVURTwzp2xAsX7666QK8GBgdurCkg5"
            ]
          }
        },
        {
          "value": 10.10000000,
          "n": 1,
          "scriptPubKey": {
            "asm": "OP_DUP OP_HASH160 a318f77587dc7961a42196c63e649b1ace4d3c91 OP_EQUALVERIFY OP_CHECKSIG",
            "hex": "76a914a318f77587dc7961a42196c63e649b1ace4d3c9188ac",
            "reqSigs": 1,
            "type": "pubkeyhash",
            "addresses": [
              "1FsP3yt8kVr433PFV3abN1EybWqdx1HJBc"
            ]
          }
        }
      ],
      "hex": "01000000011fc7f4eb9478a062f369dd8b3c9e364e976dfff37e0528cd1447e6aabaf8a0ac000000008b483045022100fd1fef1ede1f463cbbc9cf846aecc6b0ee02b35db88911a1e0ea6c2f946225f6022050d564835dafa1267c3a02fb026c502178ab455c8a022137883e9e4eee98f6630141042d6c1fd5c8bdbeed00bed6ebcea6b4b2f0f08d58e4167a2c630c89a640320c55b87b7495f7608e2d59883c0b881c991cf5afc39ea282d69543e0d051e91a3b70ffffffff020052bc0f000000001976a914ff84fe6c7101f21e30b4ec6ccefba247219cb9e588ac8060333c000000001976a914a318f77587dc7961a42196c63e649b1ace4d3c9188ac00000000"
    }
  ],
  "time": 1302821550,
  "mediantime": 1302817431,
  "nonce": 2204139568,
  "bits": "1b00cbbd",
  "difficulty": 82345.64411296662,
  "chainwork": "00000000000000000000000000000000000000000000000034a35d9ad23b902e",
  "previousblockhash": "00000000000093ac7e7a34d9d3e338259553c80306b56c5c8e711791a50112df",
  "nextblockhash": "0000000000003f5e57bbd4c304160b42fdff28a68372407faefd1eba6fa8507f"
}