{"txid":"028e26d6c57ae942bdea50a140a0d335d13a818860aaa56d2588c728f8dd01c4","hash":"028e26d6c57ae942bdea50a140a0d335d13a818860aaa56d2588c728f8dd01c4","version":1,"size":258,"vsize":258,"locktime":0,"vin":[{"sequence":4294967295,"txid":"af055a92e514c503a8af1f057555f8a427e5cdddf157d99ed14f5682670dc8fd","vout":1,"scriptSig":{"asm":"3045022002171463893f7b3fe05c3b706cc2f445ce80709a21cd32fdd855513c42f350e8022100e5cf8e485c55d37b4c35707ddcd72abef2104f2327445983d40118ebef772b05[ALL] 048f870c8fe21fd9fd423cfc71fbd338bed3b43825193bacd6a42220b3a92d45fdf501a99aa3b82b6b69cfc981aee1d31cb5686237412e2c635e5bfbe3dca689d9","hex":"483045022002171463893f7b3fe05c3b706cc2f445ce80709a21cd32fdd855513c42f350e8022100e5cf8e485c55d37b4c35707ddcd72abef2104f2327445983d40118ebef772b050141048f870c8fe21fd9fd423cfc71fbd338bed3b43825193bacd6a42220b3a92d45fdf501a99aa3b82b6b69cfc981aee1d31cb5686237412e2c635e5bfbe3dca689d9"}}],"vout":[{"value":35.75,"n":0,"scriptPubKey":{"asm":"OP_DUP OP_HASH160 de8bf4e18dc5b84a4e97ddc8718997203c1807d9 OP_EQUALVERIFY OP_CHECKSIG","hex":"76a914de8bf4e18dc5b84a4e97ddc8718997203c1807d988ac","reqSigs":1,"type":"pubkeyhash","addresses":["1MHifwU5ovizHAQce4cqMVdQhqYU6qcxJJ"]}},{"value":5.07,"n":1,"scriptPubKey":{"asm":"OP_DUP OP_HASH160 112c1b231506d3ea04320521c83319a051e27f31 OP_EQUALVERIFY OP_CHECKSIG","hex":"76a914112c1b231506d3ea04320521c83319a051e27f3188ac","reqSigs":1,"type":"pubkeyhash","addresses":["12ZoKoQDS2AuatnM4FzC4cAiRXKS7PZDwr"]}}],"hex":"0100000001fdc80d6782564fd19ed957f1ddcde527a4f85575051fafa803c514e5925a05af010000008b483045022002171463893f7b3fe05c3b706cc2f445ce80709a21cd32fdd855513c42f350e8022100e5cf8e485c55d37b4c35707ddcd72abef2104f2327445983d40118ebef772b050141048f870c8fe21fd9fd423cfc71fbd338bed3b43825193bacd6a42220b3a92d45fdf501a99aa3b82b6b69cfc981aee1d31cb5686237412e2c635e5bfbe3dca689d9ffffffff02c02b16d5000000001976a914de8bf4e18dc5b84a4e97ddc8718997203c1807d988acc034381e000000001976a914112c1b231506d3ea04320521c83319a051e27f3188ac00000000"}