{"txid":"0abaf340970a80b74bd97091169be08db986f8da9f180cbfc7d53e390da119a3","hash":"0abaf340970a80b74bd97091169be08db986f8da9f180cbfc7d53e390da119a3","version":1,"size":257,"vsize":257,"locktime":0,"vin":[{"sequence":4294967295,"txid":"4cfee6b28bd4bd011db5ac41e0f3318011fcca42ab35d07fd5d5402a0c5648f5","vout":0,"scriptSig":{"asm":"3044022039ccdd9b883d1ae40bb1b88b1d3ece19d357a0fcd56b7678d9ed16443ac5b0d00220573ddb4fd512d53eb4cacb3ffe1a95b551f5b04cfc4ed3ba22167164db45de33[ALL] 04fd7adcb1af6db198e885cf3e6953d206ba8eaea4d8de273d8bfdb6145934eaecfc53340e7e219f4d22e85baeacd6caaa6878ce74b532703907f7608956d274ee","hex":"473044022039ccdd9b883d1ae40bb1b88b1d3ece19d357a0fcd56b7678d9ed16443ac5b0d00220573ddb4fd512d53eb4cacb3ffe1a95b551f5b04cfc4ed3ba22167164db45de33014104fd7adcb1af6db198e885cf3e6953d206ba8eaea4d8de273d8bfdb6145934eaecfc53340e7e219f4d22e85baeacd6caaa6878ce74b532703907f7608956d274ee"}}],"vout":[{"value":5.56,"n":0,"scriptPubKey":{"asm":"OP_DUP OP_HASH160 122412ec69bc4823ba1c72604cadc95053f2afb1 OP_EQUALVERIFY OP_CHECKSIG","hex":"76a914122412ec69bc4823ba1c72604cadc95053f2afb188ac","reqSigs":1,"type":"pubkeyhash","addresses":["12evNuwoPESrW8jucn84Xp1faUanr7iVxF"]}},{"value":0.05,"n":1,"scriptPubKey":{"asm":"OP_DUP OP_HASH160 b60cb73b3d3d627191dce6224638b735ad1263e5 OP_EQUALVERIFY OP_CHECKSIG","hex":"76a914b60cb73b3d3d627191dce6224638b735ad1263e588ac","reqSigs":1,"type":"pubkeyhash","addresses":["1HbbDRHkhH2gqwR3Ej4xrCcL8T88JcaaR3"]}}],"hex":"0100000001f548560c2a40d5d57fd035ab42cafc118031f3e041acb51d01bdd48bb2e6fe4c000000008a473044022039ccdd9b883d1ae40bb1b88b1d3ece19d357a0fcd56b7678d9ed16443ac5b0d00220573ddb4fd512d53eb4cacb3ffe1a95b551f5b04cfc4ed3ba22167164db45de33014104fd7adcb1af6db198e885cf3e6953d206ba8eaea4d8de273d8bfdb6145934eaecfc53340e7e219f4d22e85baeacd6caaa6878ce74b532703907f7608956d274eeffffffff0200e32321000000001976a914122412ec69bc4823ba1c72604cadc95053f2afb188ac404b4c00000000001976a914b60cb73b3d3d627191dce6224638b735ad1263e588ac00000000"}