{"txid":"0cb03a80ee009b8673306997fe9001f764d9176c5523bd65d867d9fb5651535c","hash":"0cb03a80ee009b8673306997fe9001f764d9176c5523bd65d867d9fb5651535c","version":1,"size":258,"vsize":258,"locktime":0,"vin":[{"sequence":4294967295,"txid":"52efedbf44e6fd191722d47539378b36205d0707390293d7497c556c69d59381","vout":0,"scriptSig":{"asm":"3045022100bc523bc75ddc78e5319c5fc385f0e582432f6063554f9c352bf683e560488d2e022067ec51e021b4257e5feaedf87893c9137a6acac55205fdfce7ec24e9d653add6[ALL] 049e40dece3ef2fdef23c3cafa4c9e7e8889770a21a9db510465b6cdee7cc63d1c0eded537f9569ec89695dc63fc07051094639c13f07c8b6f8dd9d39c48c13c42","hex":"483045022100bc523bc75ddc78e5319c5fc385f0e582432f6063554f9c352bf683e560488d2e022067ec51e021b4257e5feaedf87893c9137a6acac55205fdfce7ec24e9d653add60141049e40dece3ef2fdef23c3cafa4c9e7e8889770a21a9db510465b6cdee7cc63d1c0eded537f9569ec89695dc63fc07051094639c13f07c8b6f8dd9d39c48c13c42"}}],"vout":[{"value":26.51,"n":0,"scriptPubKey":{"asm":"OP_DUP OP_HASH160 b00fb2a72e0653af3c1c783ce6f2ff06684d3e39 OP_EQUALVERIFY OP_CHECKSIG","hex":"76a914b00fb2a72e0653af3c1c783ce6f2ff06684d3e3988ac","reqSigs":1,"type":"pubkeyhash","addresses":["1H3vjUC94srQ3NLFy4FKyDDsFWdZam4ov5"]}},{"value":5.18,"n":1,"scriptPubKey":{"asm":"OP_DUP OP_HASH160 f56ffd071612ec48b37afca18f13fb2ae30580d0 OP_EQUALVERIFY OP_CHECKSIG","hex":"76a914f56ffd071612ec48b37afca18f13fb2ae30580d088ac","reqSigs":1,"type":"pubkeyhash","addresses":["1PNki67ZmFr9YBTvFJp6x7o4R6TB4KZdWi"]}}],"hex":"01000000018193d5696c557c49d793023907075d20368b373975d4221719fde644bfedef52000000008b483045022100bc523bc75ddc78e5319c5fc385f0e582432f6063554f9c352bf683e560488d2e022067ec51e021b4257e5feaedf87893c9137a6acac55205fdfce7ec24e9d653add60141049e40dece3ef2fdef23c3cafa4c9e7e8889770a21a9db510465b6cdee7cc63d1c0eded537f9569ec89695dc63fc07051094639c13f07c8b6f8dd9d39c48c13c42ffffffff02c00c039e000000001976a914b00fb2a72e0653af3c1c783ce6f2ff06684d3e3988ac800de01e000000001976a914f56ffd071612ec48b37afca18f13fb2ae30580d088ac00000000"}