{
    "txid": "9056cc7c2181dbd1d2ec6bd92b3d7628f1811b898b009895edfd587e6c5c0cb3",
    "hash": "9056cc7c2181dbd1d2ec6bd92b3d7628f1811b898b009895edfd587e6c5c0cb3",
    "version": 1,
    "size": 2384,
    "vsize": 2384,
    "locktime": 0,
    "vin": [
      {
        "txid": "9e4e5c592e70f9eb151f0ee1685f6fd799a877a9cfb47a60a9c914d00bb60c5b",
        "vout": 0,
        "scriptSig": {
          "asm": "304502201b2ee30d1e4a975545dfb984ec2e32128ecbf514131b1856f1d1979e588158710221008cd663af4a6678b847091e7261f7dcdf4c25b08c706ff48ecb3979e8aa396160[ALL] 04e3790d99b4a935aa1ea719927cbfbabe08ab1149fd86e09aff0e2891c524ae4785b8f45d32fc69d9a36b4fc148e588093335434a8157b29e145be2758c9b3679",
          "hex": "48304502201b2ee30d1e4a975545dfb984ec2e32128ecbf514131b1856f1d1979e588158710221008cd663af4a6678b847091e7261f7dcdf4c25b08c706ff48ecb3979e8aa396160014104e3790d99b4a935aa1ea719927cbfbabe08ab1149fd86e09aff0e2891c524ae4785b8f45d32fc69d9a36b4fc148e588093335434a8157b29e145be2758c9b3679"
        },
        "sequence": 4294967295
      },
      {
        "txid": "9e4e5c592e70f9eb151f0ee1685f6fd799a877a9cfb47a60a9c914d00bb60c5b",
        "vout": 1,
        "scriptSig": {
          "asm": "304402200566e8079bbbe03ab6c9d01723ef451e9c993d07e1ea39d7bbd5cd9bb02bf2df02202ae58327571074f7860e5564c3799c225baa09e85a930e2565e61b0ca5b0c735[ALL] 046416bd9aab66841d31075832f49d45c0bb47872055c5a51c9f1b1c54d210c45e1593a31889f4413bb0f8aac719d7ad8f7cdd529e3c4a728587e1d14e9e44a223",
          "hex": "47304402200566e8079bbbe03ab6c9d01723ef451e9c993d07e1ea39d7bbd5cd9bb02bf2df02202ae58327571074f7860e5564c3799c225baa09e85a930e2565e61b0ca5b0c7350141046416bd9aab66841d31075832f49d45c0bb47872055c5a51c9f1b1c54d210c45e1593a31889f4413bb0f8aac719d7ad8f7cdd529e3c4a728587e1d14e9e44a223"
        },
        "sequence": 4294967295
      },
      {
        "txid": "7afdc1725d98288687ee0caa945f7c25a46afa9e69d36139d1778e5b7283ebe2",
        "vout": 1,
        "scriptSig": {
          "asm": "3045022100e5d85b8ebcc5e0fa40445868f4416fca3d73ebf414a68bc37f6655a311d415a802205f841a81e13d5284bcf1d44acb3f483b1eb721b354df68c20a837c1df4a0bd46[ALL] 04b9d924998d321f3dc9edd90d168561b4c30614a389af8c5e2977b36a79fe473829fe8de3df003e515e9bbf10194f1e0719273f1f4e4757fbc18feffe6667c2ae",
          "hex": "483045022100e5d85b8ebcc5e0fa40445868f4416fca3d73ebf414a68bc37f6655a311d415a802205f841a81e13d5284bcf1d44acb3f483b1eb721b354df68c20a837c1df4a0bd46014104b9d924998d321f3dc9edd90d168561b4c30614a389af8c5e2977b36a79fe473829fe8de3df003e515e9bbf10194f1e0719273f1f4e4757fbc18feffe6667c2ae"
        },
        "sequence": 4294967295
      },
      {
        "txid": "3248615c1afdd9bacb269271293f844416d6fc1b340a4cd7daf1f844bd64e79a",
        "vout": 0,
        "scriptSig": {
          "asm": "3044022079af4d6ba6c38451f2edf8271a58f259d9a4dda08e1a9de83bc39a7571d82cd1022078a7c3cd15866eb8a2347ed023b98592947930bea70a45278b11237b4b8f41cd[ALL] 04668d2db5df11759ba29503aee0d41e2958fc6cf8641dfc0ad95d76ba93615bd6e3e4221afc56a6e4eb0c3cd8f44424bdd4f3d36c9e6db5e0c2d5c8d010c16d14",
          "hex": "473044022079af4d6ba6c38451f2edf8271a58f259d9a4dda08e1a9de83bc39a7571d82cd1022078a7c3cd15866eb8a2347ed023b98592947930bea70a45278b11237b4b8f41cd014104668d2db5df11759ba29503aee0d41e2958fc6cf8641dfc0ad95d76ba93615bd6e3e4221afc56a6e4eb0c3cd8f44424bdd4f3d36c9e6db5e0c2d5c8d010c16d14"
        },
        "sequence": 4294967295
      },
      {
        "txid": "2bc090a472dc0ffb6b4b0e204d160809f006dc9035cfb34ef1d384b776651735",
        "vout": 1,
        "scriptSig": {
          "asm": "304502201f29631f89e67a6d376e5046e95695c494ba493604db8159f0c8608b755619fc0221008635a42bbcbe9c2c53f597318ef1ab101361d82343048f8aa2aa488ae5cf572f[ALL] 04f74d692c14b2afe5e619e4951ee8ebdbcc22580613dc3c6890eb198a5bd7bbe94a7f8a467d84dd4d2a26d0f00fe34c7c1614e285b74e55bbfb0642b9480ad663",
          "hex": "48304502201f29631f89e67a6d376e5046e95695c494ba493604db8159f0c8608b755619fc0221008635a42bbcbe9c2c53f597318ef1ab101361d82343048f8aa2aa488ae5cf572f014104f74d692c14b2afe5e619e4951ee8ebdbcc22580613dc3c6890eb198a5bd7bbe94a7f8a467d84dd4d2a26d0f00fe34c7c1614e285b74e55bbfb0642b9480ad663"
        },
        "sequence": 4294967295
      },
      {
        "txid": "2f6cc783b47f83353d8d167e9f34a5106d84de5fac48388de5e350d166d9d741",
        "vout": 1,
        "scriptSig": {
          "asm": "30450221009ea7438a7d97add16b0d8368a300fea354ced33b595d8d094603b09204b6b2fc022049be467596b71e6a0e765a8c6fd09408d1c7a151020f55f3605917beb37f4892[ALL] 0484bd8f05dc51775fdd1fe4bfacd4ce41527665564ea7c42dbc06d9ac38b748382767a196f1a4044e081a09b03c3bf41bbac4e12d29941a11db55d30f7a319a23",
          "hex": "4830450221009ea7438a7d97add16b0d8368a300fea354ced33b595d8d094603b09204b6b2fc022049be467596b71e6a0e765a8c6fd09408d1c7a151020f55f3605917beb37f489201410484bd8f05dc51775fdd1fe4bfacd4ce41527665564ea7c42dbc06d9ac38b748382767a196f1a4044e081a09b03c3bf41bbac4e12d29941a11db55d30f7a319a23"
        },
        "sequence": 4294967295
      },
      {
        "txid": "05139a14221c58aa855547e40112ceaa96f1c2860fe3a658dcf30414ee840547",
        "vout": 0,
        "scriptSig": {
          "asm": "3046022100bf678da59a0121b34961134890ac5b2358130b4eac5c771beb69d419d61ac5950221009aca811a7d2e9274d5d08d79aaaa0ad3ac0a54723d58d6338f10c6fa7aa64179[ALL] 044b92858960e447f4aa14d4be72f93cf635cd03def71974b844b50eb6dfc6b2b137a89f8f9359bda2f9eba275cd71b07a9abe45337c7e3f645d4a3c217dd22215",
          "hex": "493046022100bf678da59a0121b34961134890ac5b2358130b4eac5c771beb69d419d61ac5950221009aca811a7d2e9274d5d08d79aaaa0ad3ac0a54723d58d6338f10c6fa7aa641790141044b92858960e447f4aa14d4be72f93cf635cd03def71974b844b50eb6dfc6b2b137a89f8f9359bda2f9eba275cd71b07a9abe45337c7e3f645d4a3c217dd22215"
        },
        "sequence": 4294967295
      },
      {
        "txid": "27f75815be95864436579aef549242f546b75d0b3485c5fafcc7fd9773138a5a",
        "vout": 0,
        "scriptSig": {
          "asm": "3045022055b3798030cb3646756b51c5f80030909e692f634cf8da4c61e367841309301d022100c9cf8d5e015ed8342beb6c4bda24f833ebfba8eb7a05879fcbbbe8e6546e6e7f[ALL] 04a6fbf8af83bf43d10ad3363c1f6e77bc982c7cc15b0639c558d9cc65919765cb568704ff551c14104c70ccb17b5dd0b1f37e1082c2d2ca1d20531984ac257dc7",
          "hex": "483045022055b3798030cb3646756b51c5f80030909e692f634cf8da4c61e367841309301d022100c9cf8d5e015ed8342beb6c4bda24f833ebfba8eb7a05879fcbbbe8e6546e6e7f014104a6fbf8af83bf43d10ad3363c1f6e77bc982c7cc15b0639c558d9cc65919765cb568704ff551c14104c70ccb17b5dd0b1f37e1082c2d2ca1d20531984ac257dc7"
        },
        "sequence": 4294967295
      },
      {
        "txid": "76b950d14722e8e9d4342fca397c5a3957586dab851d3ba3e1cd75b0e39f28ef",
        "vout": 0,
        "scriptSig": {
          "asm": "3046022100d92d8bd6ea9f8bcff3ff90865760eee09b1364f87af5e2b9ce9992ce35a57d92022100b8e3e6c1320566b3f945179e139475f3af8b0a8383d3161ed41f343960a4d94e[ALL] 04615e460ca11ebb7104fbb2577b66425e04827bd934b285bd1591b79d219e51669efe715975792beff4c63084014da19d24df487ad2548fa1d2f3771c03894d5f",
          "hex": "493046022100d92d8bd6ea9f8bcff3ff90865760eee09b1364f87af5e2b9ce9992ce35a57d92022100b8e3e6c1320566b3f945179e139475f3af8b0a8383d3161ed41f343960a4d94e014104615e460ca11ebb7104fbb2577b66425e04827bd934b285bd1591b79d219e51669efe715975792beff4c63084014da19d24df487ad2548fa1d2f3771c03894d5f"
        },
        "sequence": 4294967295
      },
      {
        "txid": "6e6d2ab475be7eb8fe3d722985904a7f35ae7c379657da624afe18f4cf35c553",
        "vout": 0,
        "scriptSig": {
          "asm": "3045022077ae76cb25f02705781572ed4b582664d97d94e0b8815528b77ffca8735eb410022100e96ee2ceb92c5c7be550d97336631062472ac0429522b9208d05aed961410a4d[ALL] 04d9844e5666b8afee4e54cd4d3e5ea9b3083729f645f290d60ee423dc2400f0764981e9ba6cd1f1a41e678c69e00f4247b731f0101279b0248a96ada50e013fe7",
          "hex": "483045022077ae76cb25f02705781572ed4b582664d97d94e0b8815528b77ffca8735eb410022100e96ee2ceb92c5c7be550d97336631062472ac0429522b9208d05aed961410a4d014104d9844e5666b8afee4e54cd4d3e5ea9b3083729f645f290d60ee423dc2400f0764981e9ba6cd1f1a41e678c69e00f4247b731f0101279b0248a96ada50e013fe7"
        },
        "sequence": 4294967295
      },
      {
        "txid": "6e6d2ab475be7eb8fe3d722985904a7f35ae7c379657da624afe18f4cf35c553",
        "vout": 1,
        "scriptSig": {
          "asm": "304502204cb9f1c33dd11716da6ad9092a236ad8d0c3c94cc00903be2068c2af8c251581022100b2007542832cc455e2f4e831a46fa4dbae0e806f1c7b3b8215e4aac90a5a089c[ALL] 0443719b8815e17e54cd09670f591b774d8cb49ac2eff13dd87f767c0779b519d32fbc9b5da6806c247baa0abec86928657d2493dead87a5d8c8a03d8a086f2a00",
          "hex": "48304502204cb9f1c33dd11716da6ad9092a236ad8d0c3c94cc00903be2068c2af8c251581022100b2007542832cc455e2f4e831a46fa4dbae0e806f1c7b3b8215e4aac90a5a089c01410443719b8815e17e54cd09670f591b774d8cb49ac2eff13dd87f767c0779b519d32fbc9b5da6806c247baa0abec86928657d2493dead87a5d8c8a03d8a086f2a00"
        },
        "sequence": 4294967295
      },
      {
        "txid": "f7d5b3359e099c700aed65fb7207442285940c1ba56ec1ef7650a028d191b0a6",
        "vout": 0,
        "scriptSig": {
          "asm": "304502200652896b227c7292837f62ecfc88ce5a0459c5ecb36c389b1c141f0a2e1a1a2c022100d74246eb9fec9d9d0f4b850ace0b8b69895ce9d9bcf42a6d8c620ffd35ff0eeb[ALL] 0491696dcf9539b7eba5a031bbef58df16850ffe0053089131863c1cc9ec50aec1b68f830d73aaec54c53040c081d9c5137ae7a445945466b39423b7b659d07a65",
          "hex": "48304502200652896b227c7292837f62ecfc88ce5a0459c5ecb36c389b1c141f0a2e1a1a2c022100d74246eb9fec9d9d0f4b850ace0b8b69895ce9d9bcf42a6d8c620ffd35ff0eeb01410491696dcf9539b7eba5a031bbef58df16850ffe0053089131863c1cc9ec50aec1b68f830d73aaec54c53040c081d9c5137ae7a445945466b39423b7b659d07a65"
        },
        "sequence": 4294967295
      },
      {
        "txid": "086ab667447a537b3995a746c0f3be5fa4897bb2c76888e4ee28806f10a57317",
        "vout": 0,
        "scriptSig": {
          "asm": "3045022100b4160041c7ab6d1b1eab586f95c13f2075958f012ab105aae6ac53f086cce44a022032b30299d8dbc0c06308860e1f3c08c3e110899f0b83e6b4dc80eb4aaddc2550[ALL] 04088ad8408210ca205697f2d0fdaaf98eaf10a54a2ab653e04dd4a7640ca940481a1599e0f3946467d6c360d1bc57ec9b9eb221f829849bc793bb9b82ef1200cc",
          "hex": "483045022100b4160041c7ab6d1b1eab586f95c13f2075958f012ab105aae6ac53f086cce44a022032b30299d8dbc0c06308860e1f3c08c3e110899f0b83e6b4dc80eb4aaddc2550014104088ad8408210ca205697f2d0fdaaf98eaf10a54a2ab653e04dd4a7640ca940481a1599e0f3946467d6c360d1bc57ec9b9eb221f829849bc793bb9b82ef1200cc"
        },
        "sequence": 4294967295
      }
    ],
    "vout": [
      {
        "value": 38000.00000000,
        "n": 0,
        "scriptPubKey": {
          "asm": "OP_DUP OP_HASH160 4d87f4ad9e913fae72226ea2c980cbb3f6302de7 OP_EQUALVERIFY OP_CHECKSIG",
          "hex": "76a9144d87f4ad9e913fae72226ea2c980cbb3f6302de788ac",
          "reqSigs": 1,
          "type": "pubkeyhash",
          "addresses": [
            "184wu9LYeh8q73i9CHWNA8GR5CDZUMQeSw"
          ]
        }
      }
    ],
    "hex": "010000000d5b0cb60bd014c9a9607ab4cfa977a899d76f5f68e10e1f15ebf9702e595c4e9e000000008b48304502201b2ee30d1e4a975545dfb984ec2e32128ecbf514131b1856f1d1979e588158710221008cd663af4a6678b847091e7261f7dcdf4c25b08c706ff48ecb3979e8aa396160014104e3790d99b4a935aa1ea719927cbfbabe08ab1149fd86e09aff0e2891c524ae4785b8f45d32fc69d9a36b4fc148e588093335434a8157b29e145be2758c9b3679ffffffff5b0cb60bd014c9a9607ab4cfa977a899d76f5f68e10e1f15ebf9702e595c4e9e010000008a47304402200566e8079bbbe03ab6c9d01723ef451e9c993d07e1ea39d7bbd5cd9bb02bf2df02202ae58327571074f7860e5564c3799c225baa09e85a930e2565e61b0ca5b0c7350141046416bd9aab66841d31075832f49d45c0bb47872055c5a51c9f1b1c54d210c45e1593a31889f4413bb0f8aac719d7ad8f7cdd529e3c4a728587e1d14e9e44a223ffffffffe2eb83725b8e77d13961d3699efa6aa4257c5f94aa0cee878628985d72c1fd7a010000008b483045022100e5d85b8ebcc5e0fa40445868f4416fca3d73ebf414a68bc37f6655a311d415a802205f841a81e13d5284bcf1d44acb3f483b1eb721b354df68c20a837c1df4a0bd46014104b9d924998d321f3dc9edd90d168561b4c30614a389af8c5e2977b36a79fe473829fe8de3df003e515e9bbf10194f1e0719273f1f4e4757fbc18feffe6667c2aeffffffff9ae764bd44f8f1dad74c0a341bfcd61644843f29719226cbbad9fd1a5c614832000000008a473044022079af4d6ba6c38451f2edf8271a58f259d9a4dda08e1a9de83bc39a7571d82cd1022078a7c3cd15866eb8a2347ed023b98592947930bea70a45278b11237b4b8f41cd014104668d2db5df11759ba29503aee0d41e2958fc6cf8641dfc0ad95d76ba93615bd6e3e4221afc56a6e4eb0c3cd8f44424bdd4f3d36c9e6db5e0c2d5c8d010c16d14ffffffff35176576b784d3f14eb3cf3590dc06f00908164d200e4b6bfb0fdc72a490c02b010000008b48304502201f29631f89e67a6d376e5046e95695c494ba493604db8159f0c8608b755619fc0221008635a42bbcbe9c2c53f597318ef1ab101361d82343048f8aa2aa488ae5cf572f014104f74d692c14b2afe5e619e4951ee8ebdbcc22580613dc3c6890eb198a5bd7bbe94a7f8a467d84dd4d2a26d0f00fe34c7c1614e285b74e55bbfb0642b9480ad663ffffffff41d7d966d150e3e58d3848ac5fde846d10a5349f7e168d3d35837fb483c76c2f010000008b4830450221009ea7438a7d97add16b0d8368a300fea354ced33b595d8d094603b09204b6b2fc022049be467596b71e6a0e765a8c6fd09408d1c7a151020f55f3605917beb37f489201410484bd8f05dc51775fdd1fe4bfacd4ce41527665564ea7c42dbc06d9ac38b748382767a196f1a4044e081a09b03c3bf41bbac4e12d29941a11db55d30f7a319a23ffffffff470584ee1404f3dc58a6e30f86c2f196aace1201e4475585aa581c22149a1305000000008c493046022100bf678da59a0121b34961134890ac5b2358130b4eac5c771beb69d419d61ac5950221009aca811a7d2e9274d5d08d79aaaa0ad3ac0a54723d58d6338f10c6fa7aa641790141044b92858960e447f4aa14d4be72f93cf635cd03def71974b844b50eb6dfc6b2b137a89f8f9359bda2f9eba275cd71b07a9abe45337c7e3f645d4a3c217dd22215ffffffff5a8a137397fdc7fcfac585340b5db746f5429254ef9a5736448695be1558f727000000008b483045022055b3798030cb3646756b51c5f80030909e692f634cf8da4c61e367841309301d022100c9cf8d5e015ed8342beb6c4bda24f833ebfba8eb7a05879fcbbbe8e6546e6e7f014104a6fbf8af83bf43d10ad3363c1f6e77bc982c7cc15b0639c558d9cc65919765cb568704ff551c14104c70ccb17b5dd0b1f37e1082c2d2ca1d20531984ac257dc7ffffffffef289fe3b075cde1a33b1d85ab6d5857395a7c39ca2f34d4e9e82247d150b976000000008c493046022100d92d8bd6ea9f8bcff3ff90865760eee09b1364f87af5e2b9ce9992ce35a57d92022100b8e3e6c1320566b3f945179e139475f3af8b0a8383d3161ed41f343960a4d94e014104615e460ca11ebb7104fbb2577b66425e04827bd934b285bd1591b79d219e51669efe715975792beff4c63084014da19d24df487ad2548fa1d2f3771c03894d5fffffffff53c535cff418fe4a62da5796377cae357f4a908529723dfeb87ebe75b42a6d6e000000008b483045022077ae76cb25f02705781572ed4b582664d97d94e0b8815528b77ffca8735eb410022100e96ee2ceb92c5c7be550d97336631062472ac0429522b9208d05aed961410a4d014104d9844e5666b8afee4e54cd4d3e5ea9b3083729f645f290d60ee423dc2400f0764981e9ba6cd1f1a41e678c69e00f4247b731f0101279b0248a96ada50e013fe7ffffffff53c535cff418fe4a62da5796377cae357f4a908529723dfeb87ebe75b42a6d6e010000008b48304502204cb9f1c33dd11716da6ad9092a236ad8d0c3c94cc00903be2068c2af8c251581022100b2007542832cc455e2f4e831a46fa4dbae0e806f1c7b3b8215e4aac90a5a089c01410443719b8815e17e54cd09670f591b774d8cb49ac2eff13dd87f767c0779b519d32fbc9b5da6806c247baa0abec86928657d2493dead87a5d8c8a03d8a086f2a00ffffffffa6b091d128a05076efc16ea51b0c948522440772fb65ed0a709c099e35b3d5f7000000008b48304502200652896b227c7292837f62ecfc88ce5a0459c5ecb36c389b1c141f0a2e1a1a2c022100d74246eb9fec9d9d0f4b850ace0b8b69895ce9d9bcf42a6d8c620ffd35ff0eeb01410491696dcf9539b7eba5a031bbef58df16850ffe0053089131863c1cc9ec50aec1b68f830d73aaec54c53040c081d9c5137ae7a445945466b39423b7b659d07a65ffffffff1773a5106f8028eee48868c7b27b89a45fbef3c046a795397b537a4467b66a08000000008b483045022100b4160041c7ab6d1b1eab586f95c13f2075958f012ab105aae6ac53f086cce44a022032b30299d8dbc0c06308860e1f3c08c3e110899f0b83e6b4dc80eb4aaddc2550014104088ad8408210ca205697f2d0fdaaf98eaf10a54a2ab653e04dd4a7640ca940481a1599e0f3946467d6c360d1bc57ec9b9eb221f829849bc793bb9b82ef1200ccffffffff010070a6c1740300001976a9144d87f4ad9e913fae72226ea2c980cbb3f6302de788ac00000000"
}
