{"txid":"23d2074bf3ab80f7cb924d1fc495d0458dfe177c222b6d2d27acf69092670488","hash":"23d2074bf3ab80f7cb924d1fc495d0458dfe177c222b6d2d27acf69092670488","version":1,"size":258,"vsize":258,"locktime":0,"vin":[{"sequence":4294967295,"txid":"59146a12128ed103ea6f428597565c0014d724c165702440202df74a5d416302","vout":1,"scriptSig":{"asm":"3045022100fdf63bff486621273f1ddc9a46bd2870fd6e4618e616dded1cdb40eaaea17ef1022044137039e41fcf4d24866223cb824f2d25b16ad034352cbf742ca40eb4069a7d[ALL] 0473e04499ee1e6cc4815cbe93b8914c44e3082d6148eac10d74fbb51149d96f89d6ece872edb6c146b456252bfae4591ebaf54132c14c47be37692e1ee2d5d799","hex":"483045022100fdf63bff486621273f1ddc9a46bd2870fd6e4618e616dded1cdb40eaaea17ef1022044137039e41fcf4d24866223cb824f2d25b16ad034352cbf742ca40eb4069a7d01410473e04499ee1e6cc4815cbe93b8914c44e3082d6148eac10d74fbb51149d96f89d6ece872edb6c146b456252bfae4591ebaf54132c14c47be37692e1ee2d5d799"}}],"vout":[{"value":0.49,"n":0,"scriptPubKey":{"asm":"OP_DUP OP_HASH160 2e27a90334f74b9836074f8911a9a9a93fcdb596 OP_EQUALVERIFY OP_CHECKSIG","hex":"76a9142e27a90334f74b9836074f8911a9a9a93fcdb59688ac","reqSigs":1,"type":"pubkeyhash","addresses":["15D3bTtS71mvxdrnKysxF1X4x6baWirTcZ"]}},{"value":5.04,"n":1,"scriptPubKey":{"asm":"OP_DUP OP_HASH160 1d8a220764c03e82813a5e765a7c191d294d6316 OP_EQUALVERIFY OP_CHECKSIG","hex":"76a9141d8a220764c03e82813a5e765a7c191d294d631688ac","reqSigs":1,"type":"pubkeyhash","addresses":["13hC5D1KTqBUXT4SVTh9jJJHTU7Ap36JNe"]}}],"hex":"01000000010263415d4af72d2040247065c124d714005c569785426fea03d18e12126a1459010000008b483045022100fdf63bff486621273f1ddc9a46bd2870fd6e4618e616dded1cdb40eaaea17ef1022044137039e41fcf4d24866223cb824f2d25b16ad034352cbf742ca40eb4069a7d01410473e04499ee1e6cc4815cbe93b8914c44e3082d6148eac10d74fbb51149d96f89d6ece872edb6c146b456252bfae4591ebaf54132c14c47be37692e1ee2d5d799ffffffff0240aeeb02000000001976a9142e27a90334f74b9836074f8911a9a9a93fcdb59688ac006e0a1e000000001976a9141d8a220764c03e82813a5e765a7c191d294d631688ac00000000"}