{
  "txid": "27f75815be95864436579aef549242f546b75d0b3485c5fafcc7fd9773138a5a",
  "hash": "27f75815be95864436579aef549242f546b75d0b3485c5fafcc7fd9773138a5a",
  "version": 1,
  "size": 584,
  "vsize": 584,
  "locktime": 0,
  "vin": [
    {
      "sequence": 4294967295,
      "txid": "c0200985decaad2404d356925abfa19be81a0f64d1851492c439ed140ac48756",
      "vout": 0,
      "scriptSig": {
        "asm": "30450221008d224e2778dccc525d307e3eaea3ab44ee2bae7c54796af29e6873165988268a022008b6e88b983fb6deb9dc4c85af28ab92be2fc424e0e8039b521cbb1082afbc13[ALL] 04b1790448ff9d2b241cf64691285b3a8b43f6a0940c4bfdad610424b980150e0b05836677116105906ef6eac222726f022b3973eaa28c375fe201161a3277077b",
        "hex": "4830450221008d224e2778dccc525d307e3eaea3ab44ee2bae7c54796af29e6873165988268a022008b6e88b983fb6deb9dc4c85af28ab92be2fc424e0e8039b521cbb1082afbc13014104b1790448ff9d2b241cf64691285b3a8b43f6a0940c4bfdad610424b980150e0b05836677116105906ef6eac222726f022b3973eaa28c375fe201161a3277077b"
      }
    },
    {
      "sequence": 4294967295,
      "txid": "e35ce7e31e9c4d19ecd20748a54090af11d7a34496f9868d6a35816acadbb57b",
      "vout": 1,
      "scriptSig": {
        "asm": "304502210091b8630ebb4cee996c7cd1ce9300e659987691fa72c76d13e798e243e177749902202b2e2b3268d60451760f41405e28d747de7f3b17a175518c9bceef0490163313[ALL] 045a8bf046a656826edfca0da455375271ea7f0fc43a4c872cc39142d77011dee37ef195a0a7bf2dce94537058ccdef6a6e8d93ed2e2f58d9adaafa721e179e617",
        "hex": "48304502210091b8630ebb4cee996c7cd1ce9300e659987691fa72c76d13e798e243e177749902202b2e2b3268d60451760f41405e28d747de7f3b17a175518c9bceef04901633130141045a8bf046a656826edfca0da455375271ea7f0fc43a4c872cc39142d77011dee37ef195a0a7bf2dce94537058ccdef6a6e8d93ed2e2f58d9adaafa721e179e617"
      }
    },
    {
      "sequence": 4294967295,
      "txid": "65d6356e53a4f9d0e31add1e80c9cbfc47b14438a53027731a58cbb5e30c1123",
      "vout": 1,
      "scriptSig": {
        "asm": "304502203f9a0c97d2bdf321ef49faf1a599c9f75c4589608021f4de946acc25bb8638ce022100a74e9bc15c5169525244fd265aa2c141d06f23f7cd1ecb6096e6fc5da46b4aad[ALL] 045957f20540ddec3f8738872a998ee38513a910b085ea9838198bc33dba794ab85241bf32f122e9e3f6b79a21def16422a458e74befa72c19587c78eb6b6b38b8",
        "hex": "48304502203f9a0c97d2bdf321ef49faf1a599c9f75c4589608021f4de946acc25bb8638ce022100a74e9bc15c5169525244fd265aa2c141d06f23f7cd1ecb6096e6fc5da46b4aad0141045957f20540ddec3f8738872a998ee38513a910b085ea9838198bc33dba794ab85241bf32f122e9e3f6b79a21def16422a458e74befa72c19587c78eb6b6b38b8"
      }
    }
  ],
  "vout": [
    {
      "value": 3000.0,
      "n": 0,
      "scriptPubKey": {
        "asm": "OP_DUP OP_HASH160 3f85af590d92217c03c8b4fdc2562ed49496e8ad OP_EQUALVERIFY OP_CHECKSIG",
        "hex": "76a9143f85af590d92217c03c8b4fdc2562ed49496e8ad88ac",
        "reqSigs": 1,
        "type": "pubkeyhash",
        "addresses": [
          "16nsigN2BsWptSNjcrUjLNbyRuW7ABYihM"
        ]
      }
    }
  ],
  "hex": "01000000035687c40a14ed39c4921485d1640f1ae89ba1bf5a9256d30424adcade850920c0000000008b4830450221008d224e2778dccc525d307e3eaea3ab44ee2bae7c54796af29e6873165988268a022008b6e88b983fb6deb9dc4c85af28ab92be2fc424e0e8039b521cbb1082afbc13014104b1790448ff9d2b241cf64691285b3a8b43f6a0940c4bfdad610424b980150e0b05836677116105906ef6eac222726f022b3973eaa28c375fe201161a3277077bffffffff7bb5dbca6a81356a8d86f99644a3d711af9040a54807d2ec194d9c1ee3e75ce3010000008b48304502210091b8630ebb4cee996c7cd1ce9300e659987691fa72c76d13e798e243e177749902202b2e2b3268d60451760f41405e28d747de7f3b17a175518c9bceef04901633130141045a8bf046a656826edfca0da455375271ea7f0fc43a4c872cc39142d77011dee37ef195a0a7bf2dce94537058ccdef6a6e8d93ed2e2f58d9adaafa721e179e617ffffffff23110ce3b5cb581a732730a53844b147fccbc9801edd1ae3d0f9a4536e35d665010000008b48304502203f9a0c97d2bdf321ef49faf1a599c9f75c4589608021f4de946acc25bb8638ce022100a74e9bc15c5169525244fd265aa2c141d06f23f7cd1ecb6096e6fc5da46b4aad0141045957f20540ddec3f8738872a998ee38513a910b085ea9838198bc33dba794ab85241bf32f122e9e3f6b79a21def16422a458e74befa72c19587c78eb6b6b38b8ffffffff0100b864d9450000001976a9143f85af590d92217c03c8b4fdc2562ed49496e8ad88ac00000000"
}
