{"txid":"34ddd6a82bfc173db201b84be78acaacb15b31b2e97fe06c5b769f22b0490ca9","hash":"34ddd6a82bfc173db201b84be78acaacb15b31b2e97fe06c5b769f22b0490ca9","version":1,"size":258,"vsize":258,"locktime":0,"vin":[{"sequence":4294967295,"txid":"b96527b680d42b7ec68c711720344b4c1765a175e99ad4139071ee20797ce8a3","vout":1,"scriptSig":{"asm":"3045022100ee9491dede6c415e0632a125ef6ef6914d37f3308c438456154bb612125959ce022067d42c2fb4668d6d995c8272bafb78c92fb524d5d774e61777915fd5aaad7288[ALL] 04ad51760a05a5b9a73f24c5a66548009cb722b9a6921358f9bd04bff6fb5e2d2013ff127ee5f8c4e26bb72500649a5b4f98117fab1a80db6138b36be4949fc8a7","hex":"483045022100ee9491dede6c415e0632a125ef6ef6914d37f3308c438456154bb612125959ce022067d42c2fb4668d6d995c8272bafb78c92fb524d5d774e61777915fd5aaad7288014104ad51760a05a5b9a73f24c5a66548009cb722b9a6921358f9bd04bff6fb5e2d2013ff127ee5f8c4e26bb72500649a5b4f98117fab1a80db6138b36be4949fc8a7"}}],"vout":[{"value":34.18,"n":0,"scriptPubKey":{"asm":"OP_DUP OP_HASH160 e7a7fa1e6e75e63709217bea3b2fe121a79fa922 OP_EQUALVERIFY OP_CHECKSIG","hex":"76a914e7a7fa1e6e75e63709217bea3b2fe121a79fa92288ac","reqSigs":1,"type":"pubkeyhash","addresses":["1N7tKZZ69wGhW1s2sURLZMF3reXwzYwNxD"]}},{"value":6.29,"n":1,"scriptPubKey":{"asm":"OP_DUP OP_HASH160 f56ffd071612ec48b37afca18f13fb2ae30580d0 OP_EQUALVERIFY OP_CHECKSIG","hex":"76a914f56ffd071612ec48b37afca18f13fb2ae30580d088ac","reqSigs":1,"type":"pubkeyhash","addresses":["1PNki67ZmFr9YBTvFJp6x7o4R6TB4KZdWi"]}}],"hex":"0100000001a3e87c7920ee719013d49ae975a165174c4b342017718cc67e2bd480b62765b9010000008b483045022100ee9491dede6c415e0632a125ef6ef6914d37f3308c438456154bb612125959ce022067d42c2fb4668d6d995c8272bafb78c92fb524d5d774e61777915fd5aaad7288014104ad51760a05a5b9a73f24c5a66548009cb722b9a6921358f9bd04bff6fb5e2d2013ff127ee5f8c4e26bb72500649a5b4f98117fab1a80db6138b36be4949fc8a7ffffffff02808abacb000000001976a914e7a7fa1e6e75e63709217bea3b2fe121a79fa92288ac40c77d25000000001976a914f56ffd071612ec48b37afca18f13fb2ae30580d088ac00000000"}