{"txid":"358bdf34237baad847eaeca1ee1d1e868050b7da2b6eca204bcc6a826851fd99","hash":"358bdf34237baad847eaeca1ee1d1e868050b7da2b6eca204bcc6a826851fd99","version":1,"size":258,"vsize":258,"locktime":0,"vin":[{"sequence":4294967295,"txid":"634ec98ca9e226e9be3ec2e3a8f186561264240da5331ac8dcb289aa6ac04815","vout":0,"scriptSig":{"asm":"3045022017bf7d5228e92d8803749b43abb535526fd87b46ead447cbe70cb296a460e9d1022100c2d83fa35b8ba402c12326de12f12236885b7ea14bd94a5db95fb4ff9e2f20ea[ALL] 04708d2f613159a4f7ee453dff5d8fff6e38e3b75adb096326f3c87bfe9d962af59497f2ae98fa0167d8a368cf31c372ee70e096e6c1a04d4bffe08611951e9abe","hex":"483045022017bf7d5228e92d8803749b43abb535526fd87b46ead447cbe70cb296a460e9d1022100c2d83fa35b8ba402c12326de12f12236885b7ea14bd94a5db95fb4ff9e2f20ea014104708d2f613159a4f7ee453dff5d8fff6e38e3b75adb096326f3c87bfe9d962af59497f2ae98fa0167d8a368cf31c372ee70e096e6c1a04d4bffe08611951e9abe"}}],"vout":[{"value":5.29,"n":0,"scriptPubKey":{"asm":"OP_DUP OP_HASH160 1d8a220764c03e82813a5e765a7c191d294d6316 OP_EQUALVERIFY OP_CHECKSIG","hex":"76a9141d8a220764c03e82813a5e765a7c191d294d631688ac","reqSigs":1,"type":"pubkeyhash","addresses":["13hC5D1KTqBUXT4SVTh9jJJHTU7Ap36JNe"]}},{"value":27.7,"n":1,"scriptPubKey":{"asm":"OP_DUP OP_HASH160 29dc5995fff501fd1a7c308fd97bf47636340c77 OP_EQUALVERIFY OP_CHECKSIG","hex":"76a91429dc5995fff501fd1a7c308fd97bf47636340c7788ac","reqSigs":1,"type":"pubkeyhash","addresses":["14pLg3mFLZGH9jRAggLubtk5ZHtkdoztxH"]}}],"hex":"01000000011548c06aaa89b2dcc81a33a50d2464125686f1a8e3c23ebee926e2a98cc94e63000000008b483045022017bf7d5228e92d8803749b43abb535526fd87b46ead447cbe70cb296a460e9d1022100c2d83fa35b8ba402c12326de12f12236885b7ea14bd94a5db95fb4ff9e2f20ea014104708d2f613159a4f7ee453dff5d8fff6e38e3b75adb096326f3c87bfe9d962af59497f2ae98fa0167d8a368cf31c372ee70e096e6c1a04d4bffe08611951e9abeffffffff0240e6871f000000001976a9141d8a220764c03e82813a5e765a7c191d294d631688ac80d81aa5000000001976a91429dc5995fff501fd1a7c308fd97bf47636340c7788ac00000000"}