{"txid":"3a99c847a4e57f1756bf29c5ccff429ec957d35ead0e0150ee4c64b618b64a94","hash":"3a99c847a4e57f1756bf29c5ccff429ec957d35ead0e0150ee4c64b618b64a94","version":1,"size":224,"vsize":224,"locktime":0,"vin":[{"sequence":4294967295,"txid":"cdc2325b6e7e353b24e5a255e8ec3ab5b0d191ec5870ec8de7dded7b52883d73","vout":0,"scriptSig":{"asm":"3045022100bca9691fd7537063b1e01a752349d41d76a52ed5b795b044207a0c342fa3fdf802200117c1de4180e7626d50129615873bf708b2a18e83995f972d551d43cb8cad0d[ALL] 043087c37b96e83c0a6317d6b25bc717dd6200bab498897fee93d49dcc969385137568c9d72b959c7b5c8eca0e0bf4878e61b1e3dde4b964695348013cc512e36c","hex":"483045022100bca9691fd7537063b1e01a752349d41d76a52ed5b795b044207a0c342fa3fdf802200117c1de4180e7626d50129615873bf708b2a18e83995f972d551d43cb8cad0d0141043087c37b96e83c0a6317d6b25bc717dd6200bab498897fee93d49dcc969385137568c9d72b959c7b5c8eca0e0bf4878e61b1e3dde4b964695348013cc512e36c"}}],"vout":[{"value":0.01,"n":0,"scriptPubKey":{"asm":"OP_DUP OP_HASH160 30ffa0fd6b43a240d00da7ae6bb75def9fc14589 OP_EQUALVERIFY OP_CHECKSIG","hex":"76a91430ffa0fd6b43a240d00da7ae6bb75def9fc1458988ac","reqSigs":1,"type":"pubkeyhash","addresses":["15U5fcYpnchL5PVdmTvfC8c2EJeR64v31V"]}}],"hex":"0100000001733d88527beddde78dec7058ec91d1b0b53aece855a2e5243b357e6e5b32c2cd000000008b483045022100bca9691fd7537063b1e01a752349d41d76a52ed5b795b044207a0c342fa3fdf802200117c1de4180e7626d50129615873bf708b2a18e83995f972d551d43cb8cad0d0141043087c37b96e83c0a6317d6b25bc717dd6200bab498897fee93d49dcc969385137568c9d72b959c7b5c8eca0e0bf4878e61b1e3dde4b964695348013cc512e36cffffffff0140420f00000000001976a91430ffa0fd6b43a240d00da7ae6bb75def9fc1458988ac00000000"}