{"txid":"45f6a4f12f3020952d3f740b8bd10d97729b13068f8acabf848dc3697b62cf32","hash":"45f6a4f12f3020952d3f740b8bd10d97729b13068f8acabf848dc3697b62cf32","version":1,"size":258,"vsize":258,"locktime":0,"vin":[{"sequence":4294967295,"txid":"d3edf21d2cda578f08fffee3bfd57df431b435d5ec44ae18a1e6a0e5f5f2de28","vout":0,"scriptSig":{"asm":"3045022100bc8c7df6bcd24cc44756c39e994ef7cb998eb1784ce0c783e747beb4e37e3d3602201964e5e4e818b37dff4517d7b32be46dca497ddc6c696f7d0c38979078148421[ALL] 045b64a642e4b683e457eae748c46741bbd6ef6c0a8593e223bb3c3df335b5bad3c6fb62a7c260fb703f99f7bf8571e839e1949936a8a0c1ded1371f1d6de1d86a","hex":"483045022100bc8c7df6bcd24cc44756c39e994ef7cb998eb1784ce0c783e747beb4e37e3d3602201964e5e4e818b37dff4517d7b32be46dca497ddc6c696f7d0c389790781484210141045b64a642e4b683e457eae748c46741bbd6ef6c0a8593e223bb3c3df335b5bad3c6fb62a7c260fb703f99f7bf8571e839e1949936a8a0c1ded1371f1d6de1d86a"}}],"vout":[{"value":39.21,"n":0,"scriptPubKey":{"asm":"OP_DUP OP_HASH160 669bf673c4490bc60cd70382a75044d0a078e03d OP_EQUALVERIFY OP_CHECKSIG","hex":"76a914669bf673c4490bc60cd70382a75044d0a078e03d88ac","reqSigs":1,"type":"pubkeyhash","addresses":["1AMYm3dZNHeXV6PMhsKXhhohT5ASB5vCrr"]}},{"value":5.09,"n":1,"scriptPubKey":{"asm":"OP_DUP OP_HASH160 1d8a220764c03e82813a5e765a7c191d294d6316 OP_EQUALVERIFY OP_CHECKSIG","hex":"76a9141d8a220764c03e82813a5e765a7c191d294d631688ac","reqSigs":1,"type":"pubkeyhash","addresses":["13hC5D1KTqBUXT4SVTh9jJJHTU7Ap36JNe"]}}],"hex":"010000000128def2f5e5a0e6a118ae44ecd535b431f47dd5bfe3feff088f57da2c1df2edd3000000008b483045022100bc8c7df6bcd24cc44756c39e994ef7cb998eb1784ce0c783e747beb4e37e3d3602201964e5e4e818b37dff4517d7b32be46dca497ddc6c696f7d0c389790781484210141045b64a642e4b683e457eae748c46741bbd6ef6c0a8593e223bb3c3df335b5bad3c6fb62a7c260fb703f99f7bf8571e839e1949936a8a0c1ded1371f1d6de1d86affffffff0240b6b5e9000000001976a914669bf673c4490bc60cd70382a75044d0a078e03d88ac40b9561e000000001976a9141d8a220764c03e82813a5e765a7c191d294d631688ac00000000"}