{"txid":"54614e349d321b89735b40e12795afc33084e80cd9b3b62ec477bf2a5e218afc","hash":"54614e349d321b89735b40e12795afc33084e80cd9b3b62ec477bf2a5e218afc","version":1,"size":438,"vsize":438,"locktime":0,"vin":[{"sequence":4294967295,"txid":"7a09c3626cd27f91efafa4170a83108788516f71d1b415d8d11b389ce77b2dc4","vout":0,"scriptSig":{"asm":"3045022100f264af87831d6c9c2150feee343e128556e84946672042150d1d77e1afb35c530220170dac1f7105f65477f4d9f15eb06c05fcf51bbbde3cd8ba25d2dcc1ca52ead2[ALL] 04ef825576f5b4c3d69f9291865391a1012d153e42dc90b8b88188486d9f5ea3cd9ad36224e2909e9367c3c53405d9e0f004b75145b1c1048f5f206f0777baa761","hex":"483045022100f264af87831d6c9c2150feee343e128556e84946672042150d1d77e1afb35c530220170dac1f7105f65477f4d9f15eb06c05fcf51bbbde3cd8ba25d2dcc1ca52ead2014104ef825576f5b4c3d69f9291865391a1012d153e42dc90b8b88188486d9f5ea3cd9ad36224e2909e9367c3c53405d9e0f004b75145b1c1048f5f206f0777baa761"}},{"sequence":4294967295,"txid":"7a09c3626cd27f91efafa4170a83108788516f71d1b415d8d11b389ce77b2dc4","vout":1,"scriptSig":{"asm":"3045022027c65dbc648c96ea6de5084abf3447e5b319064d2ee8491d00213c6fbf1325b2022100ec454edd09baabbde3d7e57eb8b60afeee5cc71403dff2e7e5b1cfc5c788fa68[ALL] 04eb8e4d4632573edaf5e4dac9cd381e810301d6b01a018965f6d30a4e2e5773169a08cd2adea2ec8ffc731ca9bcd6af3b93064a61455558bfc39edcfb7c1abe4f","hex":"483045022027c65dbc648c96ea6de5084abf3447e5b319064d2ee8491d00213c6fbf1325b2022100ec454edd09baabbde3d7e57eb8b60afeee5cc71403dff2e7e5b1cfc5c788fa68014104eb8e4d4632573edaf5e4dac9cd381e810301d6b01a018965f6d30a4e2e5773169a08cd2adea2ec8ffc731ca9bcd6af3b93064a61455558bfc39edcfb7c1abe4f"}}],"vout":[{"value":40.0,"n":0,"scriptPubKey":{"asm":"OP_DUP OP_HASH160 9a89c24c195a6f6e070b2947ef20fa1157b36481 OP_EQUALVERIFY OP_CHECKSIG","hex":"76a9149a89c24c195a6f6e070b2947ef20fa1157b3648188ac","reqSigs":1,"type":"pubkeyhash","addresses":["1F686CnVXvsgGZ7LvheCLno8yCBzrriNqi"]}},{"value":30.0,"n":1,"scriptPubKey":{"asm":"OP_DUP OP_HASH160 6054557d60f4f240bd43228327f39859a675e5f6 OP_EQUALVERIFY OP_CHECKSIG","hex":"76a9146054557d60f4f240bd43228327f39859a675e5f688ac","reqSigs":1,"type":"pubkeyhash","addresses":["19nLu3NbRoyMmK3ewHmkAoNo2qFVw8T5ku"]}}],"hex":"0100000002c42d7be79c381bd1d815b4d1716f51888710830a17a4afef917fd26c62c3097a000000008b483045022100f264af87831d6c9c2150feee343e128556e84946672042150d1d77e1afb35c530220170dac1f7105f65477f4d9f15eb06c05fcf51bbbde3cd8ba25d2dcc1ca52ead2014104ef825576f5b4c3d69f9291865391a1012d153e42dc90b8b88188486d9f5ea3cd9ad36224e2909e9367c3c53405d9e0f004b75145b1c1048f5f206f0777baa761ffffffffc42d7be79c381bd1d815b4d1716f51888710830a17a4afef917fd26c62c3097a010000008b483045022027c65dbc648c96ea6de5084abf3447e5b319064d2ee8491d00213c6fbf1325b2022100ec454edd09baabbde3d7e57eb8b60afeee5cc71403dff2e7e5b1cfc5c788fa68014104eb8e4d4632573edaf5e4dac9cd381e810301d6b01a018965f6d30a4e2e5773169a08cd2adea2ec8ffc731ca9bcd6af3b93064a61455558bfc39edcfb7c1abe4fffffffff0200286bee000000001976a9149a89c24c195a6f6e070b2947ef20fa1157b3648188ac005ed0b2000000001976a9146054557d60f4f240bd43228327f39859a675e5f688ac00000000"}