{"txid":"618e91610c7e42a488e33efc2cafc65a755c28d10546b7a3f10148daab0a0f66","hash":"618e91610c7e42a488e33efc2cafc65a755c28d10546b7a3f10148daab0a0f66","version":1,"size":259,"vsize":259,"locktime":0,"vin":[{"sequence":4294967295,"txid":"d484b3bc52321ec124eeb5e8f66524125e27af416857cfe72d4423f8433a8a9d","vout":0,"scriptSig":{"asm":"3046022100cf4b0deead573e4a55e890983b78198f66ad8d0f09b498ec583736f5dd32923b022100e051128cae36d01ef95157d2eedb6cd90d49a66ac523290df5c70ce39e58088f[ALL] 0440c54157815e3ff2a32c9a3c8d277b71c5492e19b4e2d2465c455bd7b124bf11716e3fe88881f0ef46221a0d8b61cc33354d17096f92de21e0cae4da2ffe1b86","hex":"493046022100cf4b0deead573e4a55e890983b78198f66ad8d0f09b498ec583736f5dd32923b022100e051128cae36d01ef95157d2eedb6cd90d49a66ac523290df5c70ce39e58088f01410440c54157815e3ff2a32c9a3c8d277b71c5492e19b4e2d2465c455bd7b124bf11716e3fe88881f0ef46221a0d8b61cc33354d17096f92de21e0cae4da2ffe1b86"}}],"vout":[{"value":5.03,"n":0,"scriptPubKey":{"asm":"OP_DUP OP_HASH160 1d8a220764c03e82813a5e765a7c191d294d6316 OP_EQUALVERIFY OP_CHECKSIG","hex":"76a9141d8a220764c03e82813a5e765a7c191d294d631688ac","reqSigs":1,"type":"pubkeyhash","addresses":["13hC5D1KTqBUXT4SVTh9jJJHTU7Ap36JNe"]}},{"value":4.39,"n":1,"scriptPubKey":{"asm":"OP_DUP OP_HASH160 bc651845aca3bab14b185950e854398bff8c4a65 OP_EQUALVERIFY OP_CHECKSIG","hex":"76a914bc651845aca3bab14b185950e854398bff8c4a6588ac","reqSigs":1,"type":"pubkeyhash","addresses":["1JB99FnQtEVxQgw2XpVcWNsCqew8LKKb3h"]}}],"hex":"01000000019d8a3a43f823442de7cf576841af275e122465f6e8b5ee24c11e3252bcb384d4000000008c493046022100cf4b0deead573e4a55e890983b78198f66ad8d0f09b498ec583736f5dd32923b022100e051128cae36d01ef95157d2eedb6cd90d49a66ac523290df5c70ce39e58088f01410440c54157815e3ff2a32c9a3c8d277b71c5492e19b4e2d2465c455bd7b124bf11716e3fe88881f0ef46221a0d8b61cc33354d17096f92de21e0cae4da2ffe1b86ffffffff02c02bfb1d000000001976a9141d8a220764c03e82813a5e765a7c191d294d631688acc09b2a1a000000001976a914bc651845aca3bab14b185950e854398bff8c4a6588ac00000000"}