{"txid":"6e6d2ab475be7eb8fe3d722985904a7f35ae7c379657da624afe18f4cf35c553","hash":"6e6d2ab475be7eb8fe3d722985904a7f35ae7c379657da624afe18f4cf35c553","version":1,"size":258,"vsize":258,"locktime":0,"vin":[{"sequence":4294967295,"txid":"f4513b5b04d5c7e1db1867d76f8fc21c35d9b42eaccb5502894b1aac479c04ee","vout":0,"scriptSig":{"asm":"30450220762425aca96c82dcb1544e3aaeb75df6eba32b6f1088b192ef97017b51a43180022100d3379efd5c4c98c957c0c03850175f31f6e662c6c623a9c0e1bec808eca87336[ALL] 0478e9197b434f65e2978ff103aaef76f937d76c42f2f6ceba156e8d20aafed776e77bb5aa92c48938ccad941eada9749f82fa8be31c365e02d56885cca15bfcf2","hex":"4830450220762425aca96c82dcb1544e3aaeb75df6eba32b6f1088b192ef97017b51a43180022100d3379efd5c4c98c957c0c03850175f31f6e662c6c623a9c0e1bec808eca8733601410478e9197b434f65e2978ff103aaef76f937d76c42f2f6ceba156e8d20aafed776e77bb5aa92c48938ccad941eada9749f82fa8be31c365e02d56885cca15bfcf2"}}],"vout":[{"value":170.0,"n":0,"scriptPubKey":{"asm":"OP_DUP OP_HASH160 2ff9f8483afd0eb121dfd871eeed480d09325996 OP_EQUALVERIFY OP_CHECKSIG","hex":"76a9142ff9f8483afd0eb121dfd871eeed480d0932599688ac","reqSigs":1,"type":"pubkeyhash","addresses":["15NgDE6jXGupGAVoLyHHksr129uwJjDwDM"]}},{"value":830.0,"n":1,"scriptPubKey":{"asm":"OP_DUP OP_HASH160 d1b0ab46e394be66ec59eb4d48d1252334ab4114 OP_EQUALVERIFY OP_CHECKSIG","hex":"76a914d1b0ab46e394be66ec59eb4d48d1252334ab411488ac","reqSigs":1,"type":"pubkeyhash","addresses":["1L7jsGreiGizwWLSFsoUEMukjHuJQVqniv"]}}],"hex":"0100000001ee049c47ac1a4b890255cbac2eb4d9351cc28f6fd76718dbe1c7d5045b3b51f4000000008b4830450220762425aca96c82dcb1544e3aaeb75df6eba32b6f1088b192ef97017b51a43180022100d3379efd5c4c98c957c0c03850175f31f6e662c6c623a9c0e1bec808eca8733601410478e9197b434f65e2978ff103aaef76f937d76c42f2f6ceba156e8d20aafed776e77bb5aa92c48938ccad941eada9749f82fa8be31c365e02d56885cca15bfcf2ffffffff02006a47f5030000001976a9142ff9f8483afd0eb121dfd871eeed480d0932599688ac007e2f53130000001976a914d1b0ab46e394be66ec59eb4d48d1252334ab411488ac00000000"}