{"txid":"71ab77fb4bfba5679cac8f485844e385068aee8b107be3f343c894a67c67b110","hash":"71ab77fb4bfba5679cac8f485844e385068aee8b107be3f343c894a67c67b110","version":1,"size":258,"vsize":258,"locktime":0,"vin":[{"sequence":4294967295,"txid":"657307e50a30feb104a9fcf87fb5e703943c7acea556bde2b61cc53fb67f0fd8","vout":1,"scriptSig":{"asm":"304502206743699d9c674d25236cf57e8441b084bd59abe17b8db19f76377303133d3a5b022100bfd64365bcc2a3ad48cc29f4626d9eeeeb5c2b6bb8026dc00c39d67178311ddf[ALL] 0479a143022767461b343d2797ebf3ea1b5a40f913e22b035dd8899e1594faed2fb32dfdd52454f42125b948b6dd5a70edd4881619ba0a3225795c2b044daffc3d","hex":"48304502206743699d9c674d25236cf57e8441b084bd59abe17b8db19f76377303133d3a5b022100bfd64365bcc2a3ad48cc29f4626d9eeeeb5c2b6bb8026dc00c39d67178311ddf01410479a143022767461b343d2797ebf3ea1b5a40f913e22b035dd8899e1594faed2fb32dfdd52454f42125b948b6dd5a70edd4881619ba0a3225795c2b044daffc3d"}}],"vout":[{"value":5.7,"n":0,"scriptPubKey":{"asm":"OP_DUP OP_HASH160 f62303588367698c0303ac10994055f80a529464 OP_EQUALVERIFY OP_CHECKSIG","hex":"76a914f62303588367698c0303ac10994055f80a52946488ac","reqSigs":1,"type":"pubkeyhash","addresses":["1PSTAwaVeTruKj7MHESmDw2yRTDz89LQzT"]}},{"value":5.07,"n":1,"scriptPubKey":{"asm":"OP_DUP OP_HASH160 1d8a220764c03e82813a5e765a7c191d294d6316 OP_EQUALVERIFY OP_CHECKSIG","hex":"76a9141d8a220764c03e82813a5e765a7c191d294d631688ac","reqSigs":1,"type":"pubkeyhash","addresses":["13hC5D1KTqBUXT4SVTh9jJJHTU7Ap36JNe"]}}],"hex":"0100000001d80f7fb63fc51cb6e2bd56a5ce7a3c9403e7b57ff8fca904b1fe300ae5077365010000008b48304502206743699d9c674d25236cf57e8441b084bd59abe17b8db19f76377303133d3a5b022100bfd64365bcc2a3ad48cc29f4626d9eeeeb5c2b6bb8026dc00c39d67178311ddf01410479a143022767461b343d2797ebf3ea1b5a40f913e22b035dd8899e1594faed2fb32dfdd52454f42125b948b6dd5a70edd4881619ba0a3225795c2b044daffc3dffffffff028082f921000000001976a914f62303588367698c0303ac10994055f80a52946488acc034381e000000001976a9141d8a220764c03e82813a5e765a7c191d294d631688ac00000000"}