{"txid":"74572858dc3be198762ff1470baee6f64815fcf565eb7a703a4db7f24731fed1","hash":"74572858dc3be198762ff1470baee6f64815fcf565eb7a703a4db7f24731fed1","version":1,"size":258,"vsize":258,"locktime":0,"vin":[{"sequence":4294967295,"txid":"5a9e1207ec7b13c66dd1cf6ca9ba42d435a1699b6aa11750d140124048f561cc","vout":0,"scriptSig":{"asm":"304502204731fc9f48653afc9f447988e2ea2ac06b839226db006e245da99415892be368022100d15f089617778363c495f4d7ffed3afa9727f9e009b72670984f68d4e8644048[ALL] 04c2a60d5a75ada3e2ef0848c72820ef38c3b0cd303623feed4db2c51959ddeda9b2a474777890f1ada423fee17ef42778fe7d6cb7258d92e1e5571f985c2ab367","hex":"48304502204731fc9f48653afc9f447988e2ea2ac06b839226db006e245da99415892be368022100d15f089617778363c495f4d7ffed3afa9727f9e009b72670984f68d4e8644048014104c2a60d5a75ada3e2ef0848c72820ef38c3b0cd303623feed4db2c51959ddeda9b2a474777890f1ada423fee17ef42778fe7d6cb7258d92e1e5571f985c2ab367"}}],"vout":[{"value":33.73,"n":0,"scriptPubKey":{"asm":"OP_DUP OP_HASH160 d5735a0c43dc14987330466b665de1f5bb77f076 OP_EQUALVERIFY OP_CHECKSIG","hex":"76a914d5735a0c43dc14987330466b665de1f5bb77f07688ac","reqSigs":1,"type":"pubkeyhash","addresses":["1LTd7e7odW6SWXNCuYCgQNMUr9yN33ySEF"]}},{"value":5.01,"n":1,"scriptPubKey":{"asm":"OP_DUP OP_HASH160 1d8a220764c03e82813a5e765a7c191d294d6316 OP_EQUALVERIFY OP_CHECKSIG","hex":"76a9141d8a220764c03e82813a5e765a7c191d294d631688ac","reqSigs":1,"type":"pubkeyhash","addresses":["13hC5D1KTqBUXT4SVTh9jJJHTU7Ap36JNe"]}}],"hex":"0100000001cc61f548401240d15017a16a9b69a135d442baa96ccfd16dc6137bec07129e5a000000008b48304502204731fc9f48653afc9f447988e2ea2ac06b839226db006e245da99415892be368022100d15f089617778363c495f4d7ffed3afa9727f9e009b72670984f68d4e8644048014104c2a60d5a75ada3e2ef0848c72820ef38c3b0cd303623feed4db2c51959ddeda9b2a474777890f1ada423fee17ef42778fe7d6cb7258d92e1e5571f985c2ab367ffffffff0240e50bc9000000001976a914d5735a0c43dc14987330466b665de1f5bb77f07688ac40a7dc1d000000001976a9141d8a220764c03e82813a5e765a7c191d294d631688ac00000000"}