{"txid":"79f35de4f83eb6322f8e04ac60d64ff73f11387ed71becb4e1ba20e0b592f0ab","hash":"79f35de4f83eb6322f8e04ac60d64ff73f11387ed71becb4e1ba20e0b592f0ab","version":1,"size":257,"vsize":257,"locktime":0,"vin":[{"sequence":4294967295,"txid":"3e8ac8b521c6531c6f488f3ddddeb1307e25788a30cd919699a61d48c0b2ea86","vout":0,"scriptSig":{"asm":"304402207e3c7a9a2b60b57e87227b8f93c91b36280ff2c1ae19b4d469f8326b0993923f022037b3633e9d5f48f0fc729b77bc1c00dbe5d1b6bd027c0fa051920f40b85c6e31[ALL] 0429aac775f745d7f87a94cbd3e4580cfa94fa89199035d35419cb5b923b4d0480885ee91c8fda6196276f4add2918a64e1274342cee2a23908e3445eefc070e5d","hex":"47304402207e3c7a9a2b60b57e87227b8f93c91b36280ff2c1ae19b4d469f8326b0993923f022037b3633e9d5f48f0fc729b77bc1c00dbe5d1b6bd027c0fa051920f40b85c6e3101410429aac775f745d7f87a94cbd3e4580cfa94fa89199035d35419cb5b923b4d0480885ee91c8fda6196276f4add2918a64e1274342cee2a23908e3445eefc070e5d"}}],"vout":[{"value":5.52,"n":0,"scriptPubKey":{"asm":"OP_DUP OP_HASH160 112c1b231506d3ea04320521c83319a051e27f31 OP_EQUALVERIFY OP_CHECKSIG","hex":"76a914112c1b231506d3ea04320521c83319a051e27f3188ac","reqSigs":1,"type":"pubkeyhash","addresses":["12ZoKoQDS2AuatnM4FzC4cAiRXKS7PZDwr"]}},{"value":40.31,"n":1,"scriptPubKey":{"asm":"OP_DUP OP_HASH160 3b9a2215edd5dfb808a7e6152037d7ec9dd66afe OP_EQUALVERIFY OP_CHECKSIG","hex":"76a9143b9a2215edd5dfb808a7e6152037d7ec9dd66afe88ac","reqSigs":1,"type":"pubkeyhash","addresses":["16S9WgFmX8YTeukLKG41VkYXMCf8fQvCSM"]}}],"hex":"010000000186eab2c0481da6999691cd308a78257e30b1dedd3d8f486f1c53c621b5c88a3e000000008a47304402207e3c7a9a2b60b57e87227b8f93c91b36280ff2c1ae19b4d469f8326b0993923f022037b3633e9d5f48f0fc729b77bc1c00dbe5d1b6bd027c0fa051920f40b85c6e3101410429aac775f745d7f87a94cbd3e4580cfa94fa89199035d35419cb5b923b4d0480885ee91c8fda6196276f4add2918a64e1274342cee2a23908e3445eefc070e5dffffffff0200dae620000000001976a914112c1b231506d3ea04320521c83319a051e27f3188acc02d44f0000000001976a9143b9a2215edd5dfb808a7e6152037d7ec9dd66afe88ac00000000"}