{
  "txid": "7afdc1725d98288687ee0caa945f7c25a46afa9e69d36139d1778e5b7283ebe2",
  "hash": "7afdc1725d98288687ee0caa945f7c25a46afa9e69d36139d1778e5b7283ebe2",
  "version": 1,
  "size": 1401,
  "vsize": 1401,
  "locktime": 0,
  "vin": [
    {
      "sequence": 4294967295,
      "txid": "f317443b4da0237e552f09a8a435e63bbef493e092f26a5fba0ebf278199b42f",
      "vout": 0,
      "scriptSig": {
        "asm": "304602210091814087879bd5b9993c2fcbce78b1c99ce30a108d7d85f6d801fe9d3e5f51e9022100954f0992566b342e0de3971cf3a37e1ac2479b264a6d8c7659b9826b995f8fe8[ALL]",
        "hex": "49304602210091814087879bd5b9993c2fcbce78b1c99ce30a108d7d85f6d801fe9d3e5f51e9022100954f0992566b342e0de3971cf3a37e1ac2479b264a6d8c7659b9826b995f8fe801"
      }
    },
    {
      "sequence": 4294967295,
      "txid": "bfacae6faa91fe44b2ad956db4c5dc9a60007e70b062b259e25a9af3869186be",
      "vout": 0,
      "scriptSig": {
        "asm": "30450221008b447bf3e5d62633ca18d51ffdc768e15e1db994735e148127b7daf4206dbb6802205ae1ce2beb4798c5a875d8b3879f6348c7d18d25885909f712bee31d14308b45[ALL] 044f65116b9974fe9ed8edef9c9c87c26036693b7088895647a5e1c97ba7502b6b8117d4f6a650ed0f15fcb91c6c886f922c570d5b7134ec86c0f172dc7f8c1fb9",
        "hex": "4830450221008b447bf3e5d62633ca18d51ffdc768e15e1db994735e148127b7daf4206dbb6802205ae1ce2beb4798c5a875d8b3879f6348c7d18d25885909f712bee31d14308b450141044f65116b9974fe9ed8edef9c9c87c26036693b7088895647a5e1c97ba7502b6b8117d4f6a650ed0f15fcb91c6c886f922c570d5b7134ec86c0f172dc7f8c1fb9"
      }
    },
    {
      "sequence": 4294967295,
      "txid": "355b9b142eb03bf0776abc8bd58990fe515c68e1dd618d0e65d718940f42d8a7",
      "vout": 0,
      "scriptSig": {
        "asm": "304502201e6bc7287f13f8b36cfaf32f8b7eacd3dc454094ecc109af283b48aef5a52343022100edc322b2ba354bcfd0f2d72bd82f06bd98fa519327ce25976d36b918defb738e[ALL]",
        "hex": "48304502201e6bc7287f13f8b36cfaf32f8b7eacd3dc454094ecc109af283b48aef5a52343022100edc322b2ba354bcfd0f2d72bd82f06bd98fa519327ce25976d36b918defb738e01"
      }
    },
    {
      "sequence": 4294967295,
      "txid": "1dba1240436d1d6736f7c55bafd3c8e06f6825a5203fed546a85f2c7754b5be7",
      "vout": 0,
      "scriptSig": {
        "asm": "30440220164983c565b79690b79b16fc56beebb31e7d7fb238693538612f3f652b2d17f402206808af5d41dfa87a274a8012b6baeeda977c1c38437161eef597c959477547fc[ALL]",
        "hex": "4730440220164983c565b79690b79b16fc56beebb31e7d7fb238693538612f3f652b2d17f402206808af5d41dfa87a274a8012b6baeeda977c1c38437161eef597c959477547fc01"
      }
    },
    {
      "sequence": 4294967295,
      "txid": "093e683ffe5c1fd6319eaa9b94b93521c0f3d1d1c91cb114085826bd68e91a54",
      "vout": 0,
      "scriptSig": {
        "asm": "3046022100b66a99dc6fafb1c7cb582fefaa84d282d760b3f647be64ae1d724a60f97bf68f022100a31860b571125e2e7e7bb57190b60904c0788038a074c32b05102a31174e9d7f[ALL]",
        "hex": "493046022100b66a99dc6fafb1c7cb582fefaa84d282d760b3f647be64ae1d724a60f97bf68f022100a31860b571125e2e7e7bb57190b60904c0788038a074c32b05102a31174e9d7f01"
      }
    },
    {
      "sequence": 4294967295,
      "txid": "5c4ee164aa7b0b1e500651609184d3dfb6048fc4a05e5ab8fff7d49b1fe87ed6",
      "vout": 0,
      "scriptSig": {
        "asm": "3046022100c47e2dbcfe945512a7025087304235c69183fbe4d9435a36d97affaa6e84996d022100e722c99228e01d3f629dcf9b087689570480e045c1f33d97c203c1e62801bc14[ALL]",
        "hex": "493046022100c47e2dbcfe945512a7025087304235c69183fbe4d9435a36d97affaa6e84996d022100e722c99228e01d3f629dcf9b087689570480e045c1f33d97c203c1e62801bc1401"
      }
    },
    {
      "sequence": 4294967295,
      "txid": "a9e18af99bdb89b6f1d174f7ce66413622e664b6e067ffb13ab4b2d075fc64eb",
      "vout": 0,
      "scriptSig": {
        "asm": "304602210096e482ca409ddda596066da582ebf9b9bbd95ce6775a68a593d0f79f597fab7c022100d53bf4dc7dfa67a59e8cb79d681eaedd6959c35eb420cfb1e4e5be824f13af11[ALL]",
        "hex": "49304602210096e482ca409ddda596066da582ebf9b9bbd95ce6775a68a593d0f79f597fab7c022100d53bf4dc7dfa67a59e8cb79d681eaedd6959c35eb420cfb1e4e5be824f13af1101"
      }
    },
    {
      "sequence": 4294967295,
      "txid": "02970cb4d771ae5063f02958ec040f953162c4e226616e870918717ef65ccf6e",
      "vout": 0,
      "scriptSig": {
        "asm": "3044022012ec489f9d80dff72f6bf20a9ba9c73bf1fb09cefb59105fdbc0e95827d7932b022017d55159a7af77e0c6e7810c8576c4b9cf2eafd1c9da9e69a1202c0f9dc37cbe[ALL]",
        "hex": "473044022012ec489f9d80dff72f6bf20a9ba9c73bf1fb09cefb59105fdbc0e95827d7932b022017d55159a7af77e0c6e7810c8576c4b9cf2eafd1c9da9e69a1202c0f9dc37cbe01"
      }
    },
    {
      "sequence": 4294967295,
      "txid": "4045be01651acb1b3b276f9c5cc5ada34ded0285b576c160d731bab51cdd3bc6",
      "vout": 0,
      "scriptSig": {
        "asm": "304502210097b8196a6bfe50161d04b721f78d46efba8acd455d7d3d0093e70f63ae9df70a02207fde0a54db0d5e5ce34535f76b9d96dff5e6405c8a7d96c920452d00b1e716d2[ALL]",
        "hex": "48304502210097b8196a6bfe50161d04b721f78d46efba8acd455d7d3d0093e70f63ae9df70a02207fde0a54db0d5e5ce34535f76b9d96dff5e6405c8a7d96c920452d00b1e716d201"
      }
    },
    {
      "sequence": 4294967295,
      "txid": "ded038a3458036913f9d24299181a6aeb20596815bea3e8f8ede2d0742d10da1",
      "vout": 0,
      "scriptSig": {
        "asm": "30450221008db70319dd158fec57328682d56889b7b397c63fcab24a2f11b2ef2b02145f28022035fe614de8914f87a2987e7f111751f85323e7aed42a034e5e7ca02b759c9b2e[ALL]",
        "hex": "4830450221008db70319dd158fec57328682d56889b7b397c63fcab24a2f11b2ef2b02145f28022035fe614de8914f87a2987e7f111751f85323e7aed42a034e5e7ca02b759c9b2e01"
      }
    },
    {
      "sequence": 4294967295,
      "txid": "4a4bedee42958fd2703616a779b559cb50c45df281004779bee87805025d0f3d",
      "vout": 0,
      "scriptSig": {
        "asm": "3046022100d279f843f6c0c302126bfe7f2b1fad0b0ef95290b8e3a2429495bebbb230f5fa022100d44543bd5bb8475465ace7ebe7deff4f2ca72279cc08dac78c7c9afef670fa70[ALL]",
        "hex": "493046022100d279f843f6c0c302126bfe7f2b1fad0b0ef95290b8e3a2429495bebbb230f5fa022100d44543bd5bb8475465ace7ebe7deff4f2ca72279cc08dac78c7c9afef670fa7001"
      }
    }
  ],
  "vout": [
    {
      "value": 0.59,
      "n": 0,
      "scriptPubKey": {
        "asm": "OP_DUP OP_HASH160 2efef50244b7286ae6f96d7fd8cec17badc1e344 OP_EQUALVERIFY OP_CHECKSIG",
        "hex": "76a9142efef50244b7286ae6f96d7fd8cec17badc1e34488ac",
        "reqSigs": 1,
        "type": "pubkeyhash",
        "addresses": [
          "15HVWYzuRB6ShsoQ1AVBtjEjxDnGKEo1Kv"
        ]
      }
    },
    {
      "value": 3500.0,
      "n": 1,
      "scriptPubKey": {
        "asm": "OP_DUP OP_HASH160 cc4869262ee3e90d2cdfb13916764992e955a922 OP_EQUALVERIFY OP_CHECKSIG",
        "hex": "76a914cc4869262ee3e90d2cdfb13916764992e955a92288ac",
        "reqSigs": 1,
        "type": "pubkeyhash",
        "addresses": [
          "1Kd9bKYdC1z7g6QFtmXCk8qzEHEN8n9vao"
        ]
      }
    }
  ],
  "hex": "010000000b2fb4998127bf0eba5f6af292e093f4be3be635a4a8092f557e23a04d3b4417f3000000004a49304602210091814087879bd5b9993c2fcbce78b1c99ce30a108d7d85f6d801fe9d3e5f51e9022100954f0992566b342e0de3971cf3a37e1ac2479b264a6d8c7659b9826b995f8fe801ffffffffbe869186f39a5ae259b262b0707e00609adcc5b46d95adb244fe91aa6faeacbf000000008b4830450221008b447bf3e5d62633ca18d51ffdc768e15e1db994735e148127b7daf4206dbb6802205ae1ce2beb4798c5a875d8b3879f6348c7d18d25885909f712bee31d14308b450141044f65116b9974fe9ed8edef9c9c87c26036693b7088895647a5e1c97ba7502b6b8117d4f6a650ed0f15fcb91c6c886f922c570d5b7134ec86c0f172dc7f8c1fb9ffffffffa7d8420f9418d7650e8d61dde1685c51fe9089d58bbc6a77f03bb02e149b5b35000000004948304502201e6bc7287f13f8b36cfaf32f8b7eacd3dc454094ecc109af283b48aef5a52343022100edc322b2ba354bcfd0f2d72bd82f06bd98fa519327ce25976d36b918defb738e01ffffffffe75b4b75c7f2856a54ed3f20a525686fe0c8d3af5bc5f736671d6d434012ba1d00000000484730440220164983c565b79690b79b16fc56beebb31e7d7fb238693538612f3f652b2d17f402206808af5d41dfa87a274a8012b6baeeda977c1c38437161eef597c959477547fc01ffffffff541ae968bd26580814b11cc9d1d1f3c02135b9949baa9e31d61f5cfe3f683e09000000004a493046022100b66a99dc6fafb1c7cb582fefaa84d282d760b3f647be64ae1d724a60f97bf68f022100a31860b571125e2e7e7bb57190b60904c0788038a074c32b05102a31174e9d7f01ffffffffd67ee81f9bd4f7ffb85a5ea0c48f04b6dfd38491605106501e0b7baa64e14e5c000000004a493046022100c47e2dbcfe945512a7025087304235c69183fbe4d9435a36d97affaa6e84996d022100e722c99228e01d3f629dcf9b087689570480e045c1f33d97c203c1e62801bc1401ffffffffeb64fc75d0b2b43ab1ff67e0b664e622364166cef774d1f1b689db9bf98ae1a9000000004a49304602210096e482ca409ddda596066da582ebf9b9bbd95ce6775a68a593d0f79f597fab7c022100d53bf4dc7dfa67a59e8cb79d681eaedd6959c35eb420cfb1e4e5be824f13af1101ffffffff6ecf5cf67e711809876e6126e2c46231950f04ec5829f06350ae71d7b40c97020000000048473044022012ec489f9d80dff72f6bf20a9ba9c73bf1fb09cefb59105fdbc0e95827d7932b022017d55159a7af77e0c6e7810c8576c4b9cf2eafd1c9da9e69a1202c0f9dc37cbe01ffffffffc63bdd1cb5ba31d760c176b58502ed4da3adc55c9c6f273b1bcb1a6501be4540000000004948304502210097b8196a6bfe50161d04b721f78d46efba8acd455d7d3d0093e70f63ae9df70a02207fde0a54db0d5e5ce34535f76b9d96dff5e6405c8a7d96c920452d00b1e716d201ffffffffa10dd142072dde8e8f3eea5b819605b2aea6819129249d3f91368045a338d0de00000000494830450221008db70319dd158fec57328682d56889b7b397c63fcab24a2f11b2ef2b02145f28022035fe614de8914f87a2987e7f111751f85323e7aed42a034e5e7ca02b759c9b2e01ffffffff3d0f5d020578e8be79470081f25dc450cb59b579a7163670d28f9542eeed4b4a000000004a493046022100d279f843f6c0c302126bfe7f2b1fad0b0ef95290b8e3a2429495bebbb230f5fa022100d44543bd5bb8475465ace7ebe7deff4f2ca72279cc08dac78c7c9afef670fa7001ffffffff02c0448403000000001976a9142efef50244b7286ae6f96d7fd8cec17badc1e34488ac002ca07d510000001976a914cc4869262ee3e90d2cdfb13916764992e955a92288ac00000000"
}
