{"txid":"7ee9eab36ccbe258cb41d8335d803e8f758fbb8f997a6ac6deb209c6f809c764","hash":"7ee9eab36ccbe258cb41d8335d803e8f758fbb8f997a6ac6deb209c6f809c764","version":1,"size":258,"vsize":258,"locktime":0,"vin":[{"sequence":4294967295,"txid":"350f8d1ee8309574f84111fc50c9dada7db759018bf84b104b27b317db42a74b","vout":1,"scriptSig":{"asm":"30450221009051cb1ddae7d7c25803592e34e875e0b3e87521b6e1db2fe7297329a6618177022058a864cad931fd24fe2391177782f81779956d00589bb72da8811714960612ca[ALL] 04523e52217a59ab0099eb596a050825d828e88fa505b6db62a36c60b2c8143964427d7e3d234dec9bdca115baa21607c15fcb99acf30a926282057a5d0167d266","hex":"4830450221009051cb1ddae7d7c25803592e34e875e0b3e87521b6e1db2fe7297329a6618177022058a864cad931fd24fe2391177782f81779956d00589bb72da8811714960612ca014104523e52217a59ab0099eb596a050825d828e88fa505b6db62a36c60b2c8143964427d7e3d234dec9bdca115baa21607c15fcb99acf30a926282057a5d0167d266"}}],"vout":[{"value":23.64,"n":0,"scriptPubKey":{"asm":"OP_DUP OP_HASH160 11c6c8faa2727849dcad0eb654942423446ed3e9 OP_EQUALVERIFY OP_CHECKSIG","hex":"76a91411c6c8faa2727849dcad0eb654942423446ed3e988ac","reqSigs":1,"type":"pubkeyhash","addresses":["12czd6EWXZVfAX46bkx1y15DioWTeCS7qx"]}},{"value":3.96,"n":1,"scriptPubKey":{"asm":"OP_DUP OP_HASH160 1d8a220764c03e82813a5e765a7c191d294d6316 OP_EQUALVERIFY OP_CHECKSIG","hex":"76a9141d8a220764c03e82813a5e765a7c191d294d631688ac","reqSigs":1,"type":"pubkeyhash","addresses":["13hC5D1KTqBUXT4SVTh9jJJHTU7Ap36JNe"]}}],"hex":"01000000014ba742db17b3274b104bf88b0159b77ddadac950fc1141f8749530e81e8d0f35010000008b4830450221009051cb1ddae7d7c25803592e34e875e0b3e87521b6e1db2fe7297329a6618177022058a864cad931fd24fe2391177782f81779956d00589bb72da8811714960612ca014104523e52217a59ab0099eb596a050825d828e88fa505b6db62a36c60b2c8143964427d7e3d234dec9bdca115baa21607c15fcb99acf30a926282057a5d0167d266ffffffff0200c7e78c000000001976a91411c6c8faa2727849dcad0eb654942423446ed3e988ac007b9a17000000001976a9141d8a220764c03e82813a5e765a7c191d294d631688ac00000000"}