{"txid":"84775cd3132bc4320fe608a2a0346f4127b5947222c1f6928fdf634f52b90205","hash":"84775cd3132bc4320fe608a2a0346f4127b5947222c1f6928fdf634f52b90205","version":1,"size":258,"vsize":258,"locktime":0,"vin":[{"sequence":4294967295,"txid":"3d15d9f9ecdc1f8f87e17cc6c0cb71f60c18a601cb4755db3865348d41bd0ad0","vout":1,"scriptSig":{"asm":"3045022100c8a6efb3b282e9b2ff29f1b7c613d845d1fb9d7c974b3628be347d2c992c278802201964503ed84756f0ecac0653ebabc20972b587abfca3304c6f5182f63e4ae3d3[ALL] 04e9014d30ad912e87319656bfc62a89a9d2ed0154f71ff6f9e1ff56d3a9cdcd20c587c5bf6d81aa615d1d1cfb6817d8a474c93003d5400fa6bbf8ba900a337f63","hex":"483045022100c8a6efb3b282e9b2ff29f1b7c613d845d1fb9d7c974b3628be347d2c992c278802201964503ed84756f0ecac0653ebabc20972b587abfca3304c6f5182f63e4ae3d3014104e9014d30ad912e87319656bfc62a89a9d2ed0154f71ff6f9e1ff56d3a9cdcd20c587c5bf6d81aa615d1d1cfb6817d8a474c93003d5400fa6bbf8ba900a337f63"}}],"vout":[{"value":39.48,"n":0,"scriptPubKey":{"asm":"OP_DUP OP_HASH160 4fb88ca500ad1d34e50fcca27253135e138911ef OP_EQUALVERIFY OP_CHECKSIG","hex":"76a9144fb88ca500ad1d34e50fcca27253135e138911ef88ac","reqSigs":1,"type":"pubkeyhash","addresses":["18GXTsXk9oBBfMFKrjwk6N2tztSPmGXSvR"]}},{"value":5.02,"n":1,"scriptPubKey":{"asm":"OP_DUP OP_HASH160 1d8a220764c03e82813a5e765a7c191d294d6316 OP_EQUALVERIFY OP_CHECKSIG","hex":"76a9141d8a220764c03e82813a5e765a7c191d294d631688ac","reqSigs":1,"type":"pubkeyhash","addresses":["13hC5D1KTqBUXT4SVTh9jJJHTU7Ap36JNe"]}}],"hex":"0100000001d00abd418d346538db5547cb01a6180cf671cbc0c67ce1878f1fdcecf9d9153d010000008b483045022100c8a6efb3b282e9b2ff29f1b7c613d845d1fb9d7c974b3628be347d2c992c278802201964503ed84756f0ecac0653ebabc20972b587abfca3304c6f5182f63e4ae3d3014104e9014d30ad912e87319656bfc62a89a9d2ed0154f71ff6f9e1ff56d3a9cdcd20c587c5bf6d81aa615d1d1cfb6817d8a474c93003d5400fa6bbf8ba900a337f63ffffffff0200b351eb000000001976a9144fb88ca500ad1d34e50fcca27253135e138911ef88ac80e9eb1d000000001976a9141d8a220764c03e82813a5e765a7c191d294d631688ac00000000"}