{"txid":"8d111ebc343fd190a22954f1cc03a536ca138d2b38052ac42a9e41edc2ad091d","hash":"8d111ebc343fd190a22954f1cc03a536ca138d2b38052ac42a9e41edc2ad091d","version":1,"size":257,"vsize":257,"locktime":0,"vin":[{"sequence":4294967295,"txid":"d70703cb4239690e92da9ecac37404c90f2e7390b00bd06170cae8973d0a02bc","vout":1,"scriptSig":{"asm":"30440220115baf6680e21557f8a7e41873c3a79ab1a13918dd4e23d767e99a85eb7f9318022044df54b5e19a5c3fcad02b0c3a0ad8f04e1edf19e5d5a3950387583690c510bc[ALL] 04a24b154ff6d8efcf50179fe64ff65eafec491d5c8cf80401297d5cc0f5c3c97488f591cd87af3101f5a9091f0053efa489de68f8c348687ea1fb14289834e82b","hex":"4730440220115baf6680e21557f8a7e41873c3a79ab1a13918dd4e23d767e99a85eb7f9318022044df54b5e19a5c3fcad02b0c3a0ad8f04e1edf19e5d5a3950387583690c510bc014104a24b154ff6d8efcf50179fe64ff65eafec491d5c8cf80401297d5cc0f5c3c97488f591cd87af3101f5a9091f0053efa489de68f8c348687ea1fb14289834e82b"}}],"vout":[{"value":5.07,"n":0,"scriptPubKey":{"asm":"OP_DUP OP_HASH160 1d8a220764c03e82813a5e765a7c191d294d6316 OP_EQUALVERIFY OP_CHECKSIG","hex":"76a9141d8a220764c03e82813a5e765a7c191d294d631688ac","reqSigs":1,"type":"pubkeyhash","addresses":["13hC5D1KTqBUXT4SVTh9jJJHTU7Ap36JNe"]}},{"value":29.71,"n":1,"scriptPubKey":{"asm":"OP_DUP OP_HASH160 c34c3eb56ed381818151c1bcc47b3337c5b1c46a OP_EQUALVERIFY OP_CHECKSIG","hex":"76a914c34c3eb56ed381818151c1bcc47b3337c5b1c46a88ac","reqSigs":1,"type":"pubkeyhash","addresses":["1Joe6zxo1j7opDbtb6nCTei9ZxPvhbAemW"]}}],"hex":"0100000001bc020a3d97e8ca7061d00bb090732e0fc90474c3ca9eda920e693942cb0307d7010000008a4730440220115baf6680e21557f8a7e41873c3a79ab1a13918dd4e23d767e99a85eb7f9318022044df54b5e19a5c3fcad02b0c3a0ad8f04e1edf19e5d5a3950387583690c510bc014104a24b154ff6d8efcf50179fe64ff65eafec491d5c8cf80401297d5cc0f5c3c97488f591cd87af3101f5a9091f0053efa489de68f8c348687ea1fb14289834e82bffffffff02c034381e000000001976a9141d8a220764c03e82813a5e765a7c191d294d631688acc0dc15b1000000001976a914c34c3eb56ed381818151c1bcc47b3337c5b1c46a88ac00000000"}