{"txid":"9d81e61daf77842dff9e070db65f0ae50cdcc7f7ec120520db7218227879ad04","hash":"9d81e61daf77842dff9e070db65f0ae50cdcc7f7ec120520db7218227879ad04","version":1,"size":257,"vsize":257,"locktime":0,"vin":[{"sequence":4294967295,"txid":"1947fda7bb454aaa96390f9fd03d1f132eed6e85dec91cb26f2b6a5ff6b35529","vout":0,"scriptSig":{"asm":"304402202013573b62e6d7e82329756f06b339cc58cfde5410038f37aec325c33568712f02206cd94e09edce59304fbd24e08cbb2841e65d8e4caf289b1f4b83b5b499d17abb[ALL] 04fb1a1126200de2cba940ece408522060c062dc8c4c8819f7261f83063c60b90abd6a4a4fbaabad71ca7af35ea81a643bb18721ac0aa89bc93d20575bc479a9e3","hex":"47304402202013573b62e6d7e82329756f06b339cc58cfde5410038f37aec325c33568712f02206cd94e09edce59304fbd24e08cbb2841e65d8e4caf289b1f4b83b5b499d17abb014104fb1a1126200de2cba940ece408522060c062dc8c4c8819f7261f83063c60b90abd6a4a4fbaabad71ca7af35ea81a643bb18721ac0aa89bc93d20575bc479a9e3"}}],"vout":[{"value":1183.47666612,"n":0,"scriptPubKey":{"asm":"OP_DUP OP_HASH160 7310e8ff9c8d89b5b973b2395c640d2d57675b6d OP_EQUALVERIFY OP_CHECKSIG","hex":"76a9147310e8ff9c8d89b5b973b2395c640d2d57675b6d88ac","reqSigs":1,"type":"pubkeyhash","addresses":["1BVQxzuRFdwvsoiaeBndT3dirvVgc5pHjA"]}},{"value":6.8,"n":1,"scriptPubKey":{"asm":"OP_DUP OP_HASH160 46e77b6fabb40fc059a1f1226ea13a51296776ad OP_EQUALVERIFY OP_CHECKSIG","hex":"76a91446e77b6fabb40fc059a1f1226ea13a51296776ad88ac","reqSigs":1,"type":"pubkeyhash","addresses":["17Tuc6Jew5Pk7nsn3xkFPtaerQSf1TVZTP"]}}],"hex":"01000000012955b3f65f6a2b6fb21cc9de856eed2e131f3dd09f0f3996aa4a45bba7fd4719000000008a47304402202013573b62e6d7e82329756f06b339cc58cfde5410038f37aec325c33568712f02206cd94e09edce59304fbd24e08cbb2841e65d8e4caf289b1f4b83b5b499d17abb014104fb1a1126200de2cba940ece408522060c062dc8c4c8819f7261f83063c60b90abd6a4a4fbaabad71ca7af35ea81a643bb18721ac0aa89bc93d20575bc479a9e3ffffffff02b414128e1b0000001976a9147310e8ff9c8d89b5b973b2395c640d2d57675b6d88ac00fa8728000000001976a91446e77b6fabb40fc059a1f1226ea13a51296776ad88ac00000000"}