{"txid":"a22b017f7db305032bb41de3390799d8febc012cc8e4d145e1f42e4cc1d5ede9","hash":"a22b017f7db305032bb41de3390799d8febc012cc8e4d145e1f42e4cc1d5ede9","version":1,"size":259,"vsize":259,"locktime":0,"vin":[{"sequence":4294967295,"txid":"87f221f65c5b3b088afa28763b5fcf946958b4af6c6739398db431bca18ec887","vout":0,"scriptSig":{"asm":"3046022100d5dc97133388e94c9413770de63d2d9334d3535f8a776a9a01de6de9d300fd38022100cebaa4ef6843a4ccbb49989f9f189bd0093e0014084d45d7205e4059dfcea151[ALL] 04b56066252ed0449938f029e1d1ba5675235412c084d784d14c33d0603133d39996458753b845e36bd83ef4b64d35e5e9ea98362efa71e1bba4d2b53bfbbeede5","hex":"493046022100d5dc97133388e94c9413770de63d2d9334d3535f8a776a9a01de6de9d300fd38022100cebaa4ef6843a4ccbb49989f9f189bd0093e0014084d45d7205e4059dfcea151014104b56066252ed0449938f029e1d1ba5675235412c084d784d14c33d0603133d39996458753b845e36bd83ef4b64d35e5e9ea98362efa71e1bba4d2b53bfbbeede5"}}],"vout":[{"value":18.2,"n":0,"scriptPubKey":{"asm":"OP_DUP OP_HASH160 ebc2edb26543e1b2aaebb69007770c4e7bdaa276 OP_EQUALVERIFY OP_CHECKSIG","hex":"76a914ebc2edb26543e1b2aaebb69007770c4e7bdaa27688ac","reqSigs":1,"type":"pubkeyhash","addresses":["1NVbJx6ofrc7kqM9s1Y8BE7UF5pUdBpT6X"]}},{"value":0.05,"n":1,"scriptPubKey":{"asm":"OP_DUP OP_HASH160 430b4564d1d139f9f05843d9bc151b827c4e0479 OP_EQUALVERIFY OP_CHECKSIG","hex":"76a914430b4564d1d139f9f05843d9bc151b827c4e047988ac","reqSigs":1,"type":"pubkeyhash","addresses":["177VmyrgTzaPhenR83cKNsbpiR5hrEDaJG"]}}],"hex":"010000000187c88ea1bc31b48d3939676cafb4586994cf5f3b7628fa8a083b5b5cf621f287000000008c493046022100d5dc97133388e94c9413770de63d2d9334d3535f8a776a9a01de6de9d300fd38022100cebaa4ef6843a4ccbb49989f9f189bd0093e0014084d45d7205e4059dfcea151014104b56066252ed0449938f029e1d1ba5675235412c084d784d14c33d0603133d39996458753b845e36bd83ef4b64d35e5e9ea98362efa71e1bba4d2b53bfbbeede5ffffffff0200ff7a6c000000001976a914ebc2edb26543e1b2aaebb69007770c4e7bdaa27688ac404b4c00000000001976a914430b4564d1d139f9f05843d9bc151b827c4e047988ac00000000"}