{"txid":"a3b84021a87cdd1ce5c4d7d0552e96440a2037065e78e665f134d247988030be","hash":"a3b84021a87cdd1ce5c4d7d0552e96440a2037065e78e665f134d247988030be","version":1,"size":258,"vsize":258,"locktime":0,"vin":[{"sequence":4294967295,"txid":"c08f8fc7b8c2cb90ea782c9660e60036f38eaeb4436a2665082a0fdc44abc39a","vout":0,"scriptSig":{"asm":"30450221009f90df3e86172bafc134889a9692759f0dffc784a1c25ab984246fb77c21a06b02204fb35d5585c929aa302a6b8a99478b06d9229bc42bada4a29326ab14686306f2[ALL] 0488a158d361b31bb7d3164d369b3f86105a37194575ccddd7f0aeb9e0af25bbdd3c8ef19a4d841d15e1f67c688547c55e68b943237fd63ab13247d39c05cbfb87","hex":"4830450221009f90df3e86172bafc134889a9692759f0dffc784a1c25ab984246fb77c21a06b02204fb35d5585c929aa302a6b8a99478b06d9229bc42bada4a29326ab14686306f201410488a158d361b31bb7d3164d369b3f86105a37194575ccddd7f0aeb9e0af25bbdd3c8ef19a4d841d15e1f67c688547c55e68b943237fd63ab13247d39c05cbfb87"}}],"vout":[{"value":1.0,"n":0,"scriptPubKey":{"asm":"OP_DUP OP_HASH160 9c4cfa708db0586a374d54c10e22ba6c9a789c9b OP_EQUALVERIFY OP_CHECKSIG","hex":"76a9149c4cfa708db0586a374d54c10e22ba6c9a789c9b88ac","reqSigs":1,"type":"pubkeyhash","addresses":["1FFSdUGkujCpiKyQxQFqi4ebR6VZYfYk4Q"]}},{"value":0.01,"n":1,"scriptPubKey":{"asm":"OP_DUP OP_HASH160 4c75afb14aa0eaf2e6159df33e0e6186237b0c0f OP_EQUALVERIFY OP_CHECKSIG","hex":"76a9144c75afb14aa0eaf2e6159df33e0e6186237b0c0f88ac","reqSigs":1,"type":"pubkeyhash","addresses":["17yHLZrmdsPkXjgdBExT9mRmGhMDJru78U"]}}],"hex":"01000000019ac3ab44dc0f2a0865266a43b4ae8ef33600e660962c78ea90cbc2b8c78f8fc0000000008b4830450221009f90df3e86172bafc134889a9692759f0dffc784a1c25ab984246fb77c21a06b02204fb35d5585c929aa302a6b8a99478b06d9229bc42bada4a29326ab14686306f201410488a158d361b31bb7d3164d369b3f86105a37194575ccddd7f0aeb9e0af25bbdd3c8ef19a4d841d15e1f67c688547c55e68b943237fd63ab13247d39c05cbfb87ffffffff0200e1f505000000001976a9149c4cfa708db0586a374d54c10e22ba6c9a789c9b88ac40420f00000000001976a9144c75afb14aa0eaf2e6159df33e0e6186237b0c0f88ac00000000"}