{"txid":"a6c8fcaf347afe3c25f04f105074850958cac6241d5bb6a131507f6a0b213311","hash":"a6c8fcaf347afe3c25f04f105074850958cac6241d5bb6a131507f6a0b213311","version":1,"size":258,"vsize":258,"locktime":0,"vin":[{"sequence":4294967295,"txid":"773da07bd5254ae8a4ae6c46fde9e1cd386c81ea52b871df9bacd39da2d1b7a2","vout":0,"scriptSig":{"asm":"30450221008256bc444ab7875c15035d251dc5589e888108aaa19e238c6c31a2c0fc687f9402202b92b387e19c01148705128d78217f909f36571751d45e7a3341d474e74dbfdd[ALL] 04d897880e8dd4112ef62771e51f7634c4904d7253e5e1b23e2fcd7d24e86b78faa58b3869178579ce3b68469dfdceddfe6df00a21c189be57ad083ae585476413","hex":"4830450221008256bc444ab7875c15035d251dc5589e888108aaa19e238c6c31a2c0fc687f9402202b92b387e19c01148705128d78217f909f36571751d45e7a3341d474e74dbfdd014104d897880e8dd4112ef62771e51f7634c4904d7253e5e1b23e2fcd7d24e86b78faa58b3869178579ce3b68469dfdceddfe6df00a21c189be57ad083ae585476413"}}],"vout":[{"value":48.98,"n":0,"scriptPubKey":{"asm":"OP_DUP OP_HASH160 4778beea4afd6a4963f7ed52e2a51f776c3391ab OP_EQUALVERIFY OP_CHECKSIG","hex":"76a9144778beea4afd6a4963f7ed52e2a51f776c3391ab88ac","reqSigs":1,"type":"pubkeyhash","addresses":["17WudBbLAePU1FGULaii9TUTAgCYxrXKpG"]}},{"value":1.0,"n":1,"scriptPubKey":{"asm":"OP_DUP OP_HASH160 f56ffd071612ec48b37afca18f13fb2ae30580d0 OP_EQUALVERIFY OP_CHECKSIG","hex":"76a914f56ffd071612ec48b37afca18f13fb2ae30580d088ac","reqSigs":1,"type":"pubkeyhash","addresses":["1PNki67ZmFr9YBTvFJp6x7o4R6TB4KZdWi"]}}],"hex":"0100000001a2b7d1a29dd3ac9bdf71b852ea816c38cde1e9fd466caea4e84a25d57ba03d77000000008b4830450221008256bc444ab7875c15035d251dc5589e888108aaa19e238c6c31a2c0fc687f9402202b92b387e19c01148705128d78217f909f36571751d45e7a3341d474e74dbfdd014104d897880e8dd4112ef62771e51f7634c4904d7253e5e1b23e2fcd7d24e86b78faa58b3869178579ce3b68469dfdceddfe6df00a21c189be57ad083ae585476413ffffffff02808cf123010000001976a9144778beea4afd6a4963f7ed52e2a51f776c3391ab88ac00e1f505000000001976a914f56ffd071612ec48b37afca18f13fb2ae30580d088ac00000000"}