{"txid":"ad70c19ecb2adcb996b6fbed110c5da765e6328710c40de759fc3aa1c22d890e","hash":"ad70c19ecb2adcb996b6fbed110c5da765e6328710c40de759fc3aa1c22d890e","version":1,"size":192,"vsize":192,"locktime":0,"vin":[{"sequence":4294967295,"txid":"22ac8e26edb3a130e2e05b409d5322835b5633bcfd31626eea10eca1a87c08d9","vout":0,"scriptSig":{"asm":"3045022065ed176fe096bd672ef62c7e0f03a128990e18bc8d8d172585032dd15632114902210080e22134d688bbb0777e5ab66876297a65b43ae4e1d4a48afbb2ba1f4115120a[ALL]","hex":"483045022065ed176fe096bd672ef62c7e0f03a128990e18bc8d8d172585032dd15632114902210080e22134d688bbb0777e5ab66876297a65b43ae4e1d4a48afbb2ba1f4115120a01"}}],"vout":[{"value":12.32,"n":0,"scriptPubKey":{"asm":"OP_DUP OP_HASH160 173634ce951eb734e817dc49770bd2637d18e897 OP_EQUALVERIFY OP_CHECKSIG","hex":"76a914173634ce951eb734e817dc49770bd2637d18e89788ac","reqSigs":1,"type":"pubkeyhash","addresses":["137jUjMcwJDbW6LXjG9Zbg42YypJyd6k9s"]}},{"value":37.68,"n":1,"scriptPubKey":{"asm":"OP_DUP OP_HASH160 9d21cdc4ef6ecbf3a26eee92f92351a0210a826b OP_EQUALVERIFY OP_CHECKSIG","hex":"76a9149d21cdc4ef6ecbf3a26eee92f92351a0210a826b88ac","reqSigs":1,"type":"pubkeyhash","addresses":["1FKqar3fdKEhsDR4qyA2vWHHLHiuehMZRj"]}}],"hex":"0100000001d9087ca8a1ec10ea6e6231fdbc33565b8322539d405be0e230a1b3ed268eac220000000049483045022065ed176fe096bd672ef62c7e0f03a128990e18bc8d8d172585032dd15632114902210080e22134d688bbb0777e5ab66876297a65b43ae4e1d4a48afbb2ba1f4115120a01ffffffff0200d46e49000000001976a914173634ce951eb734e817dc49770bd2637d18e89788ac001e97e0000000001976a9149d21cdc4ef6ecbf3a26eee92f92351a0210a826b88ac00000000"}