{"txid":"b4a406b3dfd75b85de4189ea585ee8eead1e40f6515343ce1fe1a43a813b2596","hash":"b4a406b3dfd75b85de4189ea585ee8eead1e40f6515343ce1fe1a43a813b2596","version":1,"size":258,"vsize":258,"locktime":0,"vin":[{"sequence":4294967295,"txid":"16f52329816b76f7918eaff6afb29b1edd451647884301859517113dbc251283","vout":1,"scriptSig":{"asm":"3045022025122119e66d2273aa90b4a2def0ab94b3b4cce6526e2cdde1619fe15e54ca6b022100e5cdbd937eac91bddcb17898f87202e9972d04896832e4a55221ebc8c0500247[ALL] 04e90959b257be759d93f6da60a93ac5b75d037cff93383034f6a4f77b9e6a0aa11c4cf4cfef0505a71317a39e576ff8513bfc3010673d19da8ae93a1baf72857a","hex":"483045022025122119e66d2273aa90b4a2def0ab94b3b4cce6526e2cdde1619fe15e54ca6b022100e5cdbd937eac91bddcb17898f87202e9972d04896832e4a55221ebc8c0500247014104e90959b257be759d93f6da60a93ac5b75d037cff93383034f6a4f77b9e6a0aa11c4cf4cfef0505a71317a39e576ff8513bfc3010673d19da8ae93a1baf72857a"}}],"vout":[{"value":1.95,"n":0,"scriptPubKey":{"asm":"OP_DUP OP_HASH160 e737f289b48f992f68dfde614816399e878ab4c9 OP_EQUALVERIFY OP_CHECKSIG","hex":"76a914e737f289b48f992f68dfde614816399e878ab4c988ac","reqSigs":1,"type":"pubkeyhash","addresses":["1N5a7cDtmjUJnfUUaf8wC9GeNSad3R8oPS"]}},{"value":1.23,"n":1,"scriptPubKey":{"asm":"OP_DUP OP_HASH160 f56ffd071612ec48b37afca18f13fb2ae30580d0 OP_EQUALVERIFY OP_CHECKSIG","hex":"76a914f56ffd071612ec48b37afca18f13fb2ae30580d088ac","reqSigs":1,"type":"pubkeyhash","addresses":["1PNki67ZmFr9YBTvFJp6x7o4R6TB4KZdWi"]}}],"hex":"0100000001831225bc3d11179585014388471645dd1e9bb2aff6af8e91f7766b812923f516010000008b483045022025122119e66d2273aa90b4a2def0ab94b3b4cce6526e2cdde1619fe15e54ca6b022100e5cdbd937eac91bddcb17898f87202e9972d04896832e4a55221ebc8c0500247014104e90959b257be759d93f6da60a93ac5b75d037cff93383034f6a4f77b9e6a0aa11c4cf4cfef0505a71317a39e576ff8513bfc3010673d19da8ae93a1baf72857affffffff02c0769f0b000000001976a914e737f289b48f992f68dfde614816399e878ab4c988acc0d45407000000001976a914f56ffd071612ec48b37afca18f13fb2ae30580d088ac00000000"}