{"txid":"ca13add51bc40fc14cf82365f3ef48773b86f7d02de967e788f6247b30214bf1","hash":"ca13add51bc40fc14cf82365f3ef48773b86f7d02de967e788f6247b30214bf1","version":1,"size":258,"vsize":258,"locktime":0,"vin":[{"sequence":4294967295,"txid":"734b580eb97ddc37c9682474d3759d4c6ac373aa8f216b751c8590f00ff31c94","vout":0,"scriptSig":{"asm":"3045022067e05a0fd2dd816160ae0b728aef32399a21159162cb26c0d50f3e5b2eb1a85f0221009d3ed4a2740414a152a6fb7d21268f2754e7c145d497abc09db0500a2b80640f[ALL] 041fbf00ab9b62d1edfb248f70f0d7ef74ddb94aa2dcbd624c658fc324e9fe37a19362a153c14d9adb9f8f2963d14bbe571354317dcf27ea07b6cd54f5224c1fe8","hex":"483045022067e05a0fd2dd816160ae0b728aef32399a21159162cb26c0d50f3e5b2eb1a85f0221009d3ed4a2740414a152a6fb7d21268f2754e7c145d497abc09db0500a2b80640f0141041fbf00ab9b62d1edfb248f70f0d7ef74ddb94aa2dcbd624c658fc324e9fe37a19362a153c14d9adb9f8f2963d14bbe571354317dcf27ea07b6cd54f5224c1fe8"}}],"vout":[{"value":1720.43,"n":0,"scriptPubKey":{"asm":"OP_DUP OP_HASH160 c1d6c89dd73e8bcfa4a84cf5bf28f2c0ecd8c884 OP_EQUALVERIFY OP_CHECKSIG","hex":"76a914c1d6c89dd73e8bcfa4a84cf5bf28f2c0ecd8c88488ac","reqSigs":1,"type":"pubkeyhash","addresses":["1JfviTJXaAJsJ99Fm3uuaPFXDQBp1qhRit"]}},{"value":1.08,"n":1,"scriptPubKey":{"asm":"OP_DUP OP_HASH160 1d8a220764c03e82813a5e765a7c191d294d6316 OP_EQUALVERIFY OP_CHECKSIG","hex":"76a9141d8a220764c03e82813a5e765a7c191d294d631688ac","reqSigs":1,"type":"pubkeyhash","addresses":["13hC5D1KTqBUXT4SVTh9jJJHTU7Ap36JNe"]}}],"hex":"0100000001941cf30ff090851c756b218faa73c36a4c9d75d3742468c937dc7db90e584b73000000008b483045022067e05a0fd2dd816160ae0b728aef32399a21159162cb26c0d50f3e5b2eb1a85f0221009d3ed4a2740414a152a6fb7d21268f2754e7c145d497abc09db0500a2b80640f0141041fbf00ab9b62d1edfb248f70f0d7ef74ddb94aa2dcbd624c658fc324e9fe37a19362a153c14d9adb9f8f2963d14bbe571354317dcf27ea07b6cd54f5224c1fe8ffffffff02c0d88f0e280000001976a914c1d6c89dd73e8bcfa4a84cf5bf28f2c0ecd8c88488ac00f36f06000000001976a9141d8a220764c03e82813a5e765a7c191d294d631688ac00000000"}