{"txid":"db492e64675fa5915b83003c86422cb3fdb932006d13552ffa169af29063596e","hash":"db492e64675fa5915b83003c86422cb3fdb932006d13552ffa169af29063596e","version":1,"size":259,"vsize":259,"locktime":0,"vin":[{"sequence":4294967295,"txid":"b5c4dca07020dc4f7a440067b94fcbd9bcdf53a20b49276235df80ab591a11e6","vout":0,"scriptSig":{"asm":"3046022100909f675cdf3bb294c9669228b8caba00a016c627f374bc5db2026407f4f95552022100ba4fb5eb9b18d2a4ff49647a142cc2e8add55209c3efb41beb6ce38f7b212cbd[ALL] 045b6397cab93b03a7690cefd4c062a5624231273ad17ac3dbc8e8d0af0285deec04a792918080169f6a87041c508a6020c8ea5b240f0cd34a349450c223b314c7","hex":"493046022100909f675cdf3bb294c9669228b8caba00a016c627f374bc5db2026407f4f95552022100ba4fb5eb9b18d2a4ff49647a142cc2e8add55209c3efb41beb6ce38f7b212cbd0141045b6397cab93b03a7690cefd4c062a5624231273ad17ac3dbc8e8d0af0285deec04a792918080169f6a87041c508a6020c8ea5b240f0cd34a349450c223b314c7"}}],"vout":[{"value":9.26,"n":0,"scriptPubKey":{"asm":"OP_DUP OP_HASH160 a40803f73c87741e37cae32fa6282b8f7bb638a0 OP_EQUALVERIFY OP_CHECKSIG","hex":"76a914a40803f73c87741e37cae32fa6282b8f7bb638a088ac","reqSigs":1,"type":"pubkeyhash","addresses":["1FxKRPQU7uU9tLMdosFn4VwE7NDgChBy7S"]}},{"value":1.1,"n":1,"scriptPubKey":{"asm":"OP_DUP OP_HASH160 f56ffd071612ec48b37afca18f13fb2ae30580d0 OP_EQUALVERIFY OP_CHECKSIG","hex":"76a914f56ffd071612ec48b37afca18f13fb2ae30580d088ac","reqSigs":1,"type":"pubkeyhash","addresses":["1PNki67ZmFr9YBTvFJp6x7o4R6TB4KZdWi"]}}],"hex":"0100000001e6111a59ab80df356227490ba253dfbcd9cb4fb96700447a4fdc2070a0dcc4b5000000008c493046022100909f675cdf3bb294c9669228b8caba00a016c627f374bc5db2026407f4f95552022100ba4fb5eb9b18d2a4ff49647a142cc2e8add55209c3efb41beb6ce38f7b212cbd0141045b6397cab93b03a7690cefd4c062a5624231273ad17ac3dbc8e8d0af0285deec04a792918080169f6a87041c508a6020c8ea5b240f0cd34a349450c223b314c7ffffffff0280a33137000000001976a914a40803f73c87741e37cae32fa6282b8f7bb638a088ac80778e06000000001976a914f56ffd071612ec48b37afca18f13fb2ae30580d088ac00000000"}