{"txid":"e0603124f13774bf2003c418a1e2922f978c9b7d996a89824e018d130b8f678e","hash":"e0603124f13774bf2003c418a1e2922f978c9b7d996a89824e018d130b8f678e","version":1,"size":259,"vsize":259,"locktime":0,"vin":[{"sequence":4294967295,"txid":"ce08abbae96fa2868043704783be26d824d62c29985d28dc4f7f821d81cc37ac","vout":0,"scriptSig":{"asm":"3046022100919f6f89f4dd13319323f23cba43f7989e40b7e85d85b88c52bd97ae9e7b3eb5022100f229e13c927334b10108c3d89af1c887697db8de72a9d307a557e4468267c747[ALL] 04e1fe110d45934f1225b3fc9dc2dbd33b5d9cb6626ffad96de81b8f31bbb41c669f1adc5476f46e45b050aa0714fa5f2e04ad238d7a756a3f30ea0489a4e0cbae","hex":"493046022100919f6f89f4dd13319323f23cba43f7989e40b7e85d85b88c52bd97ae9e7b3eb5022100f229e13c927334b10108c3d89af1c887697db8de72a9d307a557e4468267c747014104e1fe110d45934f1225b3fc9dc2dbd33b5d9cb6626ffad96de81b8f31bbb41c669f1adc5476f46e45b050aa0714fa5f2e04ad238d7a756a3f30ea0489a4e0cbae"}}],"vout":[{"value":1.05,"n":0,"scriptPubKey":{"asm":"OP_DUP OP_HASH160 f56ffd071612ec48b37afca18f13fb2ae30580d0 OP_EQUALVERIFY OP_CHECKSIG","hex":"76a914f56ffd071612ec48b37afca18f13fb2ae30580d088ac","reqSigs":1,"type":"pubkeyhash","addresses":["1PNki67ZmFr9YBTvFJp6x7o4R6TB4KZdWi"]}},{"value":41.85,"n":1,"scriptPubKey":{"asm":"OP_DUP OP_HASH160 c43bfbc6bf0df486a2db6f61f6c855882d0e1820 OP_EQUALVERIFY OP_CHECKSIG","hex":"76a914c43bfbc6bf0df486a2db6f61f6c855882d0e182088ac","reqSigs":1,"type":"pubkeyhash","addresses":["1JtbJKsza56KR6hsVxc3UcS1K3q6ZxjTEL"]}}],"hex":"0100000001ac37cc811d827f4fdc285d98292cd624d826be834770438086a26fe9baab08ce000000008c493046022100919f6f89f4dd13319323f23cba43f7989e40b7e85d85b88c52bd97ae9e7b3eb5022100f229e13c927334b10108c3d89af1c887697db8de72a9d307a557e4468267c747014104e1fe110d45934f1225b3fc9dc2dbd33b5d9cb6626ffad96de81b8f31bbb41c669f1adc5476f46e45b050aa0714fa5f2e04ad238d7a756a3f30ea0489a4e0cbaeffffffff02402c4206000000001976a914f56ffd071612ec48b37afca18f13fb2ae30580d088ac400872f9000000001976a914c43bfbc6bf0df486a2db6f61f6c855882d0e182088ac00000000"}