{"txid":"e2675471a88865cf13c3ef5d94f22c8b9700b8085e173ab39872339f242944d1","hash":"e2675471a88865cf13c3ef5d94f22c8b9700b8085e173ab39872339f242944d1","version":1,"size":258,"vsize":258,"locktime":0,"vin":[{"sequence":4294967295,"txid":"7f1d8fa1ca2ec9c4504b4d4d37ca33e11a81dfd5b982ebbf9c5cc1a6ed131758","vout":0,"scriptSig":{"asm":"304502204243494b9344f4a70c5479b92d5faa36c1ac70cbad8e8f0a485dbb00f4360c88022100b0fd44c1c215449cf0ce7a3c647bfc5302a01102b463d3a601c2db506751e79c[ALL] 047fb5ec6082682c2331e98f3244fa223ecd9a1ce5d78f81c812b6f90f1bca7dd9f01336045729245623fdd8f79affdefe48e1beea9fa0102cedc2fd80257d73ec","hex":"48304502204243494b9344f4a70c5479b92d5faa36c1ac70cbad8e8f0a485dbb00f4360c88022100b0fd44c1c215449cf0ce7a3c647bfc5302a01102b463d3a601c2db506751e79c0141047fb5ec6082682c2331e98f3244fa223ecd9a1ce5d78f81c812b6f90f1bca7dd9f01336045729245623fdd8f79affdefe48e1beea9fa0102cedc2fd80257d73ec"}}],"vout":[{"value":5.02,"n":0,"scriptPubKey":{"asm":"OP_DUP OP_HASH160 1d8a220764c03e82813a5e765a7c191d294d6316 OP_EQUALVERIFY OP_CHECKSIG","hex":"76a9141d8a220764c03e82813a5e765a7c191d294d631688ac","reqSigs":1,"type":"pubkeyhash","addresses":["13hC5D1KTqBUXT4SVTh9jJJHTU7Ap36JNe"]}},{"value":41.87,"n":1,"scriptPubKey":{"asm":"OP_DUP OP_HASH160 78af402561e4522e27864e5c8cb246ee1b94c3cb OP_EQUALVERIFY OP_CHECKSIG","hex":"76a91478af402561e4522e27864e5c8cb246ee1b94c3cb88ac","reqSigs":1,"type":"pubkeyhash","addresses":["1C182eHDpbbfp8TSXxUT4KRfv669hD9hW7"]}}],"hex":"0100000001581713eda6c15c9cbfeb82b9d5df811ae133ca374d4d4b50c4c92ecaa18f1d7f000000008b48304502204243494b9344f4a70c5479b92d5faa36c1ac70cbad8e8f0a485dbb00f4360c88022100b0fd44c1c215449cf0ce7a3c647bfc5302a01102b463d3a601c2db506751e79c0141047fb5ec6082682c2331e98f3244fa223ecd9a1ce5d78f81c812b6f90f1bca7dd9f01336045729245623fdd8f79affdefe48e1beea9fa0102cedc2fd80257d73ecffffffff0280e9eb1d000000001976a9141d8a220764c03e82813a5e765a7c191d294d631688acc08c90f9000000001976a91478af402561e4522e27864e5c8cb246ee1b94c3cb88ac00000000"}