{"txid":"e83a2f58b714a2a5da52dc46230d5696a194c525c809c72986cacae921a81e45","hash":"e83a2f58b714a2a5da52dc46230d5696a194c525c809c72986cacae921a81e45","version":1,"size":258,"vsize":258,"locktime":0,"vin":[{"sequence":4294967295,"txid":"5f6d25d61a2a26ec4540de1373d85c0ffb2af9315527855106081f7362248249","vout":0,"scriptSig":{"asm":"304502202a163bec99c9e01a28ac548df5a3a163a8e56913d5002ec8e2f88c44f9223671022100f131896a48050c9f59403dbe7e89307e0656ec5ffef3ebad267d1f4fe63bf205[ALL] 04d6468dab95e6315e06aa28154fd6675b0fa04f4738802feffa0a6e858564e6017d8d9c63aa4ee6997fe196afed45012e3ea62e10f837a7161766be3890c0aca7","hex":"48304502202a163bec99c9e01a28ac548df5a3a163a8e56913d5002ec8e2f88c44f9223671022100f131896a48050c9f59403dbe7e89307e0656ec5ffef3ebad267d1f4fe63bf205014104d6468dab95e6315e06aa28154fd6675b0fa04f4738802feffa0a6e858564e6017d8d9c63aa4ee6997fe196afed45012e3ea62e10f837a7161766be3890c0aca7"}}],"vout":[{"value":43.8,"n":0,"scriptPubKey":{"asm":"OP_DUP OP_HASH160 d84d4d48d2b11bc6f7ab9a177bfb54e717c54444 OP_EQUALVERIFY OP_CHECKSIG","hex":"76a914d84d4d48d2b11bc6f7ab9a177bfb54e717c5444488ac","reqSigs":1,"type":"pubkeyhash","addresses":["1LihZTyKaR4NV1JjXWx9DuQQX6cK2dQx4f"]}},{"value":5.16,"n":1,"scriptPubKey":{"asm":"OP_DUP OP_HASH160 1d8a220764c03e82813a5e765a7c191d294d6316 OP_EQUALVERIFY OP_CHECKSIG","hex":"76a9141d8a220764c03e82813a5e765a7c191d294d631688ac","reqSigs":1,"type":"pubkeyhash","addresses":["13hC5D1KTqBUXT4SVTh9jJJHTU7Ap36JNe"]}}],"hex":"010000000149822462731f08065185275531f92afb0f5cd87313de4045ec262a1ad6256d5f000000008b48304502202a163bec99c9e01a28ac548df5a3a163a8e56913d5002ec8e2f88c44f9223671022100f131896a48050c9f59403dbe7e89307e0656ec5ffef3ebad267d1f4fe63bf205014104d6468dab95e6315e06aa28154fd6675b0fa04f4738802feffa0a6e858564e6017d8d9c63aa4ee6997fe196afed45012e3ea62e10f837a7161766be3890c0aca7ffffffff02007f1105010000001976a914d84d4d48d2b11bc6f7ab9a177bfb54e717c5444488ac0089c11e000000001976a9141d8a220764c03e82813a5e765a7c191d294d631688ac00000000"}