{"txid":"f40576cc94d77ebfe68eda6812a440878973f20138bfbcf3907576ed0510d558","hash":"f40576cc94d77ebfe68eda6812a440878973f20138bfbcf3907576ed0510d558","version":1,"size":258,"vsize":258,"locktime":0,"vin":[{"sequence":4294967295,"txid":"b16d0657bdf92a04c0e5e6d02fa6ccda553a68f9b2c6fce8308f9033136f7d27","vout":1,"scriptSig":{"asm":"3045022045f80e341e68850c7cbf8af4db3846b0668db3af174f0c5e4099800ddd3af7210221008be70dc7d95038af5ff19913309a7a91dcc667cffb3e632d96c071c01bf10bf4[ALL] 04f077409de0b3e9bd6dc7a77dc9ebf96b7f05a0869e2e89086097545716bd98ae9cbe1b1c72b35adaaf0f3923da259291b7728d6a755c783695fedc2579b12baa","hex":"483045022045f80e341e68850c7cbf8af4db3846b0668db3af174f0c5e4099800ddd3af7210221008be70dc7d95038af5ff19913309a7a91dcc667cffb3e632d96c071c01bf10bf4014104f077409de0b3e9bd6dc7a77dc9ebf96b7f05a0869e2e89086097545716bd98ae9cbe1b1c72b35adaaf0f3923da259291b7728d6a755c783695fedc2579b12baa"}}],"vout":[{"value":1.32,"n":0,"scriptPubKey":{"asm":"OP_DUP OP_HASH160 f56ffd071612ec48b37afca18f13fb2ae30580d0 OP_EQUALVERIFY OP_CHECKSIG","hex":"76a914f56ffd071612ec48b37afca18f13fb2ae30580d088ac","reqSigs":1,"type":"pubkeyhash","addresses":["1PNki67ZmFr9YBTvFJp6x7o4R6TB4KZdWi"]}},{"value":47.26,"n":1,"scriptPubKey":{"asm":"OP_DUP OP_HASH160 ce209f2259ce36aa9b0a40101e1cc171793119da OP_EQUALVERIFY OP_CHECKSIG","hex":"76a914ce209f2259ce36aa9b0a40101e1cc171793119da88ac","reqSigs":1,"type":"pubkeyhash","addresses":["1KnuH7CKjux3BTjmeQmeNsHjiefoxzjQ19"]}}],"hex":"0100000001277d6f1333908f30e8fcc6b2f9683a55dacca62fd0e6e5c0042af9bd57066db1010000008b483045022045f80e341e68850c7cbf8af4db3846b0668db3af174f0c5e4099800ddd3af7210221008be70dc7d95038af5ff19913309a7a91dcc667cffb3e632d96c071c01bf10bf4014104f077409de0b3e9bd6dc7a77dc9ebf96b7f05a0869e2e89086097545716bd98ae9cbe1b1c72b35adaaf0f3923da259291b7728d6a755c783695fedc2579b12baaffffffff020029de07000000001976a914f56ffd071612ec48b37afca18f13fb2ae30580d088ac8009b119010000001976a914ce209f2259ce36aa9b0a40101e1cc171793119da88ac00000000"}