{"txid":"f449b83fdd6a7b7d1905bdf35d53f83f780f2391eed7f62dad0a39e98f93cfb7","hash":"f449b83fdd6a7b7d1905bdf35d53f83f780f2391eed7f62dad0a39e98f93cfb7","version":1,"size":402,"vsize":402,"locktime":0,"vin":[{"sequence":4294967295,"txid":"256e97b7afcb99fd4ff505af2a7c250279e0ca2f3185c9da015314f288ea51bd","vout":1,"scriptSig":{"asm":"3044022064677c1ffa4c4c2f5b8349faf1be4b1e2007e0cc1a11b4893440612d2c1bf0bd02206df358528ff728e2128c2deebb56ee4af186f511e0dffcb10b4c6df07076d705[ALL] 048b6b83acbb5d309e9ecac5538ccfc4d2ccf53ba436b3595fd4f326cd988e21a04a8ba61a2bc48e666b9f11add682dbd52349ff44bc3708400321bbb11402195c","hex":"473044022064677c1ffa4c4c2f5b8349faf1be4b1e2007e0cc1a11b4893440612d2c1bf0bd02206df358528ff728e2128c2deebb56ee4af186f511e0dffcb10b4c6df07076d7050141048b6b83acbb5d309e9ecac5538ccfc4d2ccf53ba436b3595fd4f326cd988e21a04a8ba61a2bc48e666b9f11add682dbd52349ff44bc3708400321bbb11402195c"}},{"sequence":4294967295,"txid":"9f8e4a8ff389c993d9ced7038f3f63416ac1d21ea8f89935dd8d30eac0da25f6","vout":0,"scriptSig":{"asm":"3044022025e91ce53b40e7fba9a18497b21868bf9a862f788fc691872e81e4bc4d51576702204da67c7bcb02b41d1f38d316def27f36568c66f74545f39838ac8a4c550fa3cf[ALL] 04dde6f0b737f3e4d94a987aec5ad502bbfad056f9a420ed2bb3b00ffd587ed73d10d727f6eaf7106b8e254924793a7a15db9ed2fb3ee0f82a7af985dc36d75d95","hex":"473044022025e91ce53b40e7fba9a18497b21868bf9a862f788fc691872e81e4bc4d51576702204da67c7bcb02b41d1f38d316def27f36568c66f74545f39838ac8a4c550fa3cf014104dde6f0b737f3e4d94a987aec5ad502bbfad056f9a420ed2bb3b00ffd587ed73d10d727f6eaf7106b8e254924793a7a15db9ed2fb3ee0f82a7af985dc36d75d95"}}],"vout":[{"value":2.0,"n":0,"scriptPubKey":{"asm":"OP_DUP OP_HASH160 d5818ccb2f87115564845678b600ab5f0ad699b2 OP_EQUALVERIFY OP_CHECKSIG","hex":"76a914d5818ccb2f87115564845678b600ab5f0ad699b288ac","reqSigs":1,"type":"pubkeyhash","addresses":["1LTv89hWAMhL8SdQvk9LdSUW3oZJoeNTSG"]}}],"hex":"0100000002bd51ea88f2145301dac985312fcae07902257c2aaf05f54ffd99cbafb7976e25010000008a473044022064677c1ffa4c4c2f5b8349faf1be4b1e2007e0cc1a11b4893440612d2c1bf0bd02206df358528ff728e2128c2deebb56ee4af186f511e0dffcb10b4c6df07076d7050141048b6b83acbb5d309e9ecac5538ccfc4d2ccf53ba436b3595fd4f326cd988e21a04a8ba61a2bc48e666b9f11add682dbd52349ff44bc3708400321bbb11402195cfffffffff625dac0ea308ddd3599f8a81ed2c16a41633f8f03d7ced993c989f38f4a8e9f000000008a473044022025e91ce53b40e7fba9a18497b21868bf9a862f788fc691872e81e4bc4d51576702204da67c7bcb02b41d1f38d316def27f36568c66f74545f39838ac8a4c550fa3cf014104dde6f0b737f3e4d94a987aec5ad502bbfad056f9a420ed2bb3b00ffd587ed73d10d727f6eaf7106b8e254924793a7a15db9ed2fb3ee0f82a7af985dc36d75d95ffffffff0100c2eb0b000000001976a914d5818ccb2f87115564845678b600ab5f0ad699b288ac00000000"}