{"txid":"f7d5b3359e099c700aed65fb7207442285940c1ba56ec1ef7650a028d191b0a6","hash":"f7d5b3359e099c700aed65fb7207442285940c1ba56ec1ef7650a028d191b0a6","version":1,"size":2020,"vsize":2020,"locktime":0,"vin":[{"sequence":4294967295,"txid":"a6c4b8240bbb481bb6aff5e85561d04609c6d12edead66299622101e3ae6be6c","vout":0,"scriptSig":{"asm":"3045022100e5b28ad08f2385bd021f7096183f6e8eb3e5de7dc4ac1589e0fb0d3238181eed02201300c7843add218b9bc78b24287a9e97bd4b5f9b29cf7e04c355fcfe0991bae1[ALL] 04f72f01fbd4cc54ed3bbee2e762eb8d75257edd3ad1a047a7e010d9c0330b6b6bab5c0edfeafd4cbdfc78991e54e724e11b65992ea2f75465b46168a18c917bb4","hex":"483045022100e5b28ad08f2385bd021f7096183f6e8eb3e5de7dc4ac1589e0fb0d3238181eed02201300c7843add218b9bc78b24287a9e97bd4b5f9b29cf7e04c355fcfe0991bae1014104f72f01fbd4cc54ed3bbee2e762eb8d75257edd3ad1a047a7e010d9c0330b6b6bab5c0edfeafd4cbdfc78991e54e724e11b65992ea2f75465b46168a18c917bb4"}},{"sequence":4294967295,"txid":"d8538c686ba5b68726deec9df1c62e428bc13e046bb02e7d983bacf425032d2c","vout":5,"scriptSig":{"asm":"304502205155570ebebcffe28fddad97be2a13212efe66fd66c860f008cf6994991c528f0221008bd1950d54f45029e0a5d4447ea3aa59d5d2fef18878101771959deda30ac902[ALL] 0472507f14738ba8de1c42ef955c6b1990a8363a383776e9894a9b15b3faff77027a61e29075c7de2c44321ffa57a1e1f050a8b468b6f5988a7dd52252d816d6be","hex":"48304502205155570ebebcffe28fddad97be2a13212efe66fd66c860f008cf6994991c528f0221008bd1950d54f45029e0a5d4447ea3aa59d5d2fef18878101771959deda30ac90201410472507f14738ba8de1c42ef955c6b1990a8363a383776e9894a9b15b3faff77027a61e29075c7de2c44321ffa57a1e1f050a8b468b6f5988a7dd52252d816d6be"}},{"sequence":4294967295,"txid":"d8538c686ba5b68726deec9df1c62e428bc13e046bb02e7d983bacf425032d2c","vout":11,"scriptSig":{"asm":"3045022100bfe50326f4f0654d51864f2292333d44e0237899c4938eac3e478400c845a0940220121d387bf82f3941926eb0972304c7319d6ccc516b3dda3738d75e8518c602f0[ALL] 04122cb6201f19b661860d19e5135e739bb4808b9c45ee2b5ec667eec9a46999246e100e2f8cd9cc0dbd79b3cf0f6e79e084f18b517a81150af26299c347342638","hex":"483045022100bfe50326f4f0654d51864f2292333d44e0237899c4938eac3e478400c845a0940220121d387bf82f3941926eb0972304c7319d6ccc516b3dda3738d75e8518c602f0014104122cb6201f19b661860d19e5135e739bb4808b9c45ee2b5ec667eec9a46999246e100e2f8cd9cc0dbd79b3cf0f6e79e084f18b517a81150af26299c347342638"}},{"sequence":4294967295,"txid":"d8538c686ba5b68726deec9df1c62e428bc13e046bb02e7d983bacf425032d2c","vout":31,"scriptSig":{"asm":"30450220096f1541be43e738899c3c777fc419dd1e6ed4073195137cb9634c06b0ee3208022100bba3b920972334140b9bdd520dd18aad9d3f26105483e0f91f6920f13d34a657[ALL] 0488a535a4a036bd5265fc4dac6a86826c2dd1085f2cb66f60d68fb912f827cf010bac315bf97670be6b51ec9bd3ad2578a4f788b588f190d92234048a21372b09","hex":"4830450220096f1541be43e738899c3c777fc419dd1e6ed4073195137cb9634c06b0ee3208022100bba3b920972334140b9bdd520dd18aad9d3f26105483e0f91f6920f13d34a65701410488a535a4a036bd5265fc4dac6a86826c2dd1085f2cb66f60d68fb912f827cf010bac315bf97670be6b51ec9bd3ad2578a4f788b588f190d92234048a21372b09"}},{"sequence":4294967295,"txid":"9f1c46ac0189f83e2927797ab6266a3130e65d1c2250b2535e9a9196cd0325e3","vout":1,"scriptSig":{"asm":"304502210080be79c8a281af5bd8596f5c8708ecdc5aa4608dc3651da549d13f0379b5034c02205aa3ab45c4a32f2d606e1d6a5aedc971bd182c29d01160a672704142f8c35c40[ALL] 0413ec65f5c1253a9be39338f65fb935f6c76a8c126e835134b6c49df8ec23ed1661cc66f7e3b1d62e3933de2145f942cc6f67214b2e60ed195f77cb1737897206","hex":"48304502210080be79c8a281af5bd8596f5c8708ecdc5aa4608dc3651da549d13f0379b5034c02205aa3ab45c4a32f2d606e1d6a5aedc971bd182c29d01160a672704142f8c35c4001410413ec65f5c1253a9be39338f65fb935f6c76a8c126e835134b6c49df8ec23ed1661cc66f7e3b1d62e3933de2145f942cc6f67214b2e60ed195f77cb1737897206"}},{"sequence":4294967295,"txid":"ba5d126df525123510ced75d79027821bdeea62e63bc1c7b9799f2cda0dec91e","vout":0,"scriptSig":{"asm":"304402204aa0947fe80095f7a9cc450f04b8f7f7d730ad4b160536b405dcac8028a20ef10220782e63a4fb84b0447cd930bb8b02931e62ec9b372762cde02f3fd5df8ff0d514[ALL] 04c29f84ab9658f35cf73ffcf7b95179d0dab7ae1ce4b08ecaf1648b0a09913cc950752c7bbdb96ce51bbef2f06f91570b1c8b73d99b882564fcca1c08ff1c0905","hex":"47304402204aa0947fe80095f7a9cc450f04b8f7f7d730ad4b160536b405dcac8028a20ef10220782e63a4fb84b0447cd930bb8b02931e62ec9b372762cde02f3fd5df8ff0d514014104c29f84ab9658f35cf73ffcf7b95179d0dab7ae1ce4b08ecaf1648b0a09913cc950752c7bbdb96ce51bbef2f06f91570b1c8b73d99b882564fcca1c08ff1c0905"}},{"sequence":4294967295,"txid":"22a041d94e72a6825eb38372eb821488c3dd3eb278e2678bb083d314ec842eb5","vout":0,"scriptSig":{"asm":"304402205f916857dbd9662747a27b288c5acc49bba88fab1189bcca67abf78e7bba7d7f02205ff328dbe9e84fb3133693af0dc40e3109838512d065577801c4ad314665aeb6[ALL] 04fd046d890390edf22115451f576b9bea28fbfa083da263c9f5beec54a3e948e0c8e4a5404296f7430a3816cc37a20b575c24747875c2db8c4d64b1c3d91afe48","hex":"47304402205f916857dbd9662747a27b288c5acc49bba88fab1189bcca67abf78e7bba7d7f02205ff328dbe9e84fb3133693af0dc40e3109838512d065577801c4ad314665aeb6014104fd046d890390edf22115451f576b9bea28fbfa083da263c9f5beec54a3e948e0c8e4a5404296f7430a3816cc37a20b575c24747875c2db8c4d64b1c3d91afe48"}},{"sequence":4294967295,"txid":"ffe8094ea1c9c64bdf364b147fbdd4861808fa052ef836f43b26b42db25e0fcb","vout":0,"scriptSig":{"asm":"3045022100da2cd145fc23d875f5ed796ab4387b8b5f972a5ef03c7b73bd9e61f3838767eb02200a8502cdfd568374bd0811cb1517e607ce51dabd101560325203cd5aa893f87a[ALL] 040d66a13cc9f5e044d92aa8b4180fdbb53860e28fd94f290fe24680cbbe57a66beb5f208974effe20da9a85d774a49564890977b5ebd0db15eac6f7540ec502a3","hex":"483045022100da2cd145fc23d875f5ed796ab4387b8b5f972a5ef03c7b73bd9e61f3838767eb02200a8502cdfd568374bd0811cb1517e607ce51dabd101560325203cd5aa893f87a0141040d66a13cc9f5e044d92aa8b4180fdbb53860e28fd94f290fe24680cbbe57a66beb5f208974effe20da9a85d774a49564890977b5ebd0db15eac6f7540ec502a3"}},{"sequence":4294967295,"txid":"28929e492be9a0c5e081995c7d43e95b86df1924bd3e5e9683cdccb0a02c35b1","vout":0,"scriptSig":{"asm":"304402203997f5f782486b59f153558f651b77be5e74d2034db01e493809cf4219af819602201241884390a366657dc3ddec968b6a513d5eceb88a48f4bf07c8b2c7b23f441f[ALL] 04e88c158493bcbf97a3755ef4eef70dbfcd7f1ad70563ba6bab4054b972a6ce943e5c2c0b366694e7def77ee30a0632e87f5abef9556550622c9b45059b13456e","hex":"47304402203997f5f782486b59f153558f651b77be5e74d2034db01e493809cf4219af819602201241884390a366657dc3ddec968b6a513d5eceb88a48f4bf07c8b2c7b23f441f014104e88c158493bcbf97a3755ef4eef70dbfcd7f1ad70563ba6bab4054b972a6ce943e5c2c0b366694e7def77ee30a0632e87f5abef9556550622c9b45059b13456e"}},{"sequence":4294967295,"txid":"ccac53796712ac668f54190c5b4a8c0b7ed3aa25ca95e2a7fd8ebd90f8445a5b","vout":0,"scriptSig":{"asm":"3045022078e90f1c14d640b6e54fed613be7a4186c3bcff9fc3403c3d09ca85ef0f842840221008e970f67e65a9cb749a0fab58803d4f605c393582bbf5978ba50a1a152c90c16[ALL] 042f2900e8cc24b6e13c69545706d33b3a892fbc75191dcc932e818257ca82bc2f630bf3a90d5897e29fe751922d3de225ee105789d482e5baf67afa2c2790fd2e","hex":"483045022078e90f1c14d640b6e54fed613be7a4186c3bcff9fc3403c3d09ca85ef0f842840221008e970f67e65a9cb749a0fab58803d4f605c393582bbf5978ba50a1a152c90c160141042f2900e8cc24b6e13c69545706d33b3a892fbc75191dcc932e818257ca82bc2f630bf3a90d5897e29fe751922d3de225ee105789d482e5baf67afa2c2790fd2e"}},{"sequence":4294967295,"txid":"be37d481082d6930cfb2d91afcd8f8f02c56433d04e35d551b424056972d5538","vout":1,"scriptSig":{"asm":"304402204ba572e28bb06e94b043c515f9fe475c26c9f81feec6030f30012b82be26e2a5022014f2596cade3bb0a2cf7b4f4994848cdb7c59987b83d361d4d3abdf813b5af3d[ALL] 0413ed263dbd688f993a15cb6de617d56300e602e4a9bd23d0a5af836d01e5a749df3331cc7bd078ac50b8842367c4d11cabaa9aab7b3a3c4a98bb82d9a0422c16","hex":"47304402204ba572e28bb06e94b043c515f9fe475c26c9f81feec6030f30012b82be26e2a5022014f2596cade3bb0a2cf7b4f4994848cdb7c59987b83d361d4d3abdf813b5af3d01410413ed263dbd688f993a15cb6de617d56300e602e4a9bd23d0a5af836d01e5a749df3331cc7bd078ac50b8842367c4d11cabaa9aab7b3a3c4a98bb82d9a0422c16"}}],"vout":[{"value":2000.0,"n":0,"scriptPubKey":{"asm":"OP_DUP OP_HASH160 608fb77e35cdfcf7585a3708b7226e6bbde42296 OP_EQUALVERIFY OP_CHECKSIG","hex":"76a914608fb77e35cdfcf7585a3708b7226e6bbde4229688ac","reqSigs":1,"type":"pubkeyhash","addresses":["19oa32rQn3EU11tGs2FmLcRLvgEnsy92BB"]}}],"hex":"010000000b6cbee63a1e1022962966adde2ed1c60946d06155e8f5afb61b48bb0b24b8c4a6000000008b483045022100e5b28ad08f2385bd021f7096183f6e8eb3e5de7dc4ac1589e0fb0d3238181eed02201300c7843add218b9bc78b24287a9e97bd4b5f9b29cf7e04c355fcfe0991bae1014104f72f01fbd4cc54ed3bbee2e762eb8d75257edd3ad1a047a7e010d9c0330b6b6bab5c0edfeafd4cbdfc78991e54e724e11b65992ea2f75465b46168a18c917bb4ffffffff2c2d0325f4ac3b987d2eb06b043ec18b422ec6f19decde2687b6a56b688c53d8050000008b48304502205155570ebebcffe28fddad97be2a13212efe66fd66c860f008cf6994991c528f0221008bd1950d54f45029e0a5d4447ea3aa59d5d2fef18878101771959deda30ac90201410472507f14738ba8de1c42ef955c6b1990a8363a383776e9894a9b15b3faff77027a61e29075c7de2c44321ffa57a1e1f050a8b468b6f5988a7dd52252d816d6beffffffff2c2d0325f4ac3b987d2eb06b043ec18b422ec6f19decde2687b6a56b688c53d80b0000008b483045022100bfe50326f4f0654d51864f2292333d44e0237899c4938eac3e478400c845a0940220121d387bf82f3941926eb0972304c7319d6ccc516b3dda3738d75e8518c602f0014104122cb6201f19b661860d19e5135e739bb4808b9c45ee2b5ec667eec9a46999246e100e2f8cd9cc0dbd79b3cf0f6e79e084f18b517a81150af26299c347342638ffffffff2c2d0325f4ac3b987d2eb06b043ec18b422ec6f19decde2687b6a56b688c53d81f0000008b4830450220096f1541be43e738899c3c777fc419dd1e6ed4073195137cb9634c06b0ee3208022100bba3b920972334140b9bdd520dd18aad9d3f26105483e0f91f6920f13d34a65701410488a535a4a036bd5265fc4dac6a86826c2dd1085f2cb66f60d68fb912f827cf010bac315bf97670be6b51ec9bd3ad2578a4f788b588f190d92234048a21372b09ffffffffe32503cd96919a5e53b250221c5de630316a26b67a7927293ef88901ac461c9f010000008b48304502210080be79c8a281af5bd8596f5c8708ecdc5aa4608dc3651da549d13f0379b5034c02205aa3ab45c4a32f2d606e1d6a5aedc971bd182c29d01160a672704142f8c35c4001410413ec65f5c1253a9be39338f65fb935f6c76a8c126e835134b6c49df8ec23ed1661cc66f7e3b1d62e3933de2145f942cc6f67214b2e60ed195f77cb1737897206ffffffff1ec9dea0cdf299977b1cbc632ea6eebd217802795dd7ce10351225f56d125dba000000008a47304402204aa0947fe80095f7a9cc450f04b8f7f7d730ad4b160536b405dcac8028a20ef10220782e63a4fb84b0447cd930bb8b02931e62ec9b372762cde02f3fd5df8ff0d514014104c29f84ab9658f35cf73ffcf7b95179d0dab7ae1ce4b08ecaf1648b0a09913cc950752c7bbdb96ce51bbef2f06f91570b1c8b73d99b882564fcca1c08ff1c0905ffffffffb52e84ec14d383b08b67e278b23eddc3881482eb7283b35e82a6724ed941a022000000008a47304402205f916857dbd9662747a27b288c5acc49bba88fab1189bcca67abf78e7bba7d7f02205ff328dbe9e84fb3133693af0dc40e3109838512d065577801c4ad314665aeb6014104fd046d890390edf22115451f576b9bea28fbfa083da263c9f5beec54a3e948e0c8e4a5404296f7430a3816cc37a20b575c24747875c2db8c4d64b1c3d91afe48ffffffffcb0f5eb22db4263bf436f82e05fa081886d4bd7f144b36df4bc6c9a14e09e8ff000000008b483045022100da2cd145fc23d875f5ed796ab4387b8b5f972a5ef03c7b73bd9e61f3838767eb02200a8502cdfd568374bd0811cb1517e607ce51dabd101560325203cd5aa893f87a0141040d66a13cc9f5e044d92aa8b4180fdbb53860e28fd94f290fe24680cbbe57a66beb5f208974effe20da9a85d774a49564890977b5ebd0db15eac6f7540ec502a3ffffffffb1352ca0b0cccd83965e3ebd2419df865be9437d5c9981e0c5a0e92b499e9228000000008a47304402203997f5f782486b59f153558f651b77be5e74d2034db01e493809cf4219af819602201241884390a366657dc3ddec968b6a513d5eceb88a48f4bf07c8b2c7b23f441f014104e88c158493bcbf97a3755ef4eef70dbfcd7f1ad70563ba6bab4054b972a6ce943e5c2c0b366694e7def77ee30a0632e87f5abef9556550622c9b45059b13456effffffff5b5a44f890bd8efda7e295ca25aad37e0b8c4a5b0c19548f66ac12677953accc000000008b483045022078e90f1c14d640b6e54fed613be7a4186c3bcff9fc3403c3d09ca85ef0f842840221008e970f67e65a9cb749a0fab58803d4f605c393582bbf5978ba50a1a152c90c160141042f2900e8cc24b6e13c69545706d33b3a892fbc75191dcc932e818257ca82bc2f630bf3a90d5897e29fe751922d3de225ee105789d482e5baf67afa2c2790fd2effffffff38552d975640421b555de3043d43562cf0f8d8fc1ad9b2cf30692d0881d437be010000008a47304402204ba572e28bb06e94b043c515f9fe475c26c9f81feec6030f30012b82be26e2a5022014f2596cade3bb0a2cf7b4f4994848cdb7c59987b83d361d4d3abdf813b5af3d01410413ed263dbd688f993a15cb6de617d56300e602e4a9bd23d0a5af836d01e5a749df3331cc7bd078ac50b8842367c4d11cabaa9aab7b3a3c4a98bb82d9a0422c16ffffffff0100d0ed902e0000001976a914608fb77e35cdfcf7585a3708b7226e6bbde4229688ac00000000"}