{"txid":"f8f6c8719923ea224322ba4fff1a82ed9e014eab3d7d5bd118354b0cd35607cb","hash":"f8f6c8719923ea224322ba4fff1a82ed9e014eab3d7d5bd118354b0cd35607cb","version":1,"size":191,"vsize":191,"locktime":0,"vin":[{"sequence":4294967295,"txid":"404facbbf34bfadfda98c701caec6f3a0a0565cc77e7d206557c041597e0ab6f","vout":0,"scriptSig":{"asm":"30440220297a80b3ba5b5f4d5085c718e505a16d5624dc6b11654dec8f59bb1ffdadcf4e0220247ebee0cc68b726323121190571ea01b43d9aac8bfa79e3e9192fd8e34a35d6[ALL]","hex":"4730440220297a80b3ba5b5f4d5085c718e505a16d5624dc6b11654dec8f59bb1ffdadcf4e0220247ebee0cc68b726323121190571ea01b43d9aac8bfa79e3e9192fd8e34a35d601"}}],"vout":[{"value":5.0,"n":0,"scriptPubKey":{"asm":"OP_DUP OP_HASH160 46e77b6fabb40fc059a1f1226ea13a51296776ad OP_EQUALVERIFY OP_CHECKSIG","hex":"76a91446e77b6fabb40fc059a1f1226ea13a51296776ad88ac","reqSigs":1,"type":"pubkeyhash","addresses":["17Tuc6Jew5Pk7nsn3xkFPtaerQSf1TVZTP"]}},{"value":45.0101,"n":1,"scriptPubKey":{"asm":"OP_DUP OP_HASH160 fd716d0ec1d0040c6364d007dddebca9d806d5d9 OP_EQUALVERIFY OP_CHECKSIG","hex":"76a914fd716d0ec1d0040c6364d007dddebca9d806d5d988ac","reqSigs":1,"type":"pubkeyhash","addresses":["1Q75qWbGJ29GxASmb86CAbCVBrRhu6bi6i"]}}],"hex":"01000000016fabe09715047c5506d2e777cc65050a3a6fecca01c798dadffa4bf3bbac4f4000000000484730440220297a80b3ba5b5f4d5085c718e505a16d5624dc6b11654dec8f59bb1ffdadcf4e0220247ebee0cc68b726323121190571ea01b43d9aac8bfa79e3e9192fd8e34a35d601ffffffff020065cd1d000000001976a91446e77b6fabb40fc059a1f1226ea13a51296776ad88ac50f6470c010000001976a914fd716d0ec1d0040c6364d007dddebca9d806d5d988ac00000000"}