{"txid":"05917440ae91b8f09dc0cf63cdb9942ec92812877be5c74db3aea065fecf4085","hash":"05917440ae91b8f09dc0cf63cdb9942ec92812877be5c74db3aea065fecf4085","version":1,"size":257,"vsize":257,"locktime":0,"vin":[{"sequence":4294967295,"txid":"d347fbd19cd422139b1b86f4b6e5ad1b8686461c158e4d7d82f6cfd01a7fda37","vout":0,"scriptSig":{"asm":"30440220696ac92bd97990be598d7ac47c77fd00f1efde56f08319c3ce8504a1b2529a1202200d995fcce8566395b8dcf4b6a7c741481ce57a319098d121ca956714d6ad0505[ALL] 042361d974d40cda75c2d3c7b385788f51e0c56a31e9830c52b7c4493e03662f9cf51e8dfe493a37b804813842854ab512074e8460cd921650077ff7f013718b7d","hex":"4730440220696ac92bd97990be598d7ac47c77fd00f1efde56f08319c3ce8504a1b2529a1202200d995fcce8566395b8dcf4b6a7c741481ce57a319098d121ca956714d6ad05050141042361d974d40cda75c2d3c7b385788f51e0c56a31e9830c52b7c4493e03662f9cf51e8dfe493a37b804813842854ab512074e8460cd921650077ff7f013718b7d"}}],"vout":[{"value":36.63,"n":0,"scriptPubKey":{"asm":"OP_DUP OP_HASH160 9e8d46361535a2474fe7008c534e9aad8c0e01cd OP_EQUALVERIFY OP_CHECKSIG","hex":"76a9149e8d46361535a2474fe7008c534e9aad8c0e01cd88ac","reqSigs":1,"type":"pubkeyhash","addresses":["1FTM1DbD9TuJVxREEr7RCkVuSoKxzW1WLn"]}},{"value":5.1,"n":1,"scriptPubKey":{"asm":"OP_DUP OP_HASH160 1d8a220764c03e82813a5e765a7c191d294d6316 OP_EQUALVERIFY OP_CHECKSIG","hex":"76a9141d8a220764c03e82813a5e765a7c191d294d631688ac","reqSigs":1,"type":"pubkeyhash","addresses":["13hC5D1KTqBUXT4SVTh9jJJHTU7Ap36JNe"]}}],"hex":"010000000137da7f1ad0cff6827d4d8e151c4686861bade5b6f4861b9b1322d49cd1fb47d3000000008a4730440220696ac92bd97990be598d7ac47c77fd00f1efde56f08319c3ce8504a1b2529a1202200d995fcce8566395b8dcf4b6a7c741481ce57a319098d121ca956714d6ad05050141042361d974d40cda75c2d3c7b385788f51e0c56a31e9830c52b7c4493e03662f9cf51e8dfe493a37b804813842854ab512074e8460cd921650077ff7f013718b7dffffffff02c0f154da000000001976a9149e8d46361535a2474fe7008c534e9aad8c0e01cd88ac80fb651e000000001976a9141d8a220764c03e82813a5e765a7c191d294d631688ac00000000"}