{"txid":"086ab667447a537b3995a746c0f3be5fa4897bb2c76888e4ee28806f10a57317","hash":"086ab667447a537b3995a746c0f3be5fa4897bb2c76888e4ee28806f10a57317","version":1,"size":484,"vsize":484,"locktime":0,"vin":[{"sequence":4294967295,"txid":"d6adc38968e5f4bfa75ec00ab95e270a5047deb5fc428e36e4ea533778c949f0","vout":0,"scriptSig":{"asm":"3045022037be36e2e40d5a2dc85bc0c33c5b45e5f1844a8ec54f57dfe62e461ff6d2dc9a022100ec17773da005ee960a145af172459440153fe12bbcf98fa1453d951522851ef8[ALL]","hex":"483045022037be36e2e40d5a2dc85bc0c33c5b45e5f1844a8ec54f57dfe62e461ff6d2dc9a022100ec17773da005ee960a145af172459440153fe12bbcf98fa1453d951522851ef801"}},{"sequence":4294967295,"txid":"bf2fce42425ba8bea8da2d22d030559f43b12187510a05465d88ebd87cb19073","vout":1,"scriptSig":{"asm":"304402203d1abb07cb0f0cc56243335c6ba1d77dac3caee98960508e539d55a6f135a59c022023d271543e9ba05a0d66d624dd8d2cbfca74a08de01283b14278aa889fcee5ad[ALL] 044f65116b9974fe9ed8edef9c9c87c26036693b7088895647a5e1c97ba7502b6b8117d4f6a650ed0f15fcb91c6c886f922c570d5b7134ec86c0f172dc7f8c1fb9","hex":"47304402203d1abb07cb0f0cc56243335c6ba1d77dac3caee98960508e539d55a6f135a59c022023d271543e9ba05a0d66d624dd8d2cbfca74a08de01283b14278aa889fcee5ad0141044f65116b9974fe9ed8edef9c9c87c26036693b7088895647a5e1c97ba7502b6b8117d4f6a650ed0f15fcb91c6c886f922c570d5b7134ec86c0f172dc7f8c1fb9"}},{"sequence":4294967295,"txid":"1e56ceecc69518d59849cd2cd32d444f6e7f7d25f22e771896ad601ce17dae7f","vout":0,"scriptSig":{"asm":"3044022051e3bb2cf7312109c90e3056a71371a7798e411dec0033881178eb873215173502207233ea034ec6d6b1699972b8b29546223353b0f9b26da0e5e56642ef9918d35e[ALL]","hex":"473044022051e3bb2cf7312109c90e3056a71371a7798e411dec0033881178eb873215173502207233ea034ec6d6b1699972b8b29546223353b0f9b26da0e5e56642ef9918d35e01"}}],"vout":[{"value":2600.0,"n":0,"scriptPubKey":{"asm":"OP_DUP OP_HASH160 87b7182b137bc422ed0cf92c6972b371d73e5273 OP_EQUALVERIFY OP_CHECKSIG","hex":"76a91487b7182b137bc422ed0cf92c6972b371d73e527388ac","reqSigs":1,"type":"pubkeyhash","addresses":["1DNbZX8mTxxQdKeAYvyfugfxxiTPdvpH7j"]}},{"value":17.03,"n":1,"scriptPubKey":{"asm":"OP_DUP OP_HASH160 8c184b66e763eb7137fae494722b9de7724f6257 OP_EQUALVERIFY OP_CHECKSIG","hex":"76a9148c184b66e763eb7137fae494722b9de7724f625788ac","reqSigs":1,"type":"pubkeyhash","addresses":["1DmkhsV5pFeXZ69KtM4gxtbNLZa4XVquei"]}}],"hex":"0100000003f049c9783753eae4368e42fcb5de47500a275eb90ac05ea7bff4e56889c3add60000000049483045022037be36e2e40d5a2dc85bc0c33c5b45e5f1844a8ec54f57dfe62e461ff6d2dc9a022100ec17773da005ee960a145af172459440153fe12bbcf98fa1453d951522851ef801ffffffff7390b17cd8eb885d46050a518721b1439f5530d0222ddaa8bea85b4242ce2fbf010000008a47304402203d1abb07cb0f0cc56243335c6ba1d77dac3caee98960508e539d55a6f135a59c022023d271543e9ba05a0d66d624dd8d2cbfca74a08de01283b14278aa889fcee5ad0141044f65116b9974fe9ed8edef9c9c87c26036693b7088895647a5e1c97ba7502b6b8117d4f6a650ed0f15fcb91c6c886f922c570d5b7134ec86c0f172dc7f8c1fb9ffffffff7fae7de11c60ad9618772ef2257d7f6e4f442dd32ccd4998d51895c6ecce561e0000000048473044022051e3bb2cf7312109c90e3056a71371a7798e411dec0033881178eb873215173502207233ea034ec6d6b1699972b8b29546223353b0f9b26da0e5e56642ef9918d35e01ffffffff02002835893c0000001976a91487b7182b137bc422ed0cf92c6972b371d73e527388acc0b78165000000001976a9148c184b66e763eb7137fae494722b9de7724f625788ac00000000"}