{"txid":"207f4799efed75178ebcdea2eacd5870f22dd9dc487383aacdb9a0d89a94fd02","hash":"207f4799efed75178ebcdea2eacd5870f22dd9dc487383aacdb9a0d89a94fd02","version":1,"size":259,"vsize":259,"locktime":0,"vin":[{"sequence":4294967295,"txid":"26c98c60361d4acb46d3753f713600bcede24a01e828877c15cc024d7ee0b853","vout":1,"scriptSig":{"asm":"3046022100a11d40b48979185e3f365c262e0abb18a45af874b38de1b8be6ba1d9f8ad3527022100ae71d242da934e5110af969a35f4c36d4827823fe8aed2fcc449fdc40e85085d[ALL] 0468d06347fe6ce7fd3339e5ab975c12dbe8777e07f7329d956e93fdc0a140251bb103e11fe4a56855b1848390858dfc69a142b293b1c3eed7d9ed7a655eabdde2","hex":"493046022100a11d40b48979185e3f365c262e0abb18a45af874b38de1b8be6ba1d9f8ad3527022100ae71d242da934e5110af969a35f4c36d4827823fe8aed2fcc449fdc40e85085d01410468d06347fe6ce7fd3339e5ab975c12dbe8777e07f7329d956e93fdc0a140251bb103e11fe4a56855b1848390858dfc69a142b293b1c3eed7d9ed7a655eabdde2"}}],"vout":[{"value":33.66,"n":0,"scriptPubKey":{"asm":"OP_DUP OP_HASH160 cce8afad3447bcc126553f864b13303a0e8bad87 OP_EQUALVERIFY OP_CHECKSIG","hex":"76a914cce8afad3447bcc126553f864b13303a0e8bad8788ac","reqSigs":1,"type":"pubkeyhash","addresses":["1KgTbTUsCt7kHBMrSJXn4XiMRPHgvpXdLc"]}},{"value":1.08,"n":1,"scriptPubKey":{"asm":"OP_DUP OP_HASH160 f56ffd071612ec48b37afca18f13fb2ae30580d0 OP_EQUALVERIFY OP_CHECKSIG","hex":"76a914f56ffd071612ec48b37afca18f13fb2ae30580d088ac","reqSigs":1,"type":"pubkeyhash","addresses":["1PNki67ZmFr9YBTvFJp6x7o4R6TB4KZdWi"]}}],"hex":"010000000153b8e07e4d02cc157c8728e8014ae2edbc0036713f75d346cb4a1d36608cc926010000008c493046022100a11d40b48979185e3f365c262e0abb18a45af874b38de1b8be6ba1d9f8ad3527022100ae71d242da934e5110af969a35f4c36d4827823fe8aed2fcc449fdc40e85085d01410468d06347fe6ce7fd3339e5ab975c12dbe8777e07f7329d956e93fdc0a140251bb103e11fe4a56855b1848390858dfc69a142b293b1c3eed7d9ed7a655eabdde2ffffffff028015a1c8000000001976a914cce8afad3447bcc126553f864b13303a0e8bad8788ac00f36f06000000001976a914f56ffd071612ec48b37afca18f13fb2ae30580d088ac00000000"}