{"txid":"349b63c6078ccd2e9fe7b7a0d2330024adaf50a92c2480de308d99f2ee23fb70","hash":"349b63c6078ccd2e9fe7b7a0d2330024adaf50a92c2480de308d99f2ee23fb70","version":1,"size":258,"vsize":258,"locktime":0,"vin":[{"sequence":4294967295,"txid":"3eab4cae817953c797c4c22661b14664fddc7afde67385272be1cdcf9cc56d1b","vout":0,"scriptSig":{"asm":"3045022025632eab49db88b6346004a4cffa079496b1fdd4ed75db595a606ab26fc890b302210099a8b8c34097d57a081fd5f1ff0987177e223db2533aeecd19d18d23ebe6f0ee[ALL] 04fd9299ce7127d3607f0ec0cece6609f93caa70c68bf41a01d0909ee6ed29f7ea1caaec03bc286df3a2f72a82469d74bd03027f4b1c84717319bc978d1c74a7ba","hex":"483045022025632eab49db88b6346004a4cffa079496b1fdd4ed75db595a606ab26fc890b302210099a8b8c34097d57a081fd5f1ff0987177e223db2533aeecd19d18d23ebe6f0ee014104fd9299ce7127d3607f0ec0cece6609f93caa70c68bf41a01d0909ee6ed29f7ea1caaec03bc286df3a2f72a82469d74bd03027f4b1c84717319bc978d1c74a7ba"}}],"vout":[{"value":7.09,"n":0,"scriptPubKey":{"asm":"OP_DUP OP_HASH160 3cd7410666ce0e2d802ba0c33690c6abc286a48e OP_EQUALVERIFY OP_CHECKSIG","hex":"76a9143cd7410666ce0e2d802ba0c33690c6abc286a48e88ac","reqSigs":1,"type":"pubkeyhash","addresses":["16YhQcyQgRMEsVQJGor3Lb5sqcXd3HDbna"]}},{"value":3.26,"n":1,"scriptPubKey":{"asm":"OP_DUP OP_HASH160 46e77b6fabb40fc059a1f1226ea13a51296776ad OP_EQUALVERIFY OP_CHECKSIG","hex":"76a91446e77b6fabb40fc059a1f1226ea13a51296776ad88ac","reqSigs":1,"type":"pubkeyhash","addresses":["17Tuc6Jew5Pk7nsn3xkFPtaerQSf1TVZTP"]}}],"hex":"01000000011b6dc59ccfcde12b278573e6fd7adcfd6446b16126c2c497c7537981ae4cab3e000000008b483045022025632eab49db88b6346004a4cffa079496b1fdd4ed75db595a606ab26fc890b302210099a8b8c34097d57a081fd5f1ff0987177e223db2533aeecd19d18d23ebe6f0ee014104fd9299ce7127d3607f0ec0cece6609f93caa70c68bf41a01d0909ee6ed29f7ea1caaec03bc286df3a2f72a82469d74bd03027f4b1c84717319bc978d1c74a7baffffffff02407b422a000000001976a9143cd7410666ce0e2d802ba0c33690c6abc286a48e88ac805d6e13000000001976a91446e77b6fabb40fc059a1f1226ea13a51296776ad88ac00000000"}