{"txid":"5b0221331fede23a4436b6e935304b8439bfb68596d92d778dd3b48c2694dd06","hash":"5b0221331fede23a4436b6e935304b8439bfb68596d92d778dd3b48c2694dd06","version":1,"size":439,"vsize":439,"locktime":0,"vin":[{"sequence":4294967295,"txid":"6ad52ad3e38786e3d21c686d4d27e5afd72c82c528898f42c9bba93e470534c5","vout":0,"scriptSig":{"asm":"3046022100f1c2c184e110257c8ef57803fb2fb5cb1156a2883ffdeffc1a0cec2718e035d5022100aea7650a2be36a2e28e6a6a1b55055cf770cee1a7f88ed311a8ea1784083d733[ALL] 04a5afc9e4be24a326f2d24ecd27cbc92c3005e43c892d9bf5383bde87def1093adf38175f38db55b8503eec359af2a1608dc03fde2259a5b81e7b2a2f9393a648","hex":"493046022100f1c2c184e110257c8ef57803fb2fb5cb1156a2883ffdeffc1a0cec2718e035d5022100aea7650a2be36a2e28e6a6a1b55055cf770cee1a7f88ed311a8ea1784083d733014104a5afc9e4be24a326f2d24ecd27cbc92c3005e43c892d9bf5383bde87def1093adf38175f38db55b8503eec359af2a1608dc03fde2259a5b81e7b2a2f9393a648"}},{"sequence":4294967295,"txid":"e2916e8d6a7c9b7c22a90529cac85de64be5174bfc7b12fa1069f32291a10993","vout":0,"scriptSig":{"asm":"30450220250c13daace5bf7e63b7a88d6f5d5f89e5b735582baae34c765f3dd42cc9552c022100f39b1f90f350850bf41a456ac6ac4038d76fe74cc9d65591a12d9dd48c5a0ce7[ALL] 04c322c1448a74ee11dcdee67ce2c207d870eb3ca2972d0de5a32f9c1714b742e9b58636c75e4d872035f0862a98ab2147921e38f2b528dd0f327b55ca15c85991","hex":"4830450220250c13daace5bf7e63b7a88d6f5d5f89e5b735582baae34c765f3dd42cc9552c022100f39b1f90f350850bf41a456ac6ac4038d76fe74cc9d65591a12d9dd48c5a0ce7014104c322c1448a74ee11dcdee67ce2c207d870eb3ca2972d0de5a32f9c1714b742e9b58636c75e4d872035f0862a98ab2147921e38f2b528dd0f327b55ca15c85991"}}],"vout":[{"value":5.24,"n":0,"scriptPubKey":{"asm":"OP_DUP OP_HASH160 1d8a220764c03e82813a5e765a7c191d294d6316 OP_EQUALVERIFY OP_CHECKSIG","hex":"76a9141d8a220764c03e82813a5e765a7c191d294d631688ac","reqSigs":1,"type":"pubkeyhash","addresses":["13hC5D1KTqBUXT4SVTh9jJJHTU7Ap36JNe"]}},{"value":0.17,"n":1,"scriptPubKey":{"asm":"OP_DUP OP_HASH160 58ad6b8ef587521ac63cef17499dcde4d08ca62f OP_EQUALVERIFY OP_CHECKSIG","hex":"76a91458ad6b8ef587521ac63cef17499dcde4d08ca62f88ac","reqSigs":1,"type":"pubkeyhash","addresses":["195tDKp7Q3QAgDkbsJi7GyG5o1krTb6CJk"]}}],"hex":"0100000002c53405473ea9bbc9428f8928c5822cd7afe5274d6d681cd2e38687e3d32ad56a000000008c493046022100f1c2c184e110257c8ef57803fb2fb5cb1156a2883ffdeffc1a0cec2718e035d5022100aea7650a2be36a2e28e6a6a1b55055cf770cee1a7f88ed311a8ea1784083d733014104a5afc9e4be24a326f2d24ecd27cbc92c3005e43c892d9bf5383bde87def1093adf38175f38db55b8503eec359af2a1608dc03fde2259a5b81e7b2a2f9393a648ffffffff9309a19122f36910fa127bfc4b17e54be65dc8ca2905a9227c9b7c6a8d6e91e2000000008b4830450220250c13daace5bf7e63b7a88d6f5d5f89e5b735582baae34c765f3dd42cc9552c022100f39b1f90f350850bf41a456ac6ac4038d76fe74cc9d65591a12d9dd48c5a0ce7014104c322c1448a74ee11dcdee67ce2c207d870eb3ca2972d0de5a32f9c1714b742e9b58636c75e4d872035f0862a98ab2147921e38f2b528dd0f327b55ca15c85991ffffffff02009b3b1f000000001976a9141d8a220764c03e82813a5e765a7c191d294d631688ac40660301000000001976a91458ad6b8ef587521ac63cef17499dcde4d08ca62f88ac00000000"}