{"txid":"65f162259e40bbc538799ae5beceec7d0b389711862080e7731e4b6cef38e7f6","hash":"65f162259e40bbc538799ae5beceec7d0b389711862080e7731e4b6cef38e7f6","version":1,"size":258,"vsize":258,"locktime":0,"vin":[{"sequence":4294967295,"txid":"60a6ae47d238e6cca62dd97f3b1d4bc63d5f1f6bab33e8e71c4d28b8413cb290","vout":1,"scriptSig":{"asm":"3045022100c1942a242be8eaa410fd708bbb9e7e7fa5209393658973690ffc0a1f7f5d73dd02205192dd683c114d90f993cb21e10ab2f50a84428dc6e4acd9242bada2d7222f55[ALL] 04f2dac0c95799c98d78e1751fe1d979af08405f058f0e1817b909025258e5996ccbae9e0dba077fffc9e1f5733c4cf439d57277cb88a5d7ac3dd6eae8f70bd89b","hex":"483045022100c1942a242be8eaa410fd708bbb9e7e7fa5209393658973690ffc0a1f7f5d73dd02205192dd683c114d90f993cb21e10ab2f50a84428dc6e4acd9242bada2d7222f55014104f2dac0c95799c98d78e1751fe1d979af08405f058f0e1817b909025258e5996ccbae9e0dba077fffc9e1f5733c4cf439d57277cb88a5d7ac3dd6eae8f70bd89b"}}],"vout":[{"value":30.38,"n":0,"scriptPubKey":{"asm":"OP_DUP OP_HASH160 07e1a9700672108155bf330f42e619c01a38f6d1 OP_EQUALVERIFY OP_CHECKSIG","hex":"76a91407e1a9700672108155bf330f42e619c01a38f6d188ac","reqSigs":1,"type":"pubkeyhash","addresses":["1ig4c3EWNaQJ27cgAbKN9d3dZXMjrx6Jg"]}},{"value":5.02,"n":1,"scriptPubKey":{"asm":"OP_DUP OP_HASH160 1d8a220764c03e82813a5e765a7c191d294d6316 OP_EQUALVERIFY OP_CHECKSIG","hex":"76a9141d8a220764c03e82813a5e765a7c191d294d631688ac","reqSigs":1,"type":"pubkeyhash","addresses":["13hC5D1KTqBUXT4SVTh9jJJHTU7Ap36JNe"]}}],"hex":"010000000190b23c41b8284d1ce7e833ab6b1f5f3dc64b1d3b7fd92da6cce638d247aea660010000008b483045022100c1942a242be8eaa410fd708bbb9e7e7fa5209393658973690ffc0a1f7f5d73dd02205192dd683c114d90f993cb21e10ab2f50a84428dc6e4acd9242bada2d7222f55014104f2dac0c95799c98d78e1751fe1d979af08405f058f0e1817b909025258e5996ccbae9e0dba077fffc9e1f5733c4cf439d57277cb88a5d7ac3dd6eae8f70bd89bffffffff02803314b5000000001976a91407e1a9700672108155bf330f42e619c01a38f6d188ac80e9eb1d000000001976a9141d8a220764c03e82813a5e765a7c191d294d631688ac00000000"}