{"txid":"663f690d9311f2dcf389bec0ebe5de64bd9bacf159a0dcd1d8d1cd12343db452","hash":"663f690d9311f2dcf389bec0ebe5de64bd9bacf159a0dcd1d8d1cd12343db452","version":1,"size":438,"vsize":438,"locktime":0,"vin":[{"sequence":4294967295,"txid":"7857a30cf98fc0308c54338daf0539cd9fd0e2ca4c7f0bfed558fe3892e728e7","vout":0,"scriptSig":{"asm":"304402203a5b4dd0172028ecdc215be0fe91ead75b4c70d44b1cc273ff95246280e60c900220610a46cc4f0be2877810580d2de9ae870a24e70398234b359217161a297ea581[ALL] 040eea3566b7d0c86b3eabcd3fbb06b9e94b7e3608f0cacc5e53bb6d1d5ac3443c196131e6cc58f3ecad748bf78c36b96feffbf97fa945906ef26197174cb45449","hex":"47304402203a5b4dd0172028ecdc215be0fe91ead75b4c70d44b1cc273ff95246280e60c900220610a46cc4f0be2877810580d2de9ae870a24e70398234b359217161a297ea5810141040eea3566b7d0c86b3eabcd3fbb06b9e94b7e3608f0cacc5e53bb6d1d5ac3443c196131e6cc58f3ecad748bf78c36b96feffbf97fa945906ef26197174cb45449"}},{"sequence":4294967295,"txid":"0b6c11d0a78c067785dadfeec0460ce47044672345734435a10dbde5775753e2","vout":1,"scriptSig":{"asm":"3046022100b5d0c7ce7c935449e860c5cb3c69d59e7c1499678d00251bff47e8717d2165e70221009dfe0b8f58489ee800a6f3c5cbc6a389ce73f6920622ae1803f5b4742491f770[ALL] 04330f9b25850d6593f4686901b729029041a853f8417104abb192d291d16335593fa75f3bbbc3ad41616e935b6fb9b3afb8d41accebd46861fe02dab59324c612","hex":"493046022100b5d0c7ce7c935449e860c5cb3c69d59e7c1499678d00251bff47e8717d2165e70221009dfe0b8f58489ee800a6f3c5cbc6a389ce73f6920622ae1803f5b4742491f770014104330f9b25850d6593f4686901b729029041a853f8417104abb192d291d16335593fa75f3bbbc3ad41616e935b6fb9b3afb8d41accebd46861fe02dab59324c612"}}],"vout":[{"value":21.0,"n":0,"scriptPubKey":{"asm":"OP_DUP OP_HASH160 c37ee99593df6ccb7a7c0482effa939ad9f3da0b OP_EQUALVERIFY OP_CHECKSIG","hex":"76a914c37ee99593df6ccb7a7c0482effa939ad9f3da0b88ac","reqSigs":1,"type":"pubkeyhash","addresses":["1JpgoSPcozNLzDGQPEhUuuKE6tPkXebWvM"]}},{"value":1.34,"n":1,"scriptPubKey":{"asm":"OP_DUP OP_HASH160 adf317b87dde0b1e257f3ecf566ce624d9152d78 OP_EQUALVERIFY OP_CHECKSIG","hex":"76a914adf317b87dde0b1e257f3ecf566ce624d9152d7888ac","reqSigs":1,"type":"pubkeyhash","addresses":["1Grm7ZXE46vpfyNnsEphdgeha8noZip5tL"]}}],"hex":"0100000002e728e79238fe58d5fe0b7f4ccae2d09fcd3905af8d33548c30c08ff90ca35778000000008a47304402203a5b4dd0172028ecdc215be0fe91ead75b4c70d44b1cc273ff95246280e60c900220610a46cc4f0be2877810580d2de9ae870a24e70398234b359217161a297ea5810141040eea3566b7d0c86b3eabcd3fbb06b9e94b7e3608f0cacc5e53bb6d1d5ac3443c196131e6cc58f3ecad748bf78c36b96feffbf97fa945906ef26197174cb45449ffffffffe2535777e5bd0da13544734523674470e40c46c0eedfda8577068ca7d0116c0b010000008c493046022100b5d0c7ce7c935449e860c5cb3c69d59e7c1499678d00251bff47e8717d2165e70221009dfe0b8f58489ee800a6f3c5cbc6a389ce73f6920622ae1803f5b4742491f770014104330f9b25850d6593f4686901b729029041a853f8417104abb192d291d16335593fa75f3bbbc3ad41616e935b6fb9b3afb8d41accebd46861fe02dab59324c612ffffffff0200752b7d000000001976a914c37ee99593df6ccb7a7c0482effa939ad9f3da0b88ac80adfc07000000001976a914adf317b87dde0b1e257f3ecf566ce624d9152d7888ac00000000"}