{"txid":"6c45d684b63120b10871e8a666251ea9fa32449695588ef517e21d32fc6bca44","hash":"6c45d684b63120b10871e8a666251ea9fa32449695588ef517e21d32fc6bca44","version":1,"size":258,"vsize":258,"locktime":0,"vin":[{"sequence":4294967295,"txid":"72cd9ae4b4dfb0e87b9bc31da609a6cc4fc142c63320d88cf1491048633f516a","vout":1,"scriptSig":{"asm":"3045022100e0dafa569dece2c00e17c2be2e3dfc2f421990cd5bdd1eb155bd3d11a6545004022014c37754dcf0de30f09a23c8f693d75aebbce4a7719c1442395dddd8b5a16925[ALL] 04340b9c2b04848b8afb0ecb18c6452a61a8c503fdd454828c512646d0f3faac97cf4602c5ec6374a6a6d1b22e4da97a0273acdd597c9b8452241c669d07d0352d","hex":"483045022100e0dafa569dece2c00e17c2be2e3dfc2f421990cd5bdd1eb155bd3d11a6545004022014c37754dcf0de30f09a23c8f693d75aebbce4a7719c1442395dddd8b5a16925014104340b9c2b04848b8afb0ecb18c6452a61a8c503fdd454828c512646d0f3faac97cf4602c5ec6374a6a6d1b22e4da97a0273acdd597c9b8452241c669d07d0352d"}}],"vout":[{"value":5.05,"n":0,"scriptPubKey":{"asm":"OP_DUP OP_HASH160 1d8a220764c03e82813a5e765a7c191d294d6316 OP_EQUALVERIFY OP_CHECKSIG","hex":"76a9141d8a220764c03e82813a5e765a7c191d294d631688ac","reqSigs":1,"type":"pubkeyhash","addresses":["13hC5D1KTqBUXT4SVTh9jJJHTU7Ap36JNe"]}},{"value":16.78,"n":1,"scriptPubKey":{"asm":"OP_DUP OP_HASH160 59a119726ab5b6608cd274c779c217b9ee5f65df OP_EQUALVERIFY OP_CHECKSIG","hex":"76a91459a119726ab5b6608cd274c779c217b9ee5f65df88ac","reqSigs":1,"type":"pubkeyhash","addresses":["19Av8TRdtbGi4q9skaAGWAgBMZc63ZQHP2"]}}],"hex":"01000000016a513f63481049f18cd82033c642c14fcca609a61dc39b7be8b0dfb4e49acd72010000008b483045022100e0dafa569dece2c00e17c2be2e3dfc2f421990cd5bdd1eb155bd3d11a6545004022014c37754dcf0de30f09a23c8f693d75aebbce4a7719c1442395dddd8b5a16925014104340b9c2b04848b8afb0ecb18c6452a61a8c503fdd454828c512646d0f3faac97cf4602c5ec6374a6a6d1b22e4da97a0273acdd597c9b8452241c669d07d0352dffffffff0240b0191e000000001976a9141d8a220764c03e82813a5e765a7c191d294d631688ac803f0464000000001976a91459a119726ab5b6608cd274c779c217b9ee5f65df88ac00000000"}