{"txid":"6c827d3ff371b6c76ce81b3329873d727a7ce3bdf1f59a848c346a648fee17a6","hash":"6c827d3ff371b6c76ce81b3329873d727a7ce3bdf1f59a848c346a648fee17a6","version":1,"size":256,"vsize":256,"locktime":0,"vin":[{"sequence":4294967295,"txid":"55b0608b943f21fdccf273da7c3313ee06e757f6f38443f5eb9de179a3d6a942","vout":0,"scriptSig":{"asm":"3043021f37dad247c36321957ac38df5cf3aade3c3adb03284bf23ce505608037a388002206cae15dc81f9ba065e353edfc69137f9e754261aec82a7186457f4989975b072[ALL] 04c65f218939774ae46f14f7aa88ac788c7c62b7b4569c4634f632a7d6ac4c34c6e3b3c30941116009ea1b5d1572fdf13a47a21b59ad94335874e9846398a40827","hex":"463043021f37dad247c36321957ac38df5cf3aade3c3adb03284bf23ce505608037a388002206cae15dc81f9ba065e353edfc69137f9e754261aec82a7186457f4989975b072014104c65f218939774ae46f14f7aa88ac788c7c62b7b4569c4634f632a7d6ac4c34c6e3b3c30941116009ea1b5d1572fdf13a47a21b59ad94335874e9846398a40827"}}],"vout":[{"value":0.77,"n":0,"scriptPubKey":{"asm":"OP_DUP OP_HASH160 3e9b0caa3193e88d4069cbd3ee204a2cdc1d492f OP_EQUALVERIFY OP_CHECKSIG","hex":"76a9143e9b0caa3193e88d4069cbd3ee204a2cdc1d492f88ac","reqSigs":1,"type":"pubkeyhash","addresses":["16i2dvLjsiLniJjJRhDYC2JZpd5XvaWtCL"]}},{"value":0.28,"n":1,"scriptPubKey":{"asm":"OP_DUP OP_HASH160 e66de98b5b1835154ec18c087f1fb54365ab7b2c OP_EQUALVERIFY OP_CHECKSIG","hex":"76a914e66de98b5b1835154ec18c087f1fb54365ab7b2c88ac","reqSigs":1,"type":"pubkeyhash","addresses":["1N1Q5xhNkD9NgbKjWyhtyHfg93WBbGrThq"]}}],"hex":"010000000142a9d6a379e19debf54384f3f657e706ee13337cda73f2ccfd213f948b60b0550000000089463043021f37dad247c36321957ac38df5cf3aade3c3adb03284bf23ce505608037a388002206cae15dc81f9ba065e353edfc69137f9e754261aec82a7186457f4989975b072014104c65f218939774ae46f14f7aa88ac788c7c62b7b4569c4634f632a7d6ac4c34c6e3b3c30941116009ea1b5d1572fdf13a47a21b59ad94335874e9846398a40827ffffffff0240ed9604000000001976a9143e9b0caa3193e88d4069cbd3ee204a2cdc1d492f88ac003fab01000000001976a914e66de98b5b1835154ec18c087f1fb54365ab7b2c88ac00000000"}