{"txid":"75327d678577993474f0f0365d4f6889633f529971be83a2345dbc4d25ad8f9e","hash":"75327d678577993474f0f0365d4f6889633f529971be83a2345dbc4d25ad8f9e","version":1,"size":259,"vsize":259,"locktime":0,"vin":[{"sequence":4294967295,"txid":"295465671d4a3b54e6f0d14eecdf7856fa8922dac28b714b32e04cbdb689e0cd","vout":1,"scriptSig":{"asm":"3046022100befc2b2eaea17cc7ca77ab618d7fa2c53b93ca89c46597375703234209a87299022100d0cc349348f81477e353ddee547cf8593f5b346eeeb5b05f3dcade4e29797f1e[ALL] 04d40f88ef015c12f25b06e1ab1e5b70222dddef01ca6fe335fd3a9dc35104af5a5ce71c6ca53a5d04c78d38431fcc275ca3ee135cee3a797ea9ec8473b37725d3","hex":"493046022100befc2b2eaea17cc7ca77ab618d7fa2c53b93ca89c46597375703234209a87299022100d0cc349348f81477e353ddee547cf8593f5b346eeeb5b05f3dcade4e29797f1e014104d40f88ef015c12f25b06e1ab1e5b70222dddef01ca6fe335fd3a9dc35104af5a5ce71c6ca53a5d04c78d38431fcc275ca3ee135cee3a797ea9ec8473b37725d3"}}],"vout":[{"value":39.3,"n":0,"scriptPubKey":{"asm":"OP_DUP OP_HASH160 646b7e540a20f0b3ce5d85c0325c5c3eab9246ec OP_EQUALVERIFY OP_CHECKSIG","hex":"76a914646b7e540a20f0b3ce5d85c0325c5c3eab9246ec88ac","reqSigs":1,"type":"pubkeyhash","addresses":["1A9yLxhKqv8CQfterbehNwo6uHqZDVyqPJ"]}},{"value":5.29,"n":1,"scriptPubKey":{"asm":"OP_DUP OP_HASH160 1d8a220764c03e82813a5e765a7c191d294d6316 OP_EQUALVERIFY OP_CHECKSIG","hex":"76a9141d8a220764c03e82813a5e765a7c191d294d631688ac","reqSigs":1,"type":"pubkeyhash","addresses":["13hC5D1KTqBUXT4SVTh9jJJHTU7Ap36JNe"]}}],"hex":"0100000001cde089b6bd4ce0324b718bc2da2289fa5678dfec4ed1f0e6543b4a1d67655429010000008c493046022100befc2b2eaea17cc7ca77ab618d7fa2c53b93ca89c46597375703234209a87299022100d0cc349348f81477e353ddee547cf8593f5b346eeeb5b05f3dcade4e29797f1e014104d40f88ef015c12f25b06e1ab1e5b70222dddef01ca6fe335fd3a9dc35104af5a5ce71c6ca53a5d04c78d38431fcc275ca3ee135cee3a797ea9ec8473b37725d3ffffffff02800a3fea000000001976a914646b7e540a20f0b3ce5d85c0325c5c3eab9246ec88ac40e6871f000000001976a9141d8a220764c03e82813a5e765a7c191d294d631688ac00000000"}