{"txid":"78163903e3d77f4bc5365ccf21fe5ea1cf4919359c45220c1a19ba0683bb9e96","hash":"78163903e3d77f4bc5365ccf21fe5ea1cf4919359c45220c1a19ba0683bb9e96","version":1,"size":257,"vsize":257,"locktime":0,"vin":[{"sequence":4294967295,"txid":"8af0e355da9d71d126c0964ab6fcce3a46b6ad59190f14eed5a390a572e78217","vout":0,"scriptSig":{"asm":"30440220510bb60f1316b999b75518d4349600f8215fe58b8b378053441c452ef3bb77a10220114b87fdfe6f52b6b3ff464c584bf2b2cfa4ccd1753fd21b8706e198d4857346[ALL] 04863f82758b515a69488b854bcc0772ac139e6e3cbef541e1767d157523bfdb4650df693371917dcadf7f9596619b1cb245fc0025f3c0780df675f2c6b6a680c0","hex":"4730440220510bb60f1316b999b75518d4349600f8215fe58b8b378053441c452ef3bb77a10220114b87fdfe6f52b6b3ff464c584bf2b2cfa4ccd1753fd21b8706e198d4857346014104863f82758b515a69488b854bcc0772ac139e6e3cbef541e1767d157523bfdb4650df693371917dcadf7f9596619b1cb245fc0025f3c0780df675f2c6b6a680c0"}}],"vout":[{"value":1.18,"n":0,"scriptPubKey":{"asm":"OP_DUP OP_HASH160 f56ffd071612ec48b37afca18f13fb2ae30580d0 OP_EQUALVERIFY OP_CHECKSIG","hex":"76a914f56ffd071612ec48b37afca18f13fb2ae30580d088ac","reqSigs":1,"type":"pubkeyhash","addresses":["1PNki67ZmFr9YBTvFJp6x7o4R6TB4KZdWi"]}},{"value":4.17,"n":1,"scriptPubKey":{"asm":"OP_DUP OP_HASH160 ecfe5bda7a6e0a8a7e8adaf1952e7dbceff85b67 OP_EQUALVERIFY OP_CHECKSIG","hex":"76a914ecfe5bda7a6e0a8a7e8adaf1952e7dbceff85b6788ac","reqSigs":1,"type":"pubkeyhash","addresses":["1Nc7BS2FPVC3GJ5cPP3twn3EvG9mGk9Fbh"]}}],"hex":"01000000011782e772a590a3d5ee140f1959adb6463acefcb64a96c026d1719dda55e3f08a000000008a4730440220510bb60f1316b999b75518d4349600f8215fe58b8b378053441c452ef3bb77a10220114b87fdfe6f52b6b3ff464c584bf2b2cfa4ccd1753fd21b8706e198d4857346014104863f82758b515a69488b854bcc0772ac139e6e3cbef541e1767d157523bfdb4650df693371917dcadf7f9596619b1cb245fc0025f3c0780df675f2c6b6a680c0ffffffff0280890807000000001976a914f56ffd071612ec48b37afca18f13fb2ae30580d088ac40eada18000000001976a914ecfe5bda7a6e0a8a7e8adaf1952e7dbceff85b6788ac00000000"}