{"txid":"826e419506dac01c36ae6b4d26539083597859557a584bd46b57f4d2855acf2d","hash":"826e419506dac01c36ae6b4d26539083597859557a584bd46b57f4d2855acf2d","version":1,"size":257,"vsize":257,"locktime":0,"vin":[{"sequence":4294967295,"txid":"1929cf809a9f07aa3d6c70da2cacf2ef7d723b090344e43d2da7a8c89fc70ca0","vout":0,"scriptSig":{"asm":"304402207087c16fdf9b10669fa71dfd9babed86d8fd424b67d3c569ef4d2b5888113ddc022041d7499a7c676f6e7b9c306f81dad1872615322bab1ca1a1c8010894109201e5[ALL] 0450b8023b731491c7cf8b508c9b27690376d2e1856fd8ddab8699779f6617943afec7fc1fbcdb2bf503ae3ca4a111d0c46413ce3adf7fe7ff8e904b2dca3041e2","hex":"47304402207087c16fdf9b10669fa71dfd9babed86d8fd424b67d3c569ef4d2b5888113ddc022041d7499a7c676f6e7b9c306f81dad1872615322bab1ca1a1c8010894109201e501410450b8023b731491c7cf8b508c9b27690376d2e1856fd8ddab8699779f6617943afec7fc1fbcdb2bf503ae3ca4a111d0c46413ce3adf7fe7ff8e904b2dca3041e2"}}],"vout":[{"value":5.43,"n":0,"scriptPubKey":{"asm":"OP_DUP OP_HASH160 1d8a220764c03e82813a5e765a7c191d294d6316 OP_EQUALVERIFY OP_CHECKSIG","hex":"76a9141d8a220764c03e82813a5e765a7c191d294d631688ac","reqSigs":1,"type":"pubkeyhash","addresses":["13hC5D1KTqBUXT4SVTh9jJJHTU7Ap36JNe"]}},{"value":35.62,"n":1,"scriptPubKey":{"asm":"OP_DUP OP_HASH160 fdd7cb81e46b6eaf8f41b1b064fd37d4f265bf61 OP_EQUALVERIFY OP_CHECKSIG","hex":"76a914fdd7cb81e46b6eaf8f41b1b064fd37d4f265bf6188ac","reqSigs":1,"type":"pubkeyhash","addresses":["1Q9CUEHoGpV1PJb2v14jQ6RdntgzGWwiDk"]}}],"hex":"0100000001a00cc79fc8a8a72d3de44403093b727deff2ac2cda706c3daa079f9a80cf2919000000008a47304402207087c16fdf9b10669fa71dfd9babed86d8fd424b67d3c569ef4d2b5888113ddc022041d7499a7c676f6e7b9c306f81dad1872615322bab1ca1a1c8010894109201e501410450b8023b731491c7cf8b508c9b27690376d2e1856fd8ddab8699779f6617943afec7fc1fbcdb2bf503ae3ca4a111d0c46413ce3adf7fe7ff8e904b2dca3041e2ffffffff02c0855d20000000001976a9141d8a220764c03e82813a5e765a7c191d294d631688ac80ce4fd4000000001976a914fdd7cb81e46b6eaf8f41b1b064fd37d4f265bf6188ac00000000"}