{"txid":"a8db0da6221b6c3270cbfdd2d10d8ea2c260d29bcba2a284205a59ba5b92bc66","hash":"a8db0da6221b6c3270cbfdd2d10d8ea2c260d29bcba2a284205a59ba5b92bc66","version":1,"size":258,"vsize":258,"locktime":0,"vin":[{"sequence":4294967295,"txid":"2cd8eb1cf3807229162b94b33afe5b947b84cd98e32a326543fa3ecfb4258e51","vout":1,"scriptSig":{"asm":"3045022100eace9508bded4d7ec0be4189083a439305a5294e43844e231e7c77ccac5b80bb02204142436f50a77f9df7461bb991dd79b03e4f047f164fb1c22b5d02a2e5ffcc36[ALL] 04518f0626bf088d5a800db8cf9e9c1221dc5fb78385cb8427c4b502dc8b859f7e0db27d3223e9b893618154cd7d745ec3e0a9522904f1d4513f285bb15e6b9e9d","hex":"483045022100eace9508bded4d7ec0be4189083a439305a5294e43844e231e7c77ccac5b80bb02204142436f50a77f9df7461bb991dd79b03e4f047f164fb1c22b5d02a2e5ffcc36014104518f0626bf088d5a800db8cf9e9c1221dc5fb78385cb8427c4b502dc8b859f7e0db27d3223e9b893618154cd7d745ec3e0a9522904f1d4513f285bb15e6b9e9d"}}],"vout":[{"value":37.94,"n":0,"scriptPubKey":{"asm":"OP_DUP OP_HASH160 a9d01d31272dc0c852cf4d074a5887d4f2e53df0 OP_EQUALVERIFY OP_CHECKSIG","hex":"76a914a9d01d31272dc0c852cf4d074a5887d4f2e53df088ac","reqSigs":1,"type":"pubkeyhash","addresses":["1GUtWSGp1UJU9MdEn4gTCgUbnvy7Wwzkoi"]}},{"value":5.28,"n":1,"scriptPubKey":{"asm":"OP_DUP OP_HASH160 112c1b231506d3ea04320521c83319a051e27f31 OP_EQUALVERIFY OP_CHECKSIG","hex":"76a914112c1b231506d3ea04320521c83319a051e27f3188ac","reqSigs":1,"type":"pubkeyhash","addresses":["12ZoKoQDS2AuatnM4FzC4cAiRXKS7PZDwr"]}}],"hex":"0100000001518e25b4cf3efa4365322ae398cd847b945bfe3ab3942b16297280f31cebd82c010000008b483045022100eace9508bded4d7ec0be4189083a439305a5294e43844e231e7c77ccac5b80bb02204142436f50a77f9df7461bb991dd79b03e4f047f164fb1c22b5d02a2e5ffcc36014104518f0626bf088d5a800db8cf9e9c1221dc5fb78385cb8427c4b502dc8b859f7e0db27d3223e9b893618154cd7d745ec3e0a9522904f1d4513f285bb15e6b9e9dffffffff0280d823e2000000001976a914a9d01d31272dc0c852cf4d074a5887d4f2e53df088ac00a4781f000000001976a914112c1b231506d3ea04320521c83319a051e27f3188ac00000000"}