{"txid":"ce8765ceb73f5c82fcf529ed3642e7f153db4c576da54bbca0676ea51c403bab","hash":"ce8765ceb73f5c82fcf529ed3642e7f153db4c576da54bbca0676ea51c403bab","version":1,"size":259,"vsize":259,"locktime":0,"vin":[{"sequence":4294967295,"txid":"b6667aa36ca58e2a4d46a2d2e50135ee8383326c91e2f0a4f6d677a62a2da188","vout":0,"scriptSig":{"asm":"3046022100ba4891faef3fd76f5446d8f227f374311eb18ade28da8ce9866187be2cfe7c8d0221009ad177000b00e5190cd36c54820f5a30e7b9333b7229f1e55f3df2854c949c53[ALL] 04bf02cdd900549a07a1809f4000bafc9c6c978e0459e4b19d6c1dd5d7cfe2cb2d26034cd4e8d3d8b91e923d366667de14025dc75ae540ee5601b2d49fc5d0dcff","hex":"493046022100ba4891faef3fd76f5446d8f227f374311eb18ade28da8ce9866187be2cfe7c8d0221009ad177000b00e5190cd36c54820f5a30e7b9333b7229f1e55f3df2854c949c53014104bf02cdd900549a07a1809f4000bafc9c6c978e0459e4b19d6c1dd5d7cfe2cb2d26034cd4e8d3d8b91e923d366667de14025dc75ae540ee5601b2d49fc5d0dcff"}}],"vout":[{"value":41.05,"n":0,"scriptPubKey":{"asm":"OP_DUP OP_HASH160 96a9ced620494d7a1c1e9b185d711f6d578aebbe OP_EQUALVERIFY OP_CHECKSIG","hex":"76a91496a9ced620494d7a1c1e9b185d711f6d578aebbe88ac","reqSigs":1,"type":"pubkeyhash","addresses":["1EjdnEoyuRtsEyGWLbJSECLBzWz7a7M2FK"]}},{"value":1.04,"n":1,"scriptPubKey":{"asm":"OP_DUP OP_HASH160 f56ffd071612ec48b37afca18f13fb2ae30580d0 OP_EQUALVERIFY OP_CHECKSIG","hex":"76a914f56ffd071612ec48b37afca18f13fb2ae30580d088ac","reqSigs":1,"type":"pubkeyhash","addresses":["1PNki67ZmFr9YBTvFJp6x7o4R6TB4KZdWi"]}}],"hex":"010000000188a12d2aa677d6f6a4f0e2916c328383ee3501e5d2a2464d2a8ea56ca37a66b6000000008c493046022100ba4891faef3fd76f5446d8f227f374311eb18ade28da8ce9866187be2cfe7c8d0221009ad177000b00e5190cd36c54820f5a30e7b9333b7229f1e55f3df2854c949c53014104bf02cdd900549a07a1809f4000bafc9c6c978e0459e4b19d6c1dd5d7cfe2cb2d26034cd4e8d3d8b91e923d366667de14025dc75ae540ee5601b2d49fc5d0dcffffffffff024054adf4000000001976a91496a9ced620494d7a1c1e9b185d711f6d578aebbe88ac00ea3206000000001976a914f56ffd071612ec48b37afca18f13fb2ae30580d088ac00000000"}