{"txid":"d415f96c7df6ff840c5c8aaebe552d5f67a2af7832654d197603ea32096d7310","hash":"d415f96c7df6ff840c5c8aaebe552d5f67a2af7832654d197603ea32096d7310","version":1,"size":259,"vsize":259,"locktime":0,"vin":[{"sequence":4294967295,"txid":"1e7adaff9849b5c1924ceada1d554f69435f35981d2ef9b4f922308622aa2baf","vout":0,"scriptSig":{"asm":"3046022100c2d8759e962b523beb4f5a8addbc716d1f21fdd52bf4732eb11fae14199f8465022100fd35a0be1c18f4dc856884a53d5833647cff4363cf11acfad48a605611b7e08f[ALL] 046ec2d110645c72ed817b017b0cd4d6cecb4622ab955984c9e95fbb7d40ab58b3295d987f2d15221ad34da52a8e1242a48b96f51d7121bb56f17c9ef1f1cf6f30","hex":"493046022100c2d8759e962b523beb4f5a8addbc716d1f21fdd52bf4732eb11fae14199f8465022100fd35a0be1c18f4dc856884a53d5833647cff4363cf11acfad48a605611b7e08f0141046ec2d110645c72ed817b017b0cd4d6cecb4622ab955984c9e95fbb7d40ab58b3295d987f2d15221ad34da52a8e1242a48b96f51d7121bb56f17c9ef1f1cf6f30"}}],"vout":[{"value":10.24,"n":0,"scriptPubKey":{"asm":"OP_DUP OP_HASH160 510d0b06436c2a89b91abf3bdcf06de71392ab31 OP_EQUALVERIFY OP_CHECKSIG","hex":"76a914510d0b06436c2a89b91abf3bdcf06de71392ab3188ac","reqSigs":1,"type":"pubkeyhash","addresses":["18PZMnbytNCkaMchiFDnoMiCe4DdwSjv6M"]}},{"value":4.97,"n":1,"scriptPubKey":{"asm":"OP_DUP OP_HASH160 46e77b6fabb40fc059a1f1226ea13a51296776ad OP_EQUALVERIFY OP_CHECKSIG","hex":"76a91446e77b6fabb40fc059a1f1226ea13a51296776ad88ac","reqSigs":1,"type":"pubkeyhash","addresses":["17Tuc6Jew5Pk7nsn3xkFPtaerQSf1TVZTP"]}}],"hex":"0100000001af2baa22863022f9b4f92e1d98355f43694f551ddaea4c92c1b54998ffda7a1e000000008c493046022100c2d8759e962b523beb4f5a8addbc716d1f21fdd52bf4732eb11fae14199f8465022100fd35a0be1c18f4dc856884a53d5833647cff4363cf11acfad48a605611b7e08f0141046ec2d110645c72ed817b017b0cd4d6cecb4622ab955984c9e95fbb7d40ab58b3295d987f2d15221ad34da52a8e1242a48b96f51d7121bb56f17c9ef1f1cf6f30ffffffff020000093d000000001976a914510d0b06436c2a89b91abf3bdcf06de71392ab3188ac409e9f1d000000001976a91446e77b6fabb40fc059a1f1226ea13a51296776ad88ac00000000"}