{"txid":"d78d54560b71c04b68117b4b76c8621a312103f39ca22653125ee694fbc5a989","hash":"d78d54560b71c04b68117b4b76c8621a312103f39ca22653125ee694fbc5a989","version":1,"size":258,"vsize":258,"locktime":0,"vin":[{"sequence":4294967295,"txid":"36b1f9f6a4cdfa091832c546740697e1e4abf7ba27c735f171e1808091a57caf","vout":0,"scriptSig":{"asm":"3045022100b0e82c65cf07ab2f9bd2c6ac38ca2fb61e378eb4e4581e94b4a2c1360acda08f02205fe7d51a7db94ba328208c022ecd305814394875cae2233c98e899d9901a998c[ALL] 04023ebd02d8be8f1dda801823cae3867b3301b343c44797a0b739c96a04aef4adc2f3dea5172d3c85d54722844aad36733635e02840b317203ed3497228cb3f56","hex":"483045022100b0e82c65cf07ab2f9bd2c6ac38ca2fb61e378eb4e4581e94b4a2c1360acda08f02205fe7d51a7db94ba328208c022ecd305814394875cae2233c98e899d9901a998c014104023ebd02d8be8f1dda801823cae3867b3301b343c44797a0b739c96a04aef4adc2f3dea5172d3c85d54722844aad36733635e02840b317203ed3497228cb3f56"}}],"vout":[{"value":26.82,"n":0,"scriptPubKey":{"asm":"OP_DUP OP_HASH160 e542f319c1f142775ea9124012c744dfce6d6e5e OP_EQUALVERIFY OP_CHECKSIG","hex":"76a914e542f319c1f142775ea9124012c744dfce6d6e5e88ac","reqSigs":1,"type":"pubkeyhash","addresses":["1MuDwfr1uMhcb4UehgjrvUZbjZjYkp4TKi"]}},{"value":5.03,"n":1,"scriptPubKey":{"asm":"OP_DUP OP_HASH160 1d8a220764c03e82813a5e765a7c191d294d6316 OP_EQUALVERIFY OP_CHECKSIG","hex":"76a9141d8a220764c03e82813a5e765a7c191d294d631688ac","reqSigs":1,"type":"pubkeyhash","addresses":["13hC5D1KTqBUXT4SVTh9jJJHTU7Ap36JNe"]}}],"hex":"0100000001af7ca5918080e171f135c727baf7abe4e197067446c5321809facda4f6f9b136000000008b483045022100b0e82c65cf07ab2f9bd2c6ac38ca2fb61e378eb4e4581e94b4a2c1360acda08f02205fe7d51a7db94ba328208c022ecd305814394875cae2233c98e899d9901a998c014104023ebd02d8be8f1dda801823cae3867b3301b343c44797a0b739c96a04aef4adc2f3dea5172d3c85d54722844aad36733635e02840b317203ed3497228cb3f56ffffffff028012dc9f000000001976a914e542f319c1f142775ea9124012c744dfce6d6e5e88acc02bfb1d000000001976a9141d8a220764c03e82813a5e765a7c191d294d631688ac00000000"}