{"txid":"daff49754d02adeefe40cba9f14fdcd5596eb5d6330539536b885db65c2eafcc","hash":"daff49754d02adeefe40cba9f14fdcd5596eb5d6330539536b885db65c2eafcc","version":1,"size":257,"vsize":257,"locktime":0,"vin":[{"sequence":4294967295,"txid":"a5c798d6d3eb2ccb8cf20451aa146cd301cc7132ca002f5ce6d326c2e66845d8","vout":0,"scriptSig":{"asm":"3044022100d6433d48224cef1c46e1ab6ca9cdc7e8f87c11339e2e846a1a94e6646817b7ba021f0de85759d7dd6faca06c09969ba983ac792700f15e4cff7c9e4f4c597625f8[ALL] 04d15510386e78609ffe43217704a1434917c436cc92f0e353107f7171348e0dd2cf94ccd46c9d68958a353653cd5f122af0f2b8cc7208e2a9d8337974ae8baf94","hex":"473044022100d6433d48224cef1c46e1ab6ca9cdc7e8f87c11339e2e846a1a94e6646817b7ba021f0de85759d7dd6faca06c09969ba983ac792700f15e4cff7c9e4f4c597625f8014104d15510386e78609ffe43217704a1434917c436cc92f0e353107f7171348e0dd2cf94ccd46c9d68958a353653cd5f122af0f2b8cc7208e2a9d8337974ae8baf94"}}],"vout":[{"value":48.27,"n":0,"scriptPubKey":{"asm":"OP_DUP OP_HASH160 2cee178c5a67520409a777efff2749b4c8e0d6dd OP_EQUALVERIFY OP_CHECKSIG","hex":"76a9142cee178c5a67520409a777efff2749b4c8e0d6dd88ac","reqSigs":1,"type":"pubkeyhash","addresses":["156ZxMykmtEKGhRJr6fprJR1JEkGcwgE7F"]}},{"value":1.38,"n":1,"scriptPubKey":{"asm":"OP_DUP OP_HASH160 f56ffd071612ec48b37afca18f13fb2ae30580d0 OP_EQUALVERIFY OP_CHECKSIG","hex":"76a914f56ffd071612ec48b37afca18f13fb2ae30580d088ac","reqSigs":1,"type":"pubkeyhash","addresses":["1PNki67ZmFr9YBTvFJp6x7o4R6TB4KZdWi"]}}],"hex":"0100000001d84568e6c226d3e65c2f00ca3271cc01d36c14aa5104f28ccb2cebd3d698c7a5000000008a473044022100d6433d48224cef1c46e1ab6ca9cdc7e8f87c11339e2e846a1a94e6646817b7ba021f0de85759d7dd6faca06c09969ba983ac792700f15e4cff7c9e4f4c597625f8014104d15510386e78609ffe43217704a1434917c436cc92f0e353107f7171348e0dd2cf94ccd46c9d68958a353653cd5f122af0f2b8cc7208e2a9d8337974ae8baf94ffffffff02c02cb61f010000001976a9142cee178c5a67520409a777efff2749b4c8e0d6dd88ac80b63908000000001976a914f56ffd071612ec48b37afca18f13fb2ae30580d088ac00000000"}