{"txid":"dbddfd056f708c8a10e70d7e8a0cb79896de81c151bc363723453c0492a90321","hash":"dbddfd056f708c8a10e70d7e8a0cb79896de81c151bc363723453c0492a90321","version":1,"size":258,"vsize":258,"locktime":0,"vin":[{"sequence":4294967295,"txid":"288dd6a443fb64de831850c18669535989eac277d9f1572889f267c603ac197b","vout":0,"scriptSig":{"asm":"3045022029acf5f333a3364cea5e9256c7bd2abf445eb33e19727e4b2282640cd82eb1c3022100e1560c8264f3f6e485651631a5ee98d9a26c49efac66646bcda867e99fa2d2c4[ALL] 042550153459c224adfa8bf1496b46de8deb1939585029962929cfa8a1f386a1a6e60d4986823fe39bc56188053576ce5917a23797668348d7971a1d256a39ff72","hex":"483045022029acf5f333a3364cea5e9256c7bd2abf445eb33e19727e4b2282640cd82eb1c3022100e1560c8264f3f6e485651631a5ee98d9a26c49efac66646bcda867e99fa2d2c40141042550153459c224adfa8bf1496b46de8deb1939585029962929cfa8a1f386a1a6e60d4986823fe39bc56188053576ce5917a23797668348d7971a1d256a39ff72"}}],"vout":[{"value":5.02,"n":0,"scriptPubKey":{"asm":"OP_DUP OP_HASH160 1d8a220764c03e82813a5e765a7c191d294d6316 OP_EQUALVERIFY OP_CHECKSIG","hex":"76a9141d8a220764c03e82813a5e765a7c191d294d631688ac","reqSigs":1,"type":"pubkeyhash","addresses":["13hC5D1KTqBUXT4SVTh9jJJHTU7Ap36JNe"]}},{"value":41.99,"n":1,"scriptPubKey":{"asm":"OP_DUP OP_HASH160 6541c06793a6f7d3e0cbc711eb1304265e5e8612 OP_EQUALVERIFY OP_CHECKSIG","hex":"76a9146541c06793a6f7d3e0cbc711eb1304265e5e861288ac","reqSigs":1,"type":"pubkeyhash","addresses":["1AEQ1sjjqXgYNZRPr9PRYteT9s94e1xsV8"]}}],"hex":"01000000017b19ac03c667f2892857f1d977c2ea8959536986c1501883de64fb43a4d68d28000000008b483045022029acf5f333a3364cea5e9256c7bd2abf445eb33e19727e4b2282640cd82eb1c3022100e1560c8264f3f6e485651631a5ee98d9a26c49efac66646bcda867e99fa2d2c40141042550153459c224adfa8bf1496b46de8deb1939585029962929cfa8a1f386a1a6e60d4986823fe39bc56188053576ce5917a23797668348d7971a1d256a39ff72ffffffff0280e9eb1d000000001976a9141d8a220764c03e82813a5e765a7c191d294d631688acc0a747fa000000001976a9146541c06793a6f7d3e0cbc711eb1304265e5e861288ac00000000"}