{"txid":"ec615afe03e0c6b0672a52d65ba170cbbc4e4a9e22dd7c4b4ee5e31c6b399492","hash":"ec615afe03e0c6b0672a52d65ba170cbbc4e4a9e22dd7c4b4ee5e31c6b399492","version":1,"size":257,"vsize":257,"locktime":0,"vin":[{"sequence":4294967295,"txid":"e62533ab56d24eaf7411f63d1436c4ae0c4547686c6877cc41956859ca39e4d2","vout":0,"scriptSig":{"asm":"304402204f78c47cc27e6f6e850ba6aa0b96f6245012cc6290fa2e3428360221ab1606c1022054636a9d0dead5e39abbefd2ed1c4f851babb33e07104e2f34153a75e268c448[ALL] 04e192ffe010b40b5acc8e08ac8e031cd5e87f6dcdacc2d3d3def5b99b7756dee284428a33de75bfb2c1ef1e43c04f70beac88d5b772c3097cf2ab00b907ee5a0b","hex":"47304402204f78c47cc27e6f6e850ba6aa0b96f6245012cc6290fa2e3428360221ab1606c1022054636a9d0dead5e39abbefd2ed1c4f851babb33e07104e2f34153a75e268c448014104e192ffe010b40b5acc8e08ac8e031cd5e87f6dcdacc2d3d3def5b99b7756dee284428a33de75bfb2c1ef1e43c04f70beac88d5b772c3097cf2ab00b907ee5a0b"}}],"vout":[{"value":30.52,"n":0,"scriptPubKey":{"asm":"OP_DUP OP_HASH160 c46e548789b8012d4b347acd1c2cc07bc65c47be OP_EQUALVERIFY OP_CHECKSIG","hex":"76a914c46e548789b8012d4b347acd1c2cc07bc65c47be88ac","reqSigs":1,"type":"pubkeyhash","addresses":["1JudcUYp6GyofVdGhw5wcbqc9yq9z5nkcJ"]}},{"value":5.16,"n":1,"scriptPubKey":{"asm":"OP_DUP OP_HASH160 1d8a220764c03e82813a5e765a7c191d294d6316 OP_EQUALVERIFY OP_CHECKSIG","hex":"76a9141d8a220764c03e82813a5e765a7c191d294d631688ac","reqSigs":1,"type":"pubkeyhash","addresses":["13hC5D1KTqBUXT4SVTh9jJJHTU7Ap36JNe"]}}],"hex":"0100000001d2e439ca59689541cc77686c6847450caec436143df61174af4ed256ab3325e6000000008a47304402204f78c47cc27e6f6e850ba6aa0b96f6245012cc6290fa2e3428360221ab1606c1022054636a9d0dead5e39abbefd2ed1c4f851babb33e07104e2f34153a75e268c448014104e192ffe010b40b5acc8e08ac8e031cd5e87f6dcdacc2d3d3def5b99b7756dee284428a33de75bfb2c1ef1e43c04f70beac88d5b772c3097cf2ab00b907ee5a0bffffffff0200d3e9b5000000001976a914c46e548789b8012d4b347acd1c2cc07bc65c47be88ac0089c11e000000001976a9141d8a220764c03e82813a5e765a7c191d294d631688ac00000000"}