{"txid":"ff9b10360911edb3cc51ec67baddef0719f55baa2b2b8636024b13a506d75d6c","hash":"ff9b10360911edb3cc51ec67baddef0719f55baa2b2b8636024b13a506d75d6c","version":1,"size":258,"vsize":258,"locktime":0,"vin":[{"sequence":4294967295,"txid":"2f91e272371850b5217e9f2c2c1b298b8958c79e75ec9b74ac698ed9469070bb","vout":0,"scriptSig":{"asm":"30450220206d62f30db1a0315afd5a0f298a18e8f07e0083ef664bd68d3f5fbd1ffdf498022100ab4e60f7ac724a079565c5bc95c3b93b19d6bd9bc2b841165ce3275959281dc0[ALL] 0447703693a4a0021c14056a9883426a785283330755722ff029aa9239a5485d1bb54f690345c1fcdb871c71d1cdffc7e31e6946b55e36b4c1c95c9d3e2262d6a9","hex":"4830450220206d62f30db1a0315afd5a0f298a18e8f07e0083ef664bd68d3f5fbd1ffdf498022100ab4e60f7ac724a079565c5bc95c3b93b19d6bd9bc2b841165ce3275959281dc001410447703693a4a0021c14056a9883426a785283330755722ff029aa9239a5485d1bb54f690345c1fcdb871c71d1cdffc7e31e6946b55e36b4c1c95c9d3e2262d6a9"}}],"vout":[{"value":0.05,"n":0,"scriptPubKey":{"asm":"OP_DUP OP_HASH160 46e77b6fabb40fc059a1f1226ea13a51296776ad OP_EQUALVERIFY OP_CHECKSIG","hex":"76a91446e77b6fabb40fc059a1f1226ea13a51296776ad88ac","reqSigs":1,"type":"pubkeyhash","addresses":["17Tuc6Jew5Pk7nsn3xkFPtaerQSf1TVZTP"]}},{"value":156.55,"n":1,"scriptPubKey":{"asm":"OP_DUP OP_HASH160 8c8b70a31228f72bc3f22ca7e871106ba727864e OP_EQUALVERIFY OP_CHECKSIG","hex":"76a9148c8b70a31228f72bc3f22ca7e871106ba727864e88ac","reqSigs":1,"type":"pubkeyhash","addresses":["1Dp8eKMggfjWLJ2pmLwmTy8dvUd56ni4vY"]}}],"hex":"0100000001bb709046d98e69ac749bec759ec758898b291b2c2c9f7e21b550183772e2912f000000008b4830450220206d62f30db1a0315afd5a0f298a18e8f07e0083ef664bd68d3f5fbd1ffdf498022100ab4e60f7ac724a079565c5bc95c3b93b19d6bd9bc2b841165ce3275959281dc001410447703693a4a0021c14056a9883426a785283330755722ff029aa9239a5485d1bb54f690345c1fcdb871c71d1cdffc7e31e6946b55e36b4c1c95c9d3e2262d6a9ffffffff02404b4c00000000001976a91446e77b6fabb40fc059a1f1226ea13a51296776ad88acc0571ca5030000001976a9148c8b70a31228f72bc3f22ca7e871106ba727864e88ac00000000"}